{
  "_format": "hh-sol-artifact-1",
  "contractName": "PostNFT",
  "sourceName": "contracts/Tokens/PostNFT.sol",
  "abi": [
    {
      "inputs": [
        {
          "internalType": "string",
          "name": "_name",
          "type": "string"
        },
        {
          "internalType": "string",
          "name": "_symbol",
          "type": "string"
        },
        {
          "internalType": "string",
          "name": "_uri",
          "type": "string"
        },
        {
          "internalType": "address",
          "name": "_recipient",
          "type": "address"
        },
        {
          "internalType": "uint96",
          "name": "_royaltyAmount",
          "type": "uint96"
        }
      ],
      "stateMutability": "nonpayable",
      "type": "constructor"
    },
    {
      "anonymous": false,
      "inputs": [
        {
          "indexed": true,
          "internalType": "address",
          "name": "owner",
          "type": "address"
        },
        {
          "indexed": true,
          "internalType": "address",
          "name": "approved",
          "type": "address"
        },
        {
          "indexed": true,
          "internalType": "uint256",
          "name": "tokenId",
          "type": "uint256"
        }
      ],
      "name": "Approval",
      "type": "event"
    },
    {
      "anonymous": false,
      "inputs": [
        {
          "indexed": true,
          "internalType": "address",
          "name": "owner",
          "type": "address"
        },
        {
          "indexed": true,
          "internalType": "address",
          "name": "operator",
          "type": "address"
        },
        {
          "indexed": false,
          "internalType": "bool",
          "name": "approved",
          "type": "bool"
        }
      ],
      "name": "ApprovalForAll",
      "type": "event"
    },
    {
      "anonymous": false,
      "inputs": [
        {
          "indexed": true,
          "internalType": "address",
          "name": "previousOwner",
          "type": "address"
        },
        {
          "indexed": true,
          "internalType": "address",
          "name": "newOwner",
          "type": "address"
        }
      ],
      "name": "OwnershipTransferred",
      "type": "event"
    },
    {
      "anonymous": false,
      "inputs": [
        {
          "indexed": true,
          "internalType": "bytes32",
          "name": "role",
          "type": "bytes32"
        },
        {
          "indexed": true,
          "internalType": "bytes32",
          "name": "previousAdminRole",
          "type": "bytes32"
        },
        {
          "indexed": true,
          "internalType": "bytes32",
          "name": "newAdminRole",
          "type": "bytes32"
        }
      ],
      "name": "RoleAdminChanged",
      "type": "event"
    },
    {
      "anonymous": false,
      "inputs": [
        {
          "indexed": true,
          "internalType": "bytes32",
          "name": "role",
          "type": "bytes32"
        },
        {
          "indexed": true,
          "internalType": "address",
          "name": "account",
          "type": "address"
        },
        {
          "indexed": true,
          "internalType": "address",
          "name": "sender",
          "type": "address"
        }
      ],
      "name": "RoleGranted",
      "type": "event"
    },
    {
      "anonymous": false,
      "inputs": [
        {
          "indexed": true,
          "internalType": "bytes32",
          "name": "role",
          "type": "bytes32"
        },
        {
          "indexed": true,
          "internalType": "address",
          "name": "account",
          "type": "address"
        },
        {
          "indexed": true,
          "internalType": "address",
          "name": "sender",
          "type": "address"
        }
      ],
      "name": "RoleRevoked",
      "type": "event"
    },
    {
      "anonymous": false,
      "inputs": [
        {
          "indexed": true,
          "internalType": "address",
          "name": "from",
          "type": "address"
        },
        {
          "indexed": true,
          "internalType": "address",
          "name": "to",
          "type": "address"
        },
        {
          "indexed": true,
          "internalType": "uint256",
          "name": "tokenId",
          "type": "uint256"
        }
      ],
      "name": "Transfer",
      "type": "event"
    },
    {
      "inputs": [],
      "name": "DEFAULT_ADMIN_ROLE",
      "outputs": [
        {
          "internalType": "bytes32",
          "name": "",
          "type": "bytes32"
        }
      ],
      "stateMutability": "view",
      "type": "function"
    },
    {
      "inputs": [],
      "name": "MINTER_ROLE",
      "outputs": [
        {
          "internalType": "bytes32",
          "name": "",
          "type": "bytes32"
        }
      ],
      "stateMutability": "view",
      "type": "function"
    },
    {
      "inputs": [
        {
          "internalType": "address",
          "name": "to",
          "type": "address"
        },
        {
          "internalType": "uint256",
          "name": "tokenId",
          "type": "uint256"
        }
      ],
      "name": "approve",
      "outputs": [],
      "stateMutability": "nonpayable",
      "type": "function"
    },
    {
      "inputs": [
        {
          "internalType": "address",
          "name": "owner",
          "type": "address"
        }
      ],
      "name": "balanceOf",
      "outputs": [
        {
          "internalType": "uint256",
          "name": "",
          "type": "uint256"
        }
      ],
      "stateMutability": "view",
      "type": "function"
    },
    {
      "inputs": [
        {
          "internalType": "uint256",
          "name": "tokenId",
          "type": "uint256"
        }
      ],
      "name": "getApproved",
      "outputs": [
        {
          "internalType": "address",
          "name": "",
          "type": "address"
        }
      ],
      "stateMutability": "view",
      "type": "function"
    },
    {
      "inputs": [
        {
          "internalType": "bytes32",
          "name": "role",
          "type": "bytes32"
        }
      ],
      "name": "getRoleAdmin",
      "outputs": [
        {
          "internalType": "bytes32",
          "name": "",
          "type": "bytes32"
        }
      ],
      "stateMutability": "view",
      "type": "function"
    },
    {
      "inputs": [
        {
          "internalType": "bytes32",
          "name": "role",
          "type": "bytes32"
        },
        {
          "internalType": "address",
          "name": "account",
          "type": "address"
        }
      ],
      "name": "grantRole",
      "outputs": [],
      "stateMutability": "nonpayable",
      "type": "function"
    },
    {
      "inputs": [
        {
          "internalType": "bytes32",
          "name": "role",
          "type": "bytes32"
        },
        {
          "internalType": "address",
          "name": "account",
          "type": "address"
        }
      ],
      "name": "hasRole",
      "outputs": [
        {
          "internalType": "bool",
          "name": "",
          "type": "bool"
        }
      ],
      "stateMutability": "view",
      "type": "function"
    },
    {
      "inputs": [
        {
          "internalType": "address",
          "name": "owner",
          "type": "address"
        },
        {
          "internalType": "address",
          "name": "operator",
          "type": "address"
        }
      ],
      "name": "isApprovedForAll",
      "outputs": [
        {
          "internalType": "bool",
          "name": "",
          "type": "bool"
        }
      ],
      "stateMutability": "view",
      "type": "function"
    },
    {
      "inputs": [
        {
          "internalType": "address",
          "name": "to",
          "type": "address"
        },
        {
          "internalType": "string",
          "name": "tokenDetails",
          "type": "string"
        }
      ],
      "name": "mint",
      "outputs": [
        {
          "internalType": "bool",
          "name": "",
          "type": "bool"
        }
      ],
      "stateMutability": "nonpayable",
      "type": "function"
    },
    {
      "inputs": [],
      "name": "name",
      "outputs": [
        {
          "internalType": "string",
          "name": "",
          "type": "string"
        }
      ],
      "stateMutability": "view",
      "type": "function"
    },
    {
      "inputs": [],
      "name": "owner",
      "outputs": [
        {
          "internalType": "address",
          "name": "",
          "type": "address"
        }
      ],
      "stateMutability": "view",
      "type": "function"
    },
    {
      "inputs": [
        {
          "internalType": "uint256",
          "name": "tokenId",
          "type": "uint256"
        }
      ],
      "name": "ownerOf",
      "outputs": [
        {
          "internalType": "address",
          "name": "",
          "type": "address"
        }
      ],
      "stateMutability": "view",
      "type": "function"
    },
    {
      "inputs": [],
      "name": "renounceOwnership",
      "outputs": [],
      "stateMutability": "nonpayable",
      "type": "function"
    },
    {
      "inputs": [
        {
          "internalType": "bytes32",
          "name": "role",
          "type": "bytes32"
        },
        {
          "internalType": "address",
          "name": "account",
          "type": "address"
        }
      ],
      "name": "renounceRole",
      "outputs": [],
      "stateMutability": "nonpayable",
      "type": "function"
    },
    {
      "inputs": [
        {
          "internalType": "bytes32",
          "name": "role",
          "type": "bytes32"
        },
        {
          "internalType": "address",
          "name": "account",
          "type": "address"
        }
      ],
      "name": "revokeRole",
      "outputs": [],
      "stateMutability": "nonpayable",
      "type": "function"
    },
    {
      "inputs": [
        {
          "internalType": "uint256",
          "name": "_tokenId",
          "type": "uint256"
        },
        {
          "internalType": "uint256",
          "name": "_salePrice",
          "type": "uint256"
        }
      ],
      "name": "royaltyInfo",
      "outputs": [
        {
          "internalType": "address",
          "name": "",
          "type": "address"
        },
        {
          "internalType": "uint256",
          "name": "",
          "type": "uint256"
        }
      ],
      "stateMutability": "view",
      "type": "function"
    },
    {
      "inputs": [
        {
          "internalType": "address",
          "name": "to",
          "type": "address"
        },
        {
          "internalType": "uint256",
          "name": "tokenId",
          "type": "uint256"
        }
      ],
      "name": "safeTransfer",
      "outputs": [],
      "stateMutability": "nonpayable",
      "type": "function"
    },
    {
      "inputs": [
        {
          "internalType": "address",
          "name": "to",
          "type": "address"
        },
        {
          "internalType": "uint256",
          "name": "tokenId",
          "type": "uint256"
        },
        {
          "internalType": "bytes",
          "name": "data",
          "type": "bytes"
        }
      ],
      "name": "safeTransfer",
      "outputs": [],
      "stateMutability": "nonpayable",
      "type": "function"
    },
    {
      "inputs": [
        {
          "internalType": "address",
          "name": "from",
          "type": "address"
        },
        {
          "internalType": "address",
          "name": "to",
          "type": "address"
        },
        {
          "internalType": "uint256",
          "name": "tokenId",
          "type": "uint256"
        }
      ],
      "name": "safeTransferFrom",
      "outputs": [],
      "stateMutability": "nonpayable",
      "type": "function"
    },
    {
      "inputs": [
        {
          "internalType": "address",
          "name": "from",
          "type": "address"
        },
        {
          "internalType": "address",
          "name": "to",
          "type": "address"
        },
        {
          "internalType": "uint256",
          "name": "tokenId",
          "type": "uint256"
        },
        {
          "internalType": "bytes",
          "name": "_data",
          "type": "bytes"
        }
      ],
      "name": "safeTransferFrom",
      "outputs": [],
      "stateMutability": "nonpayable",
      "type": "function"
    },
    {
      "inputs": [
        {
          "internalType": "address",
          "name": "operator",
          "type": "address"
        },
        {
          "internalType": "bool",
          "name": "approved",
          "type": "bool"
        }
      ],
      "name": "setApprovalForAll",
      "outputs": [],
      "stateMutability": "nonpayable",
      "type": "function"
    },
    {
      "inputs": [
        {
          "internalType": "address",
          "name": "_recipient",
          "type": "address"
        },
        {
          "internalType": "uint96",
          "name": "_value",
          "type": "uint96"
        }
      ],
      "name": "setRoyalty",
      "outputs": [],
      "stateMutability": "nonpayable",
      "type": "function"
    },
    {
      "inputs": [
        {
          "internalType": "uint256",
          "name": "tokenId",
          "type": "uint256"
        },
        {
          "internalType": "address",
          "name": "receiver",
          "type": "address"
        },
        {
          "internalType": "uint96",
          "name": "feeNumerator",
          "type": "uint96"
        }
      ],
      "name": "setTokenRoyalty",
      "outputs": [],
      "stateMutability": "nonpayable",
      "type": "function"
    },
    {
      "inputs": [
        {
          "internalType": "uint256",
          "name": "tokenId",
          "type": "uint256"
        },
        {
          "internalType": "string",
          "name": "_uri",
          "type": "string"
        }
      ],
      "name": "setTokenURI",
      "outputs": [
        {
          "internalType": "bool",
          "name": "",
          "type": "bool"
        }
      ],
      "stateMutability": "nonpayable",
      "type": "function"
    },
    {
      "inputs": [
        {
          "internalType": "string",
          "name": "_uri",
          "type": "string"
        }
      ],
      "name": "setURIBase",
      "outputs": [
        {
          "internalType": "bool",
          "name": "",
          "type": "bool"
        }
      ],
      "stateMutability": "nonpayable",
      "type": "function"
    },
    {
      "inputs": [
        {
          "internalType": "bytes4",
          "name": "interfaceId",
          "type": "bytes4"
        }
      ],
      "name": "supportsInterface",
      "outputs": [
        {
          "internalType": "bool",
          "name": "",
          "type": "bool"
        }
      ],
      "stateMutability": "view",
      "type": "function"
    },
    {
      "inputs": [],
      "name": "symbol",
      "outputs": [
        {
          "internalType": "string",
          "name": "",
          "type": "string"
        }
      ],
      "stateMutability": "view",
      "type": "function"
    },
    {
      "inputs": [
        {
          "internalType": "uint256",
          "name": "tokenId",
          "type": "uint256"
        }
      ],
      "name": "tokenURI",
      "outputs": [
        {
          "internalType": "string",
          "name": "",
          "type": "string"
        }
      ],
      "stateMutability": "view",
      "type": "function"
    },
    {
      "inputs": [],
      "name": "totalSupply",
      "outputs": [
        {
          "internalType": "uint256",
          "name": "",
          "type": "uint256"
        }
      ],
      "stateMutability": "view",
      "type": "function"
    },
    {
      "inputs": [
        {
          "internalType": "address",
          "name": "from",
          "type": "address"
        },
        {
          "internalType": "address",
          "name": "to",
          "type": "address"
        },
        {
          "internalType": "uint256",
          "name": "tokenId",
          "type": "uint256"
        }
      ],
      "name": "transferFrom",
      "outputs": [],
      "stateMutability": "nonpayable",
      "type": "function"
    },
    {
      "inputs": [
        {
          "internalType": "address",
          "name": "newOwner",
          "type": "address"
        }
      ],
      "name": "transferOwnership",
      "outputs": [],
      "stateMutability": "nonpayable",
      "type": "function"
    }
  ],
  "bytecode": "0x60806040523480156200001157600080fd5b5060405162002db638038062002db6833981016040819052620000349162000485565b84846200004133620000d7565b8151620000569060049060208501906200032c565b5080516200006c9060059060208401906200032c565b506200007e9150600090503362000127565b620000aa7f9f2df0fed2c77648de5860a4cc508cd0818c85b8b8a1ab4ceeef8d981c8956a63362000127565b620000b6828262000137565b8251620000cb90600c9060208601906200032c565b505050505050620005a8565b600080546001600160a01b038381166001600160a01b0319831681178455604051919092169283917f8be0079c531659141344cd1fd0a4f28419497f9722a3daafe3b4186f6b6457e09190a35050565b620001338282620001a3565b5050565b6000546001600160a01b03163314620001975760405162461bcd60e51b815260206004820181905260248201527f4f776e61626c653a2063616c6c6572206973206e6f7420746865206f776e657260448201526064015b60405180910390fd5b6200013382826200022b565b60008281526001602090815260408083206001600160a01b038516845290915290205460ff16620001335760008281526001602081815260408084206001600160a01b0386168086529252808420805460ff19169093179092559051339285917f2f8788117e7eff1d82e926ec794901d17c78024a50270940304540a733656f0d9190a45050565b6127106001600160601b03821611156200029b5760405162461bcd60e51b815260206004820152602a60248201527f455243323938313a20726f79616c7479206665652077696c6c206578636565646044820152692073616c65507269636560b01b60648201526084016200018e565b6001600160a01b038216620002f35760405162461bcd60e51b815260206004820152601960248201527f455243323938313a20696e76616c69642072656365697665720000000000000060448201526064016200018e565b604080518082019091526001600160a01b039092168083526001600160601b039091166020909201829052600160a01b90910217600255565b8280546200033a9062000555565b90600052602060002090601f0160209004810192826200035e5760008555620003a9565b82601f106200037957805160ff1916838001178555620003a9565b82800160010185558215620003a9579182015b82811115620003a95782518255916020019190600101906200038c565b50620003b7929150620003bb565b5090565b5b80821115620003b75760008155600101620003bc565b600082601f830112620003e3578081fd5b81516001600160401b038082111562000400576200040062000592565b604051601f8301601f19908116603f011681019082821181831017156200042b576200042b62000592565b8160405283815260209250868385880101111562000447578485fd5b8491505b838210156200046a57858201830151818301840152908201906200044b565b838211156200047b57848385830101525b9695505050505050565b600080600080600060a086880312156200049d578081fd5b85516001600160401b0380821115620004b4578283fd5b620004c289838a01620003d2565b96506020880151915080821115620004d8578283fd5b620004e689838a01620003d2565b95506040880151915080821115620004fc578283fd5b506200050b88828901620003d2565b606088015190945090506001600160a01b03811681146200052a578182fd5b60808701519092506001600160601b038116811462000547578182fd5b809150509295509295909350565b600181811c908216806200056a57607f821691505b602082108114156200058c57634e487b7160e01b600052602260045260246000fd5b50919050565b634e487b7160e01b600052604160045260246000fd5b6127fe80620005b86000396000f3fe608060405234801561001057600080fd5b50600436106101f05760003560e01c8063715018a61161010f578063be7edebe116100a2578063d547741f11610071578063d547741f1461045e578063e985e9c514610471578063eb795549146104ad578063f2fde38b146104c057600080fd5b8063be7edebe146103fe578063c87b56dd14610411578063d0def52114610424578063d53913931461043757600080fd5b806395d89b41116100de57806395d89b41146103c8578063a217fddf146103d0578063a22cb465146103d8578063b88d4fde146103eb57600080fd5b8063715018a6146103895780638da5cb5b146103915780638f2fc60b146103a257806391d14854146103b557600080fd5b80632a55205a1161018757806342842e0e1161015657806342842e0e1461033d5780635944c753146103505780636352211e1461036357806370a082311461037657600080fd5b80632a55205a146102d25780632f2ff15d1461030457806336568abe14610317578063423f6cef1461032a57600080fd5b8063162094c4116101c3578063162094c41461027257806318160ddd1461028557806323b872dd1461029b578063248a9ca3146102ae57600080fd5b806301ffc9a7146101f557806306fdde031461021d578063081812fc14610232578063095ea7b31461025d575b600080fd5b610208610203366004612123565b6104d3565b60405190151581526020015b60405180910390f35b6102256104e4565b6040516102149190612379565b6102456102403660046120e9565b610576565b6040516001600160a01b039091168152602001610214565b61027061026b366004612015565b610610565b005b6102086102803660046121c9565b610726565b61028d610803565b604051908152602001610214565b6102706102a9366004611edb565b610813565b61028d6102bc3660046120e9565b6000908152600160208190526040909120015490565b6102e56102e03660046121f8565b610844565b604080516001600160a01b039093168352602083019190915201610214565b610270610312366004612101565b6108f0565b610270610325366004612101565b610917565b610270610338366004612015565b610995565b61027061034b366004611edb565b6109b0565b61027061035e36600461218e565b6109cb565b6102456103713660046120e9565b610a41565b61028d610384366004611e8f565b610ab8565b610270610b3f565b6000546001600160a01b0316610245565b6102706103b03660046120c0565b610b75565b6102086103c3366004612101565b610ba9565b610225610bd4565b61028d600081565b6102706103e6366004611f8f565b610be3565b6102706103f9366004611f16565b610bee565b61020861040c36600461215b565b610c26565b61022561041f3660046120e9565b610c6f565b610208610432366004611fc9565b610d9e565b61028d7f9f2df0fed2c77648de5860a4cc508cd0818c85b8b8a1ab4ceeef8d981c8956a681565b61027061046c366004612101565b610e5a565b61020861047f366004611ea9565b6001600160a01b03918216600090815260096020908152604080832093909416825291909152205460ff1690565b6102706104bb36600461203e565b610e81565b6102706104ce366004611e8f565b610ec3565b60006104de82610f5e565b92915050565b6060600480546104f39061271a565b80601f016020809104026020016040519081016040528092919081815260200182805461051f9061271a565b801561056c5780601f106105415761010080835404028352916020019161056c565b820191906000526020600020905b81548152906001019060200180831161054f57829003601f168201915b5050505050905090565b6000818152600660205260408120546001600160a01b03166105f45760405162461bcd60e51b815260206004820152602c60248201527f4552433732313a20617070726f76656420717565727920666f72206e6f6e657860448201526b34b9ba32b73a103a37b5b2b760a11b60648201526084015b60405180910390fd5b506000908152600860205260409020546001600160a01b031690565b600061061b82610a41565b9050806001600160a01b0316836001600160a01b031614156106895760405162461bcd60e51b815260206004820152602160248201527f4552433732313a20617070726f76616c20746f2063757272656e74206f776e656044820152603960f91b60648201526084016105eb565b336001600160a01b03821614806106a557506106a5813361047f565b6107175760405162461bcd60e51b815260206004820152603860248201527f4552433732313a20617070726f76652063616c6c6572206973206e6f74206f7760448201527f6e6572206e6f7220617070726f76656420666f7220616c6c000000000000000060648201526084016105eb565b6107218383610f69565b505050565b6000828152600660205260408120546001600160a01b031661075a5760405162461bcd60e51b81526004016105eb906123de565b3361076484610a41565b6001600160a01b0316146107d45760405162461bcd60e51b815260206004820152603160248201527f45524337323155524953746f726167653a2055524920717565727920666f722060448201527031b7b7333634b1ba34b733903a37b5b2b760791b60648201526084016105eb565b6000838152600b6020908152604090912083516107f992600190920191850190611d33565b5060019392505050565b600061080e600a5490565b905090565b61081d3382610fd7565b6108395760405162461bcd60e51b81526004016105eb90612464565b6107218383836110ce565b60008281526003602090815260408083208151808301909252546001600160a01b038116808352600160a01b9091046001600160601b03169282019290925282916108b95750604080518082019091526002546001600160a01b0381168252600160a01b90046001600160601b031660208201525b6020810151600090612710906108d8906001600160601b03168761265d565b6108e2919061253c565b915196919550909350505050565b6000828152600160208190526040909120015461090d813361126a565b61072183836112ce565b6001600160a01b03811633146109875760405162461bcd60e51b815260206004820152602f60248201527f416363657373436f6e74726f6c3a2063616e206f6e6c792072656e6f756e636560448201526e103937b632b9903337b91039b2b63360891b60648201526084016105eb565b6109918282611339565b5050565b610991338383604051806020016040528060008152506113a0565b61072183838360405180602001604052806000815250610bee565b336109d584610a41565b6001600160a01b031614610a365760405162461bcd60e51b815260206004820152602260248201527f506f73744e46543a204f6e6c7920746f6b656e206f776e657220616c6c6f7765604482015261321760f11b60648201526084016105eb565b6107218383836113d3565b6000818152600660205260408120546001600160a01b0316806104de5760405162461bcd60e51b815260206004820152602960248201527f4552433732313a206f776e657220717565727920666f72206e6f6e657869737460448201526832b73a103a37b5b2b760b91b60648201526084016105eb565b60006001600160a01b038216610b235760405162461bcd60e51b815260206004820152602a60248201527f4552433732313a2062616c616e636520717565727920666f7220746865207a65604482015269726f206164647265737360b01b60648201526084016105eb565b506001600160a01b031660009081526007602052604090205490565b6000546001600160a01b03163314610b695760405162461bcd60e51b81526004016105eb9061242f565b610b73600061149e565b565b6000546001600160a01b03163314610b9f5760405162461bcd60e51b81526004016105eb9061242f565b61099182826114ee565b60009182526001602090815260408084206001600160a01b0393909316845291905290205460ff1690565b6060600580546104f39061271a565b6109913383836115a8565b610bf83383610fd7565b610c145760405162461bcd60e51b81526004016105eb90612464565b610c20848484846113a0565b50505050565b600080546001600160a01b03163314610c515760405162461bcd60e51b81526004016105eb9061242f565b8151610c6490600c906020850190611d33565b50600190505b919050565b6000818152600660205260409020546060906001600160a01b0316610ca65760405162461bcd60e51b81526004016105eb906123de565b6000828152600b602052604081206001018054610cc29061271a565b80601f0160208091040260200160405190810160405280929190818152602001828054610cee9061271a565b8015610d3b5780601f10610d1057610100808354040283529160200191610d3b565b820191906000526020600020905b815481529060010190602001808311610d1e57829003601f168201915b505050505090506000610d4c611677565b825190915015610d81578082604051602001610d69929190612245565b60405160208183030381529060405292505050919050565b80610d8b30611686565b85604051602001610d6993929190612274565b60007f9f2df0fed2c77648de5860a4cc508cd0818c85b8b8a1ab4ceeef8d981c8956a6610dcb813361126a565b610dd9600a80546001019055565b6000610de4600a5490565b604080518082018252868152815160208181018452600080835281840192909252848252600b81529290208151805194955091939092610e28928492910190611d33565b506020828101518051610e419260018501920190611d33565b50905050610e4f85826117e9565b506001949350505050565b60008281526001602081905260409091200154610e77813361126a565b6107218383611339565b610c2033858585858080601f0160208091040260200160405190810160405280939291908181526020018383808284376000920191909152506113a092505050565b6000546001600160a01b03163314610eed5760405162461bcd60e51b81526004016105eb9061242f565b6001600160a01b038116610f525760405162461bcd60e51b815260206004820152602660248201527f4f776e61626c653a206e6577206f776e657220697320746865207a65726f206160448201526564647265737360d01b60648201526084016105eb565b610f5b8161149e565b50565b60006104de82611803565b600081815260086020526040902080546001600160a01b0319166001600160a01b0384169081179091558190610f9e82610a41565b6001600160a01b03167f8c5be1e5ebec7d5bd14f71427d1e84f3dd0314c0f7b2291e5b200ac8c7c3b92560405160405180910390a45050565b6000818152600660205260408120546001600160a01b03166110505760405162461bcd60e51b815260206004820152602c60248201527f4552433732313a206f70657261746f7220717565727920666f72206e6f6e657860448201526b34b9ba32b73a103a37b5b2b760a11b60648201526084016105eb565b600061105b83610a41565b9050806001600160a01b0316846001600160a01b031614806110965750836001600160a01b031661108b84610576565b6001600160a01b0316145b806110c657506001600160a01b0380821660009081526009602090815260408083209388168352929052205460ff165b949350505050565b826001600160a01b03166110e182610a41565b6001600160a01b0316146111455760405162461bcd60e51b815260206004820152602560248201527f4552433732313a207472616e736665722066726f6d20696e636f72726563742060448201526437bbb732b960d91b60648201526084016105eb565b6001600160a01b0382166111a75760405162461bcd60e51b8152602060048201526024808201527f4552433732313a207472616e7366657220746f20746865207a65726f206164646044820152637265737360e01b60648201526084016105eb565b6111b2600082610f69565b6001600160a01b03831660009081526007602052604081208054600192906111db90849061269d565b90915550506001600160a01b03821660009081526007602052604081208054600192906112099084906124ff565b909155505060008181526006602052604080822080546001600160a01b0319166001600160a01b0386811691821790925591518493918716917fddf252ad1be2c89b69c2b068fc378daa952ba7f163c4a11628f55a4df523b3ef91a4505050565b6112748282610ba9565b6109915761128c816001600160a01b03166014611843565b611297836020611843565b6040516020016112a89291906122c7565b60408051601f198184030181529082905262461bcd60e51b82526105eb91600401612379565b6112d88282610ba9565b6109915760008281526001602081815260408084206001600160a01b0386168086529252808420805460ff19169093179092559051339285917f2f8788117e7eff1d82e926ec794901d17c78024a50270940304540a733656f0d9190a45050565b6113438282610ba9565b156109915760008281526001602090815260408083206001600160a01b0385168085529252808320805460ff1916905551339285917ff6391f5c32d9c69d2a47ea670b442974b53935d1edc7fd64eb21e047a839171b9190a45050565b6113ab8484846110ce565b6113b784848484611a2c565b610c205760405162461bcd60e51b81526004016105eb9061238c565b6127106001600160601b03821611156113fe5760405162461bcd60e51b81526004016105eb906124b5565b6001600160a01b0382166114545760405162461bcd60e51b815260206004820152601b60248201527f455243323938313a20496e76616c696420706172616d6574657273000000000060448201526064016105eb565b6040805180820182526001600160a01b0393841681526001600160601b0392831660208083019182526000968752600390529190942093519051909116600160a01b029116179055565b600080546001600160a01b038381166001600160a01b0319831681178455604051919092169283917f8be0079c531659141344cd1fd0a4f28419497f9722a3daafe3b4186f6b6457e09190a35050565b6127106001600160601b03821611156115195760405162461bcd60e51b81526004016105eb906124b5565b6001600160a01b03821661156f5760405162461bcd60e51b815260206004820152601960248201527f455243323938313a20696e76616c69642072656365697665720000000000000060448201526064016105eb565b604080518082019091526001600160a01b039092168083526001600160601b039091166020909201829052600160a01b90910217600255565b816001600160a01b0316836001600160a01b0316141561160a5760405162461bcd60e51b815260206004820152601960248201527f4552433732313a20617070726f766520746f2063616c6c65720000000000000060448201526064016105eb565b6001600160a01b03838116600081815260096020908152604080832094871680845294825291829020805460ff191686151590811790915591519182527f17307eab39ab6107e8899845ad3d59bd9653f200f220920489ca2b5937696c31910160405180910390a3505050565b6060600c80546104f39061271a565b60408051602880825260608281019093526000919060208201818036833701905050905060005b60148110156117e25760006116c382601361269d565b6116ce90600861265d565b6116d99060026125b5565b6116ec906001600160a01b03871661253c565b60f81b9050600060108260f81c6117039190612550565b60f81b905060008160f81c601061171a919061267c565b8360f81c61172891906126b4565b60f81b905061173682611b2e565b8561174286600261265d565b8151811061176057634e487b7160e01b600052603260045260246000fd5b60200101906001600160f81b031916908160001a90535061178081611b2e565b8561178c86600261265d565b6117979060016124ff565b815181106117b557634e487b7160e01b600052603260045260246000fd5b60200101906001600160f81b031916908160001a90535050505080806117da90612755565b9150506116ad565b5092915050565b610991828260405180602001604052806000815250611b64565b60006001600160e01b031982166380ac58cd60e01b148061183457506001600160e01b03198216635b5e139f60e01b145b806104de57506104de82611b97565b6060600061185283600261265d565b61185d9060026124ff565b67ffffffffffffffff81111561188357634e487b7160e01b600052604160045260246000fd5b6040519080825280601f01601f1916602001820160405280156118ad576020820181803683370190505b509050600360fc1b816000815181106118d657634e487b7160e01b600052603260045260246000fd5b60200101906001600160f81b031916908160001a905350600f60fb1b8160018151811061191357634e487b7160e01b600052603260045260246000fd5b60200101906001600160f81b031916908160001a905350600061193784600261265d565b6119429060016124ff565b90505b60018111156119d6576f181899199a1a9b1b9c1cb0b131b232b360811b85600f166010811061198457634e487b7160e01b600052603260045260246000fd5b1a60f81b8282815181106119a857634e487b7160e01b600052603260045260246000fd5b60200101906001600160f81b031916908160001a90535060049490941c936119cf81612703565b9050611945565b508315611a255760405162461bcd60e51b815260206004820181905260248201527f537472696e67733a20686578206c656e67746820696e73756666696369656e7460448201526064016105eb565b9392505050565b60006001600160a01b0384163b15610e4f57604051630a85bd0160e11b81526001600160a01b0385169063150b7a0290611a7090339089908890889060040161233c565b602060405180830381600087803b158015611a8a57600080fd5b505af1925050508015611aba575060408051601f3d908101601f19168201909252611ab79181019061213f565b60015b611b14573d808015611ae8576040519150601f19603f3d011682016040523d82523d6000602084013e611aed565b606091505b508051611b0c5760405162461bcd60e51b81526004016105eb9061238c565b805181602001fd5b6001600160e01b031916630a85bd0160e11b1490506110c6565b6000600a60f883901c1015611b5557611b4c60f883901c6030612517565b60f81b92915050565b611b4c60f883901c6057612517565b611b6e8383611bbc565b611b7b6000848484611a2c565b6107215760405162461bcd60e51b81526004016105eb9061238c565b60006001600160e01b0319821663152a902d60e11b14806104de57506104de82611cfe565b6001600160a01b038216611c125760405162461bcd60e51b815260206004820181905260248201527f4552433732313a206d696e7420746f20746865207a65726f206164647265737360448201526064016105eb565b6000818152600660205260409020546001600160a01b031615611c775760405162461bcd60e51b815260206004820152601c60248201527f4552433732313a20746f6b656e20616c7265616479206d696e7465640000000060448201526064016105eb565b6001600160a01b0382166000908152600760205260408120805460019290611ca09084906124ff565b909155505060008181526006602052604080822080546001600160a01b0319166001600160a01b03861690811790915590518392907fddf252ad1be2c89b69c2b068fc378daa952ba7f163c4a11628f55a4df523b3ef908290a45050565b60006001600160e01b03198216637965db0b60e01b14806104de57506301ffc9a760e01b6001600160e01b03198316146104de565b828054611d3f9061271a565b90600052602060002090601f016020900481019282611d615760008555611da7565b82601f10611d7a57805160ff1916838001178555611da7565b82800160010185558215611da7579182015b82811115611da7578251825591602001919060010190611d8c565b50611db3929150611db7565b5090565b5b80821115611db35760008155600101611db8565b600067ffffffffffffffff80841115611de757611de761279c565b604051601f8501601f19908116603f01168101908282118183101715611e0f57611e0f61279c565b81604052809350858152868686011115611e2857600080fd5b858560208301376000602087830101525050509392505050565b80356001600160a01b0381168114610c6a57600080fd5b600082601f830112611e69578081fd5b611a2583833560208501611dcc565b80356001600160601b0381168114610c6a57600080fd5b600060208284031215611ea0578081fd5b611a2582611e42565b60008060408385031215611ebb578081fd5b611ec483611e42565b9150611ed260208401611e42565b90509250929050565b600080600060608486031215611eef578081fd5b611ef884611e42565b9250611f0660208501611e42565b9150604084013590509250925092565b60008060008060808587031215611f2b578081fd5b611f3485611e42565b9350611f4260208601611e42565b925060408501359150606085013567ffffffffffffffff811115611f64578182fd5b8501601f81018713611f74578182fd5b611f8387823560208401611dcc565b91505092959194509250565b60008060408385031215611fa1578182fd5b611faa83611e42565b915060208301358015158114611fbe578182fd5b809150509250929050565b60008060408385031215611fdb578182fd5b611fe483611e42565b9150602083013567ffffffffffffffff811115611fff578182fd5b61200b85828601611e59565b9150509250929050565b60008060408385031215612027578182fd5b61203083611e42565b946020939093013593505050565b60008060008060608587031215612053578384fd5b61205c85611e42565b935060208501359250604085013567ffffffffffffffff8082111561207f578384fd5b818701915087601f830112612092578384fd5b8135818111156120a0578485fd5b8860208285010111156120b1578485fd5b95989497505060200194505050565b600080604083850312156120d2578182fd5b6120db83611e42565b9150611ed260208401611e78565b6000602082840312156120fa578081fd5b5035919050565b60008060408385031215612113578182fd5b82359150611ed260208401611e42565b600060208284031215612134578081fd5b8135611a25816127b2565b600060208284031215612150578081fd5b8151611a25816127b2565b60006020828403121561216c578081fd5b813567ffffffffffffffff811115612182578182fd5b6110c684828501611e59565b6000806000606084860312156121a2578081fd5b833592506121b260208501611e42565b91506121c060408501611e78565b90509250925092565b600080604083850312156121db578182fd5b82359150602083013567ffffffffffffffff811115611fff578182fd5b6000806040838503121561220a578182fd5b50508035926020909101359150565b600081518084526122318160208601602086016126d7565b601f01601f19169290920160200192915050565b600083516122578184602088016126d7565b83519083019061226b8183602088016126d7565b01949350505050565b600084516122868184602089016126d7565b61060f60f31b90830190815284516122a58160028401602089016126d7565b602f60f81b600292909101918201526003810193909352505060230192915050565b7f416363657373436f6e74726f6c3a206163636f756e74200000000000000000008152600083516122ff8160178501602088016126d7565b7001034b99036b4b9b9b4b733903937b6329607d1b60179184019182015283516123308160288401602088016126d7565b01602801949350505050565b6001600160a01b038581168252841660208201526040810183905260806060820181905260009061236f90830184612219565b9695505050505050565b602081526000611a256020830184612219565b60208082526032908201527f4552433732313a207472616e7366657220746f206e6f6e20455243373231526560408201527131b2b4bb32b91034b6b83632b6b2b73a32b960711b606082015260800190565b60208082526031908201527f45524337323155524953746f726167653a2055524920717565727920666f72206040820152703737b732bc34b9ba32b73a103a37b5b2b760791b606082015260800190565b6020808252818101527f4f776e61626c653a2063616c6c6572206973206e6f7420746865206f776e6572604082015260600190565b60208082526031908201527f4552433732313a207472616e736665722063616c6c6572206973206e6f74206f6040820152701ddb995c881b9bdc88185c1c1c9bdd9959607a1b606082015260800190565b6020808252602a908201527f455243323938313a20726f79616c7479206665652077696c6c206578636565646040820152692073616c65507269636560b01b606082015260800190565b6000821982111561251257612512612770565b500190565b600060ff821660ff84168060ff0382111561253457612534612770565b019392505050565b60008261254b5761254b612786565b500490565b600060ff83168061256357612563612786565b8060ff84160491505092915050565b600181815b808511156125ad57816000190482111561259357612593612770565b808516156125a057918102915b93841c9390800290612577565b509250929050565b6000611a2583836000826125cb575060016104de565b816125d8575060006104de565b81600181146125ee57600281146125f857612614565b60019150506104de565b60ff84111561260957612609612770565b50506001821b6104de565b5060208310610133831016604e8410600b8410161715612637575081810a6104de565b6126418383612572565b806000190482111561265557612655612770565b029392505050565b600081600019048311821515161561267757612677612770565b500290565b600060ff821660ff84168160ff048111821515161561265557612655612770565b6000828210156126af576126af612770565b500390565b600060ff821660ff8416808210156126ce576126ce612770565b90039392505050565b60005b838110156126f25781810151838201526020016126da565b83811115610c205750506000910152565b60008161271257612712612770565b506000190190565b600181811c9082168061272e57607f821691505b6020821081141561274f57634e487b7160e01b600052602260045260246000fd5b50919050565b600060001982141561276957612769612770565b5060010190565b634e487b7160e01b600052601160045260246000fd5b634e487b7160e01b600052601260045260246000fd5b634e487b7160e01b600052604160045260246000fd5b6001600160e01b031981168114610f5b57600080fdfea2646970667358221220a3bcc5f4cc3dde2f3e1e7dc0ffb3730f02910c3b4b51c6fbc6390099a108110b64736f6c63430008040033",
  "linkReferences": {},
  "deployedLinkReferences": {}
}