{
  "_format": "hh-sol-artifact-1",
  "contractName": "TheShareAuction",
  "sourceName": "contracts/Protocol/TheShareAuction.sol",
  "abi": [
    {
      "inputs": [
        {
          "internalType": "uint256",
          "name": "fee",
          "type": "uint256"
        },
        {
          "internalType": "address",
          "name": "feeRecipient",
          "type": "address"
        }
      ],
      "stateMutability": "nonpayable",
      "type": "constructor"
    },
    {
      "anonymous": false,
      "inputs": [
        {
          "indexed": true,
          "internalType": "address",
          "name": "buyer",
          "type": "address"
        },
        {
          "indexed": true,
          "internalType": "uint256",
          "name": "amount",
          "type": "uint256"
        },
        {
          "indexed": false,
          "internalType": "string",
          "name": "id",
          "type": "string"
        }
      ],
      "name": "AuctionBid",
      "type": "event"
    },
    {
      "anonymous": false,
      "inputs": [
        {
          "indexed": false,
          "internalType": "string",
          "name": "id",
          "type": "string"
        }
      ],
      "name": "AuctionCancelled",
      "type": "event"
    },
    {
      "anonymous": false,
      "inputs": [
        {
          "indexed": true,
          "internalType": "bool",
          "name": "isErc721",
          "type": "bool"
        },
        {
          "indexed": true,
          "internalType": "address",
          "name": "nftAddress",
          "type": "address"
        },
        {
          "indexed": true,
          "internalType": "uint256",
          "name": "tokenId",
          "type": "uint256"
        },
        {
          "indexed": false,
          "internalType": "string",
          "name": "id",
          "type": "string"
        },
        {
          "indexed": false,
          "internalType": "uint256",
          "name": "amount",
          "type": "uint256"
        },
        {
          "indexed": false,
          "internalType": "address",
          "name": "erc20Address",
          "type": "address"
        },
        {
          "indexed": false,
          "internalType": "uint256",
          "name": "endedAt",
          "type": "uint256"
        }
      ],
      "name": "AuctionCreated",
      "type": "event"
    },
    {
      "anonymous": false,
      "inputs": [
        {
          "indexed": false,
          "internalType": "string",
          "name": "id",
          "type": "string"
        }
      ],
      "name": "AuctionSettled",
      "type": "event"
    },
    {
      "anonymous": false,
      "inputs": [
        {
          "indexed": true,
          "internalType": "address",
          "name": "previousOwner",
          "type": "address"
        },
        {
          "indexed": true,
          "internalType": "address",
          "name": "newOwner",
          "type": "address"
        }
      ],
      "name": "OwnershipTransferred",
      "type": "event"
    },
    {
      "inputs": [
        {
          "internalType": "string",
          "name": "id",
          "type": "string"
        },
        {
          "internalType": "uint256",
          "name": "bidValue",
          "type": "uint256"
        }
      ],
      "name": "bid",
      "outputs": [],
      "stateMutability": "payable",
      "type": "function"
    },
    {
      "inputs": [
        {
          "internalType": "string",
          "name": "id",
          "type": "string"
        },
        {
          "internalType": "uint256",
          "name": "bidValue",
          "type": "uint256"
        },
        {
          "internalType": "address",
          "name": "bidder",
          "type": "address"
        }
      ],
      "name": "bidForExternalBidder",
      "outputs": [],
      "stateMutability": "nonpayable",
      "type": "function"
    },
    {
      "inputs": [
        {
          "internalType": "string",
          "name": "id",
          "type": "string"
        }
      ],
      "name": "cancelAuction",
      "outputs": [],
      "stateMutability": "payable",
      "type": "function"
    },
    {
      "inputs": [
        {
          "internalType": "string",
          "name": "id",
          "type": "string"
        },
        {
          "internalType": "bool",
          "name": "isErc721",
          "type": "bool"
        },
        {
          "internalType": "address",
          "name": "nftAddress",
          "type": "address"
        },
        {
          "internalType": "uint256",
          "name": "tokenId",
          "type": "uint256"
        },
        {
          "internalType": "address",
          "name": "seller",
          "type": "address"
        },
        {
          "internalType": "uint256",
          "name": "amount",
          "type": "uint256"
        },
        {
          "internalType": "uint256",
          "name": "endedAt",
          "type": "uint256"
        },
        {
          "internalType": "address",
          "name": "erc20Address",
          "type": "address"
        }
      ],
      "name": "createAuction",
      "outputs": [],
      "stateMutability": "nonpayable",
      "type": "function"
    },
    {
      "inputs": [
        {
          "internalType": "string",
          "name": "id",
          "type": "string"
        }
      ],
      "name": "getAuction",
      "outputs": [
        {
          "components": [
            {
              "internalType": "address",
              "name": "seller",
              "type": "address"
            },
            {
              "internalType": "address",
              "name": "nftAddress",
              "type": "address"
            },
            {
              "internalType": "uint256",
              "name": "tokenId",
              "type": "uint256"
            },
            {
              "internalType": "bool",
              "name": "isErc721",
              "type": "bool"
            },
            {
              "internalType": "uint256",
              "name": "endedAt",
              "type": "uint256"
            },
            {
              "internalType": "uint256",
              "name": "startedAt",
              "type": "uint256"
            },
            {
              "internalType": "address",
              "name": "erc20Address",
              "type": "address"
            },
            {
              "internalType": "uint256",
              "name": "amount",
              "type": "uint256"
            },
            {
              "internalType": "uint256",
              "name": "endingPrice",
              "type": "uint256"
            },
            {
              "internalType": "address",
              "name": "bidder",
              "type": "address"
            },
            {
              "internalType": "uint256",
              "name": "highestBid",
              "type": "uint256"
            }
          ],
          "internalType": "struct TheShareAuction.Auction",
          "name": "",
          "type": "tuple"
        }
      ],
      "stateMutability": "view",
      "type": "function"
    },
    {
      "inputs": [],
      "name": "getAuctionFee",
      "outputs": [
        {
          "internalType": "uint256",
          "name": "",
          "type": "uint256"
        }
      ],
      "stateMutability": "view",
      "type": "function"
    },
    {
      "inputs": [],
      "name": "getAuctionFeeRecipient",
      "outputs": [
        {
          "internalType": "address",
          "name": "",
          "type": "address"
        }
      ],
      "stateMutability": "view",
      "type": "function"
    },
    {
      "inputs": [],
      "name": "getOpenAuctions",
      "outputs": [
        {
          "internalType": "string[]",
          "name": "",
          "type": "string[]"
        }
      ],
      "stateMutability": "view",
      "type": "function"
    },
    {
      "inputs": [
        {
          "internalType": "address",
          "name": "",
          "type": "address"
        },
        {
          "internalType": "address",
          "name": "",
          "type": "address"
        },
        {
          "internalType": "uint256[]",
          "name": "",
          "type": "uint256[]"
        },
        {
          "internalType": "uint256[]",
          "name": "",
          "type": "uint256[]"
        },
        {
          "internalType": "bytes",
          "name": "",
          "type": "bytes"
        }
      ],
      "name": "onERC1155BatchReceived",
      "outputs": [
        {
          "internalType": "bytes4",
          "name": "",
          "type": "bytes4"
        }
      ],
      "stateMutability": "nonpayable",
      "type": "function"
    },
    {
      "inputs": [
        {
          "internalType": "address",
          "name": "",
          "type": "address"
        },
        {
          "internalType": "address",
          "name": "",
          "type": "address"
        },
        {
          "internalType": "uint256",
          "name": "",
          "type": "uint256"
        },
        {
          "internalType": "uint256",
          "name": "",
          "type": "uint256"
        },
        {
          "internalType": "bytes",
          "name": "",
          "type": "bytes"
        }
      ],
      "name": "onERC1155Received",
      "outputs": [
        {
          "internalType": "bytes4",
          "name": "",
          "type": "bytes4"
        }
      ],
      "stateMutability": "nonpayable",
      "type": "function"
    },
    {
      "inputs": [
        {
          "internalType": "address",
          "name": "",
          "type": "address"
        },
        {
          "internalType": "address",
          "name": "",
          "type": "address"
        },
        {
          "internalType": "uint256",
          "name": "",
          "type": "uint256"
        },
        {
          "internalType": "bytes",
          "name": "",
          "type": "bytes"
        }
      ],
      "name": "onERC721Received",
      "outputs": [
        {
          "internalType": "bytes4",
          "name": "",
          "type": "bytes4"
        }
      ],
      "stateMutability": "nonpayable",
      "type": "function"
    },
    {
      "inputs": [],
      "name": "owner",
      "outputs": [
        {
          "internalType": "address",
          "name": "",
          "type": "address"
        }
      ],
      "stateMutability": "view",
      "type": "function"
    },
    {
      "inputs": [],
      "name": "renounceOwnership",
      "outputs": [],
      "stateMutability": "nonpayable",
      "type": "function"
    },
    {
      "inputs": [
        {
          "internalType": "uint256",
          "name": "fee",
          "type": "uint256"
        }
      ],
      "name": "setAuctionFee",
      "outputs": [],
      "stateMutability": "nonpayable",
      "type": "function"
    },
    {
      "inputs": [
        {
          "internalType": "address",
          "name": "recipient",
          "type": "address"
        }
      ],
      "name": "setAuctionFeeRecipient",
      "outputs": [],
      "stateMutability": "nonpayable",
      "type": "function"
    },
    {
      "inputs": [
        {
          "internalType": "string",
          "name": "id",
          "type": "string"
        }
      ],
      "name": "settleAuction",
      "outputs": [],
      "stateMutability": "payable",
      "type": "function"
    },
    {
      "inputs": [
        {
          "internalType": "address",
          "name": "newOwner",
          "type": "address"
        }
      ],
      "name": "transferOwnership",
      "outputs": [],
      "stateMutability": "nonpayable",
      "type": "function"
    },
    {
      "stateMutability": "payable",
      "type": "receive"
    }
  ],
  "bytecode": "0x608060405260006003553480156200001657600080fd5b5060405162002fa838038062002fa88339810160408190526200003991620000c3565b620000443362000073565b60018055600591909155600680546001600160a01b0319166001600160a01b0390921691909117905562000100565b600080546001600160a01b038381166001600160a01b0319831681178455604051919092169283917f8be0079c531659141344cd1fd0a4f28419497f9722a3daafe3b4186f6b6457e09190a35050565b60008060408385031215620000d6578182fd5b825160208401519092506001600160a01b0381168114620000f5578182fd5b809150509250929050565b612e9880620001106000396000f3fe6080604052600436106101025760003560e01c8063b05940f211610095578063e81f6f0311610064578063e81f6f03146102a3578063edd81849146102c3578063f23a6e61146102f0578063f2fde38b1461031c578063f59e754c1461033c57600080fd5b8063b05940f214610224578063b60e7a3b14610246578063bc197c8114610259578063d602173c1461028557600080fd5b8063715018a6116100d1578063715018a6146101aa57806388e7b4d7146101bf5780638da5cb5b146101df578063a13d4e6b1461021157600080fd5b80631031ca441461010e578063150b7a02146101315780633eac3f85146101755780635f4833131461019757600080fd5b3661010957005b600080fd5b34801561011a57600080fd5b506005546040519081526020015b60405180910390f35b34801561013d57600080fd5b5061015c61014c36600461268c565b630a85bd0160e11b949350505050565b6040516001600160e01b03199091168152602001610128565b34801561018157600080fd5b506101956101903660046125a3565b61035c565b005b6101956101a5366004612859565b6103b1565b3480156101b657600080fd5b506101956109d9565b3480156101cb57600080fd5b506101956101da36600461289c565b610a0f565b3480156101eb57600080fd5b506000546001600160a01b03165b6040516001600160a01b039091168152602001610128565b61019561021f366004612779565b610ff2565b34801561023057600080fd5b506102396112a6565b6040516101289190612a08565b610195610254366004612779565b61137f565b34801561026557600080fd5b5061015c6102743660046125e2565b63bc197c8160e01b95945050505050565b34801561029157600080fd5b506006546001600160a01b03166101f9565b3480156102af57600080fd5b506101956102be3660046127b4565b61164d565b3480156102cf57600080fd5b506102e36102de366004612779565b611959565b6040516101289190612c22565b3480156102fc57600080fd5b5061015c61030b3660046126f6565b63f23a6e6160e01b95945050505050565b34801561032857600080fd5b506101956103373660046125a3565b611a8e565b34801561034857600080fd5b506101956103573660046128f5565b611b29565b6000546001600160a01b0316331461038f5760405162461bcd60e51b815260040161038690612b26565b60405180910390fd5b600680546001600160a01b0319166001600160a01b0392909216919091179055565b60006002836040516103c39190612951565b9081526040805191829003602090810183206101608401835280546001600160a01b0390811685526001820154811692850192909252600281015492840192909252600382015460ff16151560608401526004820154608084015260058083015460a08501526006830154821660c0850152600783015460e085015260088301546101008501526009830154909116610120840152600a909101546101408301525490915060009061047790612710612d08565b6104819084612d20565b61048d90612710612d40565b9050438260800151116104b25760405162461bcd60e51b815260040161038690612b5b565b80826101000151106104d65760405162461bcd60e51b815260040161038690612ab4565b60c08201516001600160a01b031661054c573483111561054c5760405162461bcd60e51b815260206004820152602b60248201527f57726f6e6720616d6f756e7420656e746572656420666f72207468652062696460448201526a171020b137b93a34b7339760a91b6064820152608401610386565b60c08201516001600160a01b0316156106005760c0820151604051636eb1769f60e11b815233600482015230602482015284916001600160a01b03169063dd62ed3e9060440160206040518083038186803b1580156105aa57600080fd5b505afa1580156105be573d6000803e3d6000fd5b505050506040513d601f19601f820116820180604052508101906105e2919061290d565b10156106005760405162461bcd60e51b815260040161038690612bb8565b600060405180610160016040528084600001516001600160a01b0316815260200184602001516001600160a01b0316815260200184604001518152602001846060015115158152602001846080015181526020014381526020018460c001516001600160a01b031681526020018460e00151815260200184610100015181526020018461012001516001600160a01b0316815260200184610140015181525090506002856040516106b19190612951565b90815260405190819003602001902080546001600160a01b031990811682556001820180548216905560006002830181905560038301805460ff191690556004830181905560058301819055600683018054831690556007830181905560088301819055600983018054909216909155600a9091015560c08101516001600160a01b03161561083d5760c08101516040516323b872dd60e01b8152336004820152306024820152604481018690526001600160a01b038216906323b872dd90606401602060405180830381600087803b15801561078d57600080fd5b505af11580156107a1573d6000803e3d6000fd5b505050506040513d601f19601f820116820180604052508101906107c5919061275d565b6108375760405162461bcd60e51b815260206004820152603860248201527f556e61626c6520746f207472616e7366657220455243323020746f6b656e732060448201527f746f207468652041756374696f6e2e2041626f7274696e6700000000000000006064820152608401610386565b50610847565b6108473085611bc2565b6101208101516001600160a01b031615801590610868575061014081015115155b15610888576108888160c001518261014001518361012001516000611ce0565b833411156108a3576108a33361089e8634612d5f565b611bc2565b610100810182905261014081018490523361012082015260405181906002906108cd908890612951565b9081526040805160209281900383018120845181546001600160a01b03199081166001600160a01b03928316178355948601516001830180548716918316919091179055928501516002820155606085015160038201805460ff19169115159190911790556080850151600482015560a0850151600582015560c0850151600682018054861691851691909117905560e08501516007820155610100850151600882015561012085015160098201805490951693169290921790925561014090920151600a90920191909155849033907f404d5f135c85f24fa52ef59254b87aaee6e59b6512323e308e5e3c7d997f4bfd906109ca908990612a69565b60405180910390a35050505050565b6000546001600160a01b03163314610a035760405162461bcd60e51b815260040161038690612b26565b610a0d6000611eaf565b565b6000600284604051610a219190612951565b90815260408051602092819003830181206101608201835280546001600160a01b0390811683526001820154811694830194909452600281015492820192909252600382015460ff161515606082015260048201546080820152600582015460a08201526006820154831660c08201819052600783015460e083015260088301546101008301526009830154909316610120820152600a909101546101408201529150610b205760405162461bcd60e51b815260206004820152602760248201527f41756374696f6e206d75737420626520706c6163656420666f72204552433230604482015266103a37b5b2b71760c91b6064820152608401610386565b43816080015111610b435760405162461bcd60e51b815260040161038690612b5b565b6000600554612710610b559190612d08565b610b5f9085612d20565b610b6b90612710612d40565b90508082610100015110610b915760405162461bcd60e51b815260040161038690612ab4565b60c0820151604051636eb1769f60e11b81526001600160a01b0385811660048301523060248301528692169063dd62ed3e9060440160206040518083038186803b158015610bde57600080fd5b505afa158015610bf2573d6000803e3d6000fd5b505050506040513d601f19601f82011682018060405250810190610c16919061290d565b1015610c345760405162461bcd60e51b815260040161038690612bb8565b600060405180610160016040528084600001516001600160a01b0316815260200184602001516001600160a01b0316815260200184604001518152602001846060015115158152602001846080015181526020014381526020018460c001516001600160a01b031681526020018460e00151815260200184610100015181526020018461012001516001600160a01b031681526020018461014001518152509050600286604051610ce59190612951565b90815260405190819003602001812080546001600160a01b031990811682556001820180548216905560006002830181905560038301805460ff19169055600480840182905560058401829055600684018054841690556007840182905560088401829055600984018054909316909255600a9092019190915560c08301516323b872dd60e01b83526001600160a01b03878116928401929092523060248401526044830188905291908216906323b872dd90606401602060405180830381600087803b158015610db557600080fd5b505af1158015610dc9573d6000803e3d6000fd5b505050506040513d601f19601f82011682018060405250810190610ded919061275d565b610e705760405162461bcd60e51b815260206004820152604860248201527f556e61626c6520746f207472616e7366657220455243323020746f6b656e732060448201527f66726f6d207468652062696464657220746f207468652041756374696f6e2e2060648201526741626f7274696e6760c01b608482015260a401610386565b6101208201516001600160a01b031615801590610e91575061014082015115155b15610eb157610eb18260c001518361014001518461012001516000611ce0565b610100820183905261014082018690526001600160a01b0385166101208301526040518290600290610ee4908a90612951565b9081526040805160209281900383018120845181546001600160a01b03199081166001600160a01b03928316178355948601516001830180548716918316919091179055928501516002820155606085015160038201805460ff19169115159190911790556080850151600482015560a0850151600582015560c0850151600682018054861691851691909117905560e0850151600782015561010085015160088201556101208501516009820180549095169084161790935561014090930151600a909201919091558791908716907f404d5f135c85f24fa52ef59254b87aaee6e59b6512323e308e5e3c7d997f4bfd90610fe1908b90612a69565b60405180910390a350505050505050565b600260015414156110455760405162461bcd60e51b815260206004820152601f60248201527f5265656e7472616e637947756172643a207265656e7472616e742063616c6c006044820152606401610386565b6002600181905550600060028260405161105f9190612951565b90815260408051602092819003830181206101608201835280546001600160a01b0390811683526001820154811694830194909452600281015492820192909252600382015460ff1615156060820152600482015460808201819052600583015460a08301526006830154841660c0830152600783015460e083015260088301546101008301526009830154909316610120820152600a909101546101408201529150431161116c5760405162461bcd60e51b815260206004820152603360248201527f41756374696f6e2063616e277420626520736574746c6564206265666f72652060448201527234ba103932b0b1b432b9903a34329032b7321760691b6064820152608401610386565b6060810151602082015160e083015160408085015160c08601516101408701516101208801519351929391929091906002906111a9908b90612951565b90815260405190819003602001902080546001600160a01b031990811682556001820180548216905560006002830181905560038301805460ff191690556004830181905560058301819055600683018054831690556007830181905560088301819055600983018054909216909155600a909101558751611231908890889084888a611eff565b61124283838a600001516001611ce0565b61124b89611ffb565b6003805490600061125b83612da6565b91905055507fafdc429d8d197c8769e7a13a5bcd959b9f8dade051086aac5fbcba8e8d7f3a5e8960405161128f9190612a69565b60405180910390a150506001805550505050505050565b60606004805480602002602001604051908101604052809291908181526020016000905b828210156113765783829060005260206000200180546112e990612dbd565b80601f016020809104026020016040519081016040528092919081815260200182805461131590612dbd565b80156113625780601f1061133757610100808354040283529160200191611362565b820191906000526020600020905b81548152906001019060200180831161134557829003601f168201915b5050505050815260200190600101906112ca565b50505050905090565b60006002826040516113919190612951565b90815260408051602092819003830181206101608201835280546001600160a01b039081168084526001830154821695840195909552600282015493830193909352600381015460ff161515606083015260048101546080830152600581015460a08301526006810154831660c0830152600781015460e083015260088101546101008301526009810154909216610120820152600a90910154610140820152915061148d5760405162461bcd60e51b815260206004820152602560248201527f41756374696f6e20697320616c726561647920736574746c65642e2041626f726044820152643a34b7339760d91b6064820152608401610386565b80516001600160a01b03163314806114af57506000546001600160a01b031633145b6115305760405162461bcd60e51b815260206004820152604660248201527f41756374696f6e2063616e27742062652063616e63656c6c65642066726f6d2060448201527f6f74686572207468616e6b2073656c6c6572206f72206f776e65722e2041626f606482015265393a34b7339760d11b608482015260a401610386565b60c0810151610140820151610120830151604051600290611552908790612951565b90815260405190819003602001902080546001600160a01b031990811682556001820180548216905560006002830181905560038301805460ff191690556004830181905560058301819055600683018054831690556007830181905560088301819055600983018054909216909155600a909101556001600160a01b038116158015906115df57508115155b156115f1576115f18383836000611ce0565b6003805490600061160183612da6565b919050555061160f85611ffb565b7f8491f144dda005dc8140735549d904900585c1cbe24e47da9dcbf67a8b7233d58560405161163e9190612a69565b60405180910390a15050505050565b60028860405161165d9190612951565b9081526020016040518091039020600501546000146116d55760405162461bcd60e51b815260206004820152602e60248201527f41756374696f6e20616c7265616479206578697374656420666f72206375727260448201526d195b9d08185d58dd1a5bdb88125960921b6064820152608401610386565b6116e0436005612d08565b821161174a5760405162461bcd60e51b815260206004820152603360248201527f41756374696f6e206d757374206c617374206174206c65617374203520626c6f604482015272636b732066726f6d207468697320626c6f636b60681b6064820152608401610386565b611757878786888761217d565b6003805490600061176783612df8565b91905055506000604051806101600160405280866001600160a01b03168152602001886001600160a01b031681526020018781526020018915158152602001848152602001438152602001836001600160a01b031681526020018581526020016000815260200160006001600160a01b03168152602001600081525090508060028a6040516117f69190612951565b9081526040805160209281900383019020835181546001600160a01b03199081166001600160a01b039283161783558585015160018085018054841692851692909217909155938601516002840155606086015160038401805460ff1916911515919091179055608086015160048085019190915560a0870151600585015560c0870151600685018054841691851691909117905560e087015160078501556101008701516008850155610120870151600985018054909316931692909217905561014090940151600a90910155825490810183556000929092528a51611902927f8a35acfbc15ff81a39ae7d344fd709f28e8600b4aa8c65c6b64bfe7fe36bd19b01918c019061236b565b5085876001600160a01b03168915157fe0afed058bf71e435ebaa19f54f64a53ab230a24f14945338c41bd5836d3174c8c8887896040516119469493929190612a7c565b60405180910390a4505050505050505050565b6119dc60405180610160016040528060006001600160a01b0316815260200160006001600160a01b0316815260200160008152602001600015158152602001600081526020016000815260200160006001600160a01b03168152602001600081526020016000815260200160006001600160a01b03168152602001600081525090565b6002826040516119ec9190612951565b9081526040805191829003602090810183206101608401835280546001600160a01b0390811685526001820154811692850192909252600281015492840192909252600382015460ff161515606084015260048201546080840152600582015460a08401526006820154811660c0840152600782015460e08401526008820154610100840152600982015416610120830152600a015461014082015292915050565b6000546001600160a01b03163314611ab85760405162461bcd60e51b815260040161038690612b26565b6001600160a01b038116611b1d5760405162461bcd60e51b815260206004820152602660248201527f4f776e61626c653a206e6577206f776e657220697320746865207a65726f206160448201526564647265737360d01b6064820152608401610386565b611b2681611eaf565b50565b6000546001600160a01b03163314611b535760405162461bcd60e51b815260040161038690612b26565b60035415611bbd5760405162461bcd60e51b815260206004820152603160248201527f4665652063616e2774206265206368616e6765642069662074686572652069736044820152701037b733b7b4b7339030bab1ba34b7b71760791b6064820152608401610386565b600555565b80471015611c125760405162461bcd60e51b815260206004820152601d60248201527f416464726573733a20696e73756666696369656e742062616c616e63650000006044820152606401610386565b6000826001600160a01b03168260405160006040518083038185875af1925050503d8060008114611c5f576040519150601f19603f3d011682016040523d82523d6000602084013e611c64565b606091505b5050905080611cdb5760405162461bcd60e51b815260206004820152603a60248201527f416464726573733a20756e61626c6520746f2073656e642076616c75652c207260448201527f6563697069656e74206d617920686176652072657665727465640000000000006064820152608401610386565b505050565b600061271060055485611cf39190612d40565b611cfd9190612d20565b90506001600160a01b03851615611e6f578115611e3a576001600160a01b03851663a9059cbb84611d2e8488612d5f565b6040516001600160e01b031960e085901b1681526001600160a01b0390921660048301526024820152604401602060405180830381600087803b158015611d7457600080fd5b505af1158015611d88573d6000803e3d6000fd5b505050506040513d601f19601f82011682018060405250810190611dac919061275d565b5060065460405163a9059cbb60e01b81526001600160a01b039182166004820152602481018390529086169063a9059cbb906044015b602060405180830381600087803b158015611dfc57600080fd5b505af1158015611e10573d6000803e3d6000fd5b505050506040513d601f19601f82011682018060405250810190611e34919061275d565b50611ea8565b60405163a9059cbb60e01b81526001600160a01b0384811660048301526024820186905286169063a9059cbb90604401611de2565b8115611e9e57611e838361089e8387612d5f565b600654611e99906001600160a01b031682611bc2565b611ea8565b611ea88385611bc2565b5050505050565b600080546001600160a01b038381166001600160a01b0319831681178455604051919092169283917f8be0079c531659141344cd1fd0a4f28419497f9722a3daafe3b4186f6b6457e09190a35050565b85611f8857604051637921219560e11b81526001600160a01b0385811660048301528481166024830152604482018490526064820183905260a06084830152600060a483015286169063f242432a9060c401600060405180830381600087803b158015611f6b57600080fd5b505af1158015611f7f573d6000803e3d6000fd5b50505050611ff3565b604051632142170760e11b81526001600160a01b0385811660048301528481166024830152604482018490528616906342842e0e90606401600060405180830381600087803b158015611fda57600080fd5b505af1158015611fee573d6000803e3d6000fd5b505050505b505050505050565b60005b60045481101561217957816040516020016120199190612951565b604051602081830303815290604052805190602001206004828154811061205057634e487b7160e01b600052603260045260246000fd5b9060005260206000200160405160200161206a919061296d565b60405160208183030381529060405280519060200120141561216757805b60045461209790600190612d5f565b8110156121285760046120ab826001612d08565b815481106120c957634e487b7160e01b600052603260045260246000fd5b90600052602060002001600482815481106120f457634e487b7160e01b600052603260045260246000fd5b9060005260206000200190805461210a90612dbd565b6121159291906123ef565b508061212081612df8565b915050612088565b50600480548061214857634e487b7160e01b600052603160045260246000fd5b600190038181906000526020600020016000612164919061246a565b90555b8061217181612df8565b915050611ffe565b5050565b84612284576000811161218f57600080fd5b604051627eeac760e11b81526001600160a01b0384811660048301526024820184905282919086169062fdd58e9060440160206040518083038186803b1580156121d857600080fd5b505afa1580156121ec573d6000803e3d6000fd5b505050506040513d601f19601f82011682018060405250810190612210919061290d565b1015611e995760405162461bcd60e51b815260206004820152603860248201527f4552433131353520746f6b656e2062616c616e6365206973206e6f742073756660448201527f66696369656e7420666f72207468652073656c6c65722e2e00000000000000006064820152608401610386565b6040516331a9108f60e11b8152600481018390526001600160a01b038085169190861690636352211e9060240160206040518083038186803b1580156122c957600080fd5b505afa1580156122dd573d6000803e3d6000fd5b505050506040513d601f19601f8201168201806040525081019061230191906125c6565b6001600160a01b031614611ea85760405162461bcd60e51b815260206004820152602b60248201527f45524337323120746f6b656e20646f6573206e6f742062656c6f6e6720746f2060448201526a3a34329030baba3437b91760a91b6064820152608401610386565b82805461237790612dbd565b90600052602060002090601f01602090048101928261239957600085556123df565b82601f106123b257805160ff19168380011785556123df565b828001600101855582156123df579182015b828111156123df5782518255916020019190600101906123c4565b506123eb9291506124a0565b5090565b8280546123fb90612dbd565b90600052602060002090601f01602090048101928261241d57600085556123df565b82601f1061242e57805485556123df565b828001600101855582156123df57600052602060002091601f016020900482015b828111156123df57825482559160010191906001019061244f565b50805461247690612dbd565b6000825580601f10612486575050565b601f016020900490600052602060002090810190611b2691905b5b808211156123eb57600081556001016124a1565b600082601f8301126124c5578081fd5b8135602067ffffffffffffffff8211156124e1576124e1612e29565b8160051b6124f0828201612cd7565b83815282810190868401838801850189101561250a578687fd5b8693505b8584101561252c57803583526001939093019291840191840161250e565b50979650505050505050565b600082601f830112612548578081fd5b813567ffffffffffffffff81111561256257612562612e29565b612575601f8201601f1916602001612cd7565b818152846020838601011115612589578283fd5b816020850160208301379081016020019190915292915050565b6000602082840312156125b4578081fd5b81356125bf81612e3f565b9392505050565b6000602082840312156125d7578081fd5b81516125bf81612e3f565b600080600080600060a086880312156125f9578081fd5b853561260481612e3f565b9450602086013561261481612e3f565b9350604086013567ffffffffffffffff80821115612630578283fd5b61263c89838a016124b5565b94506060880135915080821115612651578283fd5b61265d89838a016124b5565b93506080880135915080821115612672578283fd5b5061267f88828901612538565b9150509295509295909350565b600080600080608085870312156126a1578384fd5b84356126ac81612e3f565b935060208501356126bc81612e3f565b925060408501359150606085013567ffffffffffffffff8111156126de578182fd5b6126ea87828801612538565b91505092959194509250565b600080600080600060a0868803121561270d578081fd5b853561271881612e3f565b9450602086013561272881612e3f565b93506040860135925060608601359150608086013567ffffffffffffffff811115612751578182fd5b61267f88828901612538565b60006020828403121561276e578081fd5b81516125bf81612e54565b60006020828403121561278a578081fd5b813567ffffffffffffffff8111156127a0578182fd5b6127ac84828501612538565b949350505050565b600080600080600080600080610100898b0312156127d0578283fd5b883567ffffffffffffffff8111156127e6578384fd5b6127f28b828c01612538565b985050602089013561280381612e54565b9650604089013561281381612e3f565b955060608901359450608089013561282a81612e3f565b935060a0890135925060c0890135915060e089013561284881612e3f565b809150509295985092959890939650565b6000806040838503121561286b578182fd5b823567ffffffffffffffff811115612881578283fd5b61288d85828601612538565b95602094909401359450505050565b6000806000606084860312156128b0578081fd5b833567ffffffffffffffff8111156128c6578182fd5b6128d286828701612538565b9350506020840135915060408401356128ea81612e3f565b809150509250925092565b600060208284031215612906578081fd5b5035919050565b60006020828403121561291e578081fd5b5051919050565b6000815180845261293d816020860160208601612d76565b601f01601f19169290920160200192915050565b60008251612963818460208701612d76565b9190910192915050565b600080835482600182811c91508083168061298957607f831692505b60208084108214156129a957634e487b7160e01b87526022600452602487fd5b8180156129bd57600181146129ce576129fa565b60ff198616895284890196506129fa565b60008a815260209020885b868110156129f25781548b8201529085019083016129d9565b505084890196505b509498975050505050505050565b6000602080830181845280855180835260408601915060408160051b8701019250838701855b82811015612a5c57603f19888603018452612a4a858351612925565b94509285019290850190600101612a2e565b5092979650505050505050565b6020815260006125bf6020830184612925565b608081526000612a8f6080830187612925565b6020830195909552506001600160a01b03929092166040830152606090910152919050565b6020808252604c908201527f42696420666565206f66207468652061756374696f6e20666565206973206c6f60408201527f776572207468616e2061637475616c206869676865737420626964207072696360608201526b32971020b137b93a34b7339760a11b608082015260a00190565b6020808252818101527f4f776e61626c653a2063616c6c6572206973206e6f7420746865206f776e6572604082015260600190565b6020808252603b908201527f41756374696f6e2068617320616c726561647920656e6465642e20556e61626c60408201527f6520746f2070726f63657373206269642e2041626f7274696e672e0000000000606082015260800190565b60208082526044908201527f496e73756666696369656e7420617070726f76616c20666f722045524332302060408201527f746f6b656e20666f72207468652061756374696f6e206269642e2041626f727460608201526334b7339760e11b608082015260a00190565b81516001600160a01b0316815261016081016020830151612c4e60208401826001600160a01b03169052565b50604083015160408301526060830151612c6c606084018215159052565b506080830151608083015260a083015160a083015260c0830151612c9b60c08401826001600160a01b03169052565b5060e083810151908301526101008084015190830152610120808401516001600160a01b03811682850152505061014092830151919092015290565b604051601f8201601f1916810167ffffffffffffffff81118282101715612d0057612d00612e29565b604052919050565b60008219821115612d1b57612d1b612e13565b500190565b600082612d3b57634e487b7160e01b81526012600452602481fd5b500490565b6000816000190483118215151615612d5a57612d5a612e13565b500290565b600082821015612d7157612d71612e13565b500390565b60005b83811015612d91578181015183820152602001612d79565b83811115612da0576000848401525b50505050565b600081612db557612db5612e13565b506000190190565b600181811c90821680612dd157607f821691505b60208210811415612df257634e487b7160e01b600052602260045260246000fd5b50919050565b6000600019821415612e0c57612e0c612e13565b5060010190565b634e487b7160e01b600052601160045260246000fd5b634e487b7160e01b600052604160045260246000fd5b6001600160a01b0381168114611b2657600080fd5b8015158114611b2657600080fdfea26469706673582212208b6e12b5e4ab341df46fe783418b74ffe8688d49b95b9716d481a10c7f24ddf064736f6c63430008040033",
  "linkReferences": {},
  "deployedLinkReferences": {}
}