{
  "_format": "hh-sol-artifact-1",
  "contractName": "TheShareAuction",
  "sourceName": "contracts/Protocol/TheShareAuction.sol",
  "abi": [
    {
      "inputs": [
        {
          "internalType": "uint256",
          "name": "fee",
          "type": "uint256"
        },
        {
          "internalType": "address",
          "name": "feeRecipient",
          "type": "address"
        }
      ],
      "stateMutability": "nonpayable",
      "type": "constructor"
    },
    {
      "anonymous": false,
      "inputs": [
        {
          "indexed": true,
          "internalType": "address",
          "name": "buyer",
          "type": "address"
        },
        {
          "indexed": true,
          "internalType": "uint256",
          "name": "amount",
          "type": "uint256"
        },
        {
          "indexed": false,
          "internalType": "string",
          "name": "id",
          "type": "string"
        }
      ],
      "name": "AuctionBid",
      "type": "event"
    },
    {
      "anonymous": false,
      "inputs": [
        {
          "indexed": false,
          "internalType": "string",
          "name": "id",
          "type": "string"
        }
      ],
      "name": "AuctionCancelled",
      "type": "event"
    },
    {
      "anonymous": false,
      "inputs": [
        {
          "indexed": true,
          "internalType": "bool",
          "name": "isErc721",
          "type": "bool"
        },
        {
          "indexed": true,
          "internalType": "address",
          "name": "nftAddress",
          "type": "address"
        },
        {
          "indexed": true,
          "internalType": "uint256",
          "name": "tokenId",
          "type": "uint256"
        },
        {
          "indexed": false,
          "internalType": "string",
          "name": "id",
          "type": "string"
        },
        {
          "indexed": false,
          "internalType": "uint256",
          "name": "amount",
          "type": "uint256"
        },
        {
          "indexed": false,
          "internalType": "address",
          "name": "erc20Address",
          "type": "address"
        },
        {
          "indexed": false,
          "internalType": "uint256",
          "name": "endedAt",
          "type": "uint256"
        }
      ],
      "name": "AuctionCreated",
      "type": "event"
    },
    {
      "anonymous": false,
      "inputs": [
        {
          "indexed": false,
          "internalType": "string",
          "name": "id",
          "type": "string"
        }
      ],
      "name": "AuctionSettled",
      "type": "event"
    },
    {
      "anonymous": false,
      "inputs": [
        {
          "indexed": true,
          "internalType": "address",
          "name": "previousOwner",
          "type": "address"
        },
        {
          "indexed": true,
          "internalType": "address",
          "name": "newOwner",
          "type": "address"
        }
      ],
      "name": "OwnershipTransferred",
      "type": "event"
    },
    {
      "inputs": [
        {
          "internalType": "string",
          "name": "id",
          "type": "string"
        },
        {
          "internalType": "uint256",
          "name": "bidValue",
          "type": "uint256"
        }
      ],
      "name": "bid",
      "outputs": [],
      "stateMutability": "payable",
      "type": "function"
    },
    {
      "inputs": [
        {
          "internalType": "string",
          "name": "id",
          "type": "string"
        },
        {
          "internalType": "uint256",
          "name": "bidValue",
          "type": "uint256"
        },
        {
          "internalType": "address",
          "name": "bidder",
          "type": "address"
        }
      ],
      "name": "bidForExternalBidder",
      "outputs": [],
      "stateMutability": "nonpayable",
      "type": "function"
    },
    {
      "inputs": [
        {
          "internalType": "string",
          "name": "id",
          "type": "string"
        }
      ],
      "name": "cancelAuction",
      "outputs": [],
      "stateMutability": "payable",
      "type": "function"
    },
    {
      "inputs": [
        {
          "internalType": "string",
          "name": "id",
          "type": "string"
        },
        {
          "internalType": "bool",
          "name": "isErc721",
          "type": "bool"
        },
        {
          "internalType": "address",
          "name": "nftAddress",
          "type": "address"
        },
        {
          "internalType": "uint256",
          "name": "tokenId",
          "type": "uint256"
        },
        {
          "internalType": "address",
          "name": "seller",
          "type": "address"
        },
        {
          "internalType": "uint256",
          "name": "amount",
          "type": "uint256"
        },
        {
          "internalType": "uint256",
          "name": "endedAt",
          "type": "uint256"
        },
        {
          "internalType": "address",
          "name": "erc20Address",
          "type": "address"
        }
      ],
      "name": "createAuction",
      "outputs": [],
      "stateMutability": "nonpayable",
      "type": "function"
    },
    {
      "inputs": [
        {
          "internalType": "string",
          "name": "id",
          "type": "string"
        }
      ],
      "name": "getAuction",
      "outputs": [
        {
          "components": [
            {
              "internalType": "address",
              "name": "seller",
              "type": "address"
            },
            {
              "internalType": "address",
              "name": "nftAddress",
              "type": "address"
            },
            {
              "internalType": "uint256",
              "name": "tokenId",
              "type": "uint256"
            },
            {
              "internalType": "bool",
              "name": "isErc721",
              "type": "bool"
            },
            {
              "internalType": "uint256",
              "name": "endedAt",
              "type": "uint256"
            },
            {
              "internalType": "uint256",
              "name": "startedAt",
              "type": "uint256"
            },
            {
              "internalType": "address",
              "name": "erc20Address",
              "type": "address"
            },
            {
              "internalType": "uint256",
              "name": "amount",
              "type": "uint256"
            },
            {
              "internalType": "uint256",
              "name": "endingPrice",
              "type": "uint256"
            },
            {
              "internalType": "address",
              "name": "bidder",
              "type": "address"
            },
            {
              "internalType": "uint256",
              "name": "highestBid",
              "type": "uint256"
            }
          ],
          "internalType": "struct TheShareAuction.Auction",
          "name": "",
          "type": "tuple"
        }
      ],
      "stateMutability": "view",
      "type": "function"
    },
    {
      "inputs": [],
      "name": "getAuctionFee",
      "outputs": [
        {
          "internalType": "uint256",
          "name": "",
          "type": "uint256"
        }
      ],
      "stateMutability": "view",
      "type": "function"
    },
    {
      "inputs": [],
      "name": "getAuctionFeeRecipient",
      "outputs": [
        {
          "internalType": "address",
          "name": "",
          "type": "address"
        }
      ],
      "stateMutability": "view",
      "type": "function"
    },
    {
      "inputs": [],
      "name": "getOpenAuctions",
      "outputs": [
        {
          "internalType": "string[]",
          "name": "",
          "type": "string[]"
        }
      ],
      "stateMutability": "view",
      "type": "function"
    },
    {
      "inputs": [
        {
          "internalType": "address",
          "name": "",
          "type": "address"
        },
        {
          "internalType": "address",
          "name": "",
          "type": "address"
        },
        {
          "internalType": "uint256[]",
          "name": "",
          "type": "uint256[]"
        },
        {
          "internalType": "uint256[]",
          "name": "",
          "type": "uint256[]"
        },
        {
          "internalType": "bytes",
          "name": "",
          "type": "bytes"
        }
      ],
      "name": "onERC1155BatchReceived",
      "outputs": [
        {
          "internalType": "bytes4",
          "name": "",
          "type": "bytes4"
        }
      ],
      "stateMutability": "nonpayable",
      "type": "function"
    },
    {
      "inputs": [
        {
          "internalType": "address",
          "name": "",
          "type": "address"
        },
        {
          "internalType": "address",
          "name": "",
          "type": "address"
        },
        {
          "internalType": "uint256",
          "name": "",
          "type": "uint256"
        },
        {
          "internalType": "uint256",
          "name": "",
          "type": "uint256"
        },
        {
          "internalType": "bytes",
          "name": "",
          "type": "bytes"
        }
      ],
      "name": "onERC1155Received",
      "outputs": [
        {
          "internalType": "bytes4",
          "name": "",
          "type": "bytes4"
        }
      ],
      "stateMutability": "nonpayable",
      "type": "function"
    },
    {
      "inputs": [
        {
          "internalType": "address",
          "name": "",
          "type": "address"
        },
        {
          "internalType": "address",
          "name": "",
          "type": "address"
        },
        {
          "internalType": "uint256",
          "name": "",
          "type": "uint256"
        },
        {
          "internalType": "bytes",
          "name": "",
          "type": "bytes"
        }
      ],
      "name": "onERC721Received",
      "outputs": [
        {
          "internalType": "bytes4",
          "name": "",
          "type": "bytes4"
        }
      ],
      "stateMutability": "nonpayable",
      "type": "function"
    },
    {
      "inputs": [],
      "name": "owner",
      "outputs": [
        {
          "internalType": "address",
          "name": "",
          "type": "address"
        }
      ],
      "stateMutability": "view",
      "type": "function"
    },
    {
      "inputs": [],
      "name": "renounceOwnership",
      "outputs": [],
      "stateMutability": "nonpayable",
      "type": "function"
    },
    {
      "inputs": [
        {
          "internalType": "uint256",
          "name": "fee",
          "type": "uint256"
        }
      ],
      "name": "setAuctionFee",
      "outputs": [],
      "stateMutability": "nonpayable",
      "type": "function"
    },
    {
      "inputs": [
        {
          "internalType": "address",
          "name": "recipient",
          "type": "address"
        }
      ],
      "name": "setAuctionFeeRecipient",
      "outputs": [],
      "stateMutability": "nonpayable",
      "type": "function"
    },
    {
      "inputs": [
        {
          "internalType": "string",
          "name": "id",
          "type": "string"
        }
      ],
      "name": "settleAuction",
      "outputs": [],
      "stateMutability": "payable",
      "type": "function"
    },
    {
      "inputs": [
        {
          "internalType": "address",
          "name": "newOwner",
          "type": "address"
        }
      ],
      "name": "transferOwnership",
      "outputs": [],
      "stateMutability": "nonpayable",
      "type": "function"
    },
    {
      "stateMutability": "payable",
      "type": "receive"
    }
  ],
  "bytecode": "0x608060405260006002553480156200001657600080fd5b5060405162002f4338038062002f438339810160408190526200003991620000bf565b62000044336200006f565b600491909155600580546001600160a01b0319166001600160a01b03909216919091179055620000fc565b600080546001600160a01b038381166001600160a01b0319831681178455604051919092169283917f8be0079c531659141344cd1fd0a4f28419497f9722a3daafe3b4186f6b6457e09190a35050565b60008060408385031215620000d2578182fd5b825160208401519092506001600160a01b0381168114620000f1578182fd5b809150509250929050565b612e37806200010c6000396000f3fe6080604052600436106101025760003560e01c8063b05940f211610095578063e81f6f0311610064578063e81f6f03146102a3578063edd81849146102c3578063f23a6e61146102f0578063f2fde38b1461031c578063f59e754c1461033c57600080fd5b8063b05940f214610224578063b60e7a3b14610246578063bc197c8114610259578063d602173c1461028557600080fd5b8063715018a6116100d1578063715018a6146101aa57806388e7b4d7146101bf5780638da5cb5b146101df578063a13d4e6b1461021157600080fd5b80631031ca441461010e578063150b7a02146101315780633eac3f85146101755780635f4833131461019757600080fd5b3661010957005b600080fd5b34801561011a57600080fd5b506004546040519081526020015b60405180910390f35b34801561013d57600080fd5b5061015c61014c36600461262b565b630a85bd0160e11b949350505050565b6040516001600160e01b03199091168152602001610128565b34801561018157600080fd5b50610195610190366004612542565b61035c565b005b6101956101a53660046127f8565b6103b1565b3480156101b657600080fd5b506101956109d9565b3480156101cb57600080fd5b506101956101da36600461283b565b610a0f565b3480156101eb57600080fd5b506000546001600160a01b03165b6040516001600160a01b039091168152602001610128565b61019561021f366004612718565b610ff2565b34801561023057600080fd5b50610239611247565b60405161012891906129a7565b610195610254366004612718565b611320565b34801561026557600080fd5b5061015c610274366004612581565b63bc197c8160e01b95945050505050565b34801561029157600080fd5b506005546001600160a01b03166101f9565b3480156102af57600080fd5b506101956102be366004612753565b6115ee565b3480156102cf57600080fd5b506102e36102de366004612718565b6118f8565b6040516101289190612bc1565b3480156102fc57600080fd5b5061015c61030b366004612695565b63f23a6e6160e01b95945050505050565b34801561032857600080fd5b50610195610337366004612542565b611a2d565b34801561034857600080fd5b50610195610357366004612894565b611ac8565b6000546001600160a01b0316331461038f5760405162461bcd60e51b815260040161038690612ac5565b60405180910390fd5b600580546001600160a01b0319166001600160a01b0392909216919091179055565b60006001836040516103c391906128f0565b9081526040805191829003602090810183206101608401835280546001600160a01b0390811685526001820154811692850192909252600281015492840192909252600382015460ff16151560608401526004808301546080850152600583015460a08501526006830154821660c0850152600783015460e085015260088301546101008501526009830154909116610120840152600a909101546101408301525490915060009061047790612710612ca7565b6104819084612cbf565b61048d90612710612cdf565b9050438260800151116104b25760405162461bcd60e51b815260040161038690612afa565b80826101000151106104d65760405162461bcd60e51b815260040161038690612a53565b60c08201516001600160a01b031661054c573483111561054c5760405162461bcd60e51b815260206004820152602b60248201527f57726f6e6720616d6f756e7420656e746572656420666f72207468652062696460448201526a171020b137b93a34b7339760a91b6064820152608401610386565b60c08201516001600160a01b0316156106005760c0820151604051636eb1769f60e11b815233600482015230602482015284916001600160a01b03169063dd62ed3e9060440160206040518083038186803b1580156105aa57600080fd5b505afa1580156105be573d6000803e3d6000fd5b505050506040513d601f19601f820116820180604052508101906105e291906128ac565b10156106005760405162461bcd60e51b815260040161038690612b57565b600060405180610160016040528084600001516001600160a01b0316815260200184602001516001600160a01b0316815260200184604001518152602001846060015115158152602001846080015181526020014381526020018460c001516001600160a01b031681526020018460e00151815260200184610100015181526020018461012001516001600160a01b0316815260200184610140015181525090506001856040516106b191906128f0565b90815260405190819003602001902080546001600160a01b031990811682556001820180548216905560006002830181905560038301805460ff191690556004830181905560058301819055600683018054831690556007830181905560088301819055600983018054909216909155600a9091015560c08101516001600160a01b03161561083d5760c08101516040516323b872dd60e01b8152336004820152306024820152604481018690526001600160a01b038216906323b872dd90606401602060405180830381600087803b15801561078d57600080fd5b505af11580156107a1573d6000803e3d6000fd5b505050506040513d601f19601f820116820180604052508101906107c591906126fc565b6108375760405162461bcd60e51b815260206004820152603860248201527f556e61626c6520746f207472616e7366657220455243323020746f6b656e732060448201527f746f207468652041756374696f6e2e2041626f7274696e6700000000000000006064820152608401610386565b50610847565b6108473085611b61565b6101208101516001600160a01b031615801590610868575061014081015115155b15610888576108888160c001518261014001518361012001516000611c7f565b833411156108a3576108a33361089e8634612cfe565b611b61565b610100810182905261014081018490523361012082015260405181906001906108cd9088906128f0565b9081526040805160209281900383018120845181546001600160a01b03199081166001600160a01b03928316178355948601516001830180548716918316919091179055928501516002820155606085015160038201805460ff19169115159190911790556080850151600482015560a0850151600582015560c0850151600682018054861691851691909117905560e08501516007820155610100850151600882015561012085015160098201805490951693169290921790925561014090920151600a90920191909155849033907f404d5f135c85f24fa52ef59254b87aaee6e59b6512323e308e5e3c7d997f4bfd906109ca908990612a08565b60405180910390a35050505050565b6000546001600160a01b03163314610a035760405162461bcd60e51b815260040161038690612ac5565b610a0d6000611e4e565b565b6000600184604051610a2191906128f0565b90815260408051602092819003830181206101608201835280546001600160a01b0390811683526001820154811694830194909452600281015492820192909252600382015460ff161515606082015260048201546080820152600582015460a08201526006820154831660c08201819052600783015460e083015260088301546101008301526009830154909316610120820152600a909101546101408201529150610b205760405162461bcd60e51b815260206004820152602760248201527f41756374696f6e206d75737420626520706c6163656420666f72204552433230604482015266103a37b5b2b71760c91b6064820152608401610386565b43816080015111610b435760405162461bcd60e51b815260040161038690612afa565b6000600454612710610b559190612ca7565b610b5f9085612cbf565b610b6b90612710612cdf565b90508082610100015110610b915760405162461bcd60e51b815260040161038690612a53565b60c0820151604051636eb1769f60e11b81526001600160a01b0385811660048301523060248301528692169063dd62ed3e9060440160206040518083038186803b158015610bde57600080fd5b505afa158015610bf2573d6000803e3d6000fd5b505050506040513d601f19601f82011682018060405250810190610c1691906128ac565b1015610c345760405162461bcd60e51b815260040161038690612b57565b600060405180610160016040528084600001516001600160a01b0316815260200184602001516001600160a01b0316815260200184604001518152602001846060015115158152602001846080015181526020014381526020018460c001516001600160a01b031681526020018460e00151815260200184610100015181526020018461012001516001600160a01b031681526020018461014001518152509050600186604051610ce591906128f0565b90815260405190819003602001812080546001600160a01b031990811682556001820180548216905560006002830181905560038301805460ff19169055600480840182905560058401829055600684018054841690556007840182905560088401829055600984018054909316909255600a9092019190915560c08301516323b872dd60e01b83526001600160a01b03878116928401929092523060248401526044830188905291908216906323b872dd90606401602060405180830381600087803b158015610db557600080fd5b505af1158015610dc9573d6000803e3d6000fd5b505050506040513d601f19601f82011682018060405250810190610ded91906126fc565b610e705760405162461bcd60e51b815260206004820152604860248201527f556e61626c6520746f207472616e7366657220455243323020746f6b656e732060448201527f66726f6d207468652062696464657220746f207468652041756374696f6e2e2060648201526741626f7274696e6760c01b608482015260a401610386565b6101208201516001600160a01b031615801590610e91575061014082015115155b15610eb157610eb18260c001518361014001518461012001516000611c7f565b610100820183905261014082018690526001600160a01b0385166101208301526040518290600190610ee4908a906128f0565b9081526040805160209281900383018120845181546001600160a01b03199081166001600160a01b03928316178355948601516001830180548716918316919091179055928501516002820155606085015160038201805460ff19169115159190911790556080850151600482015560a0850151600582015560c0850151600682018054861691851691909117905560e0850151600782015561010085015160088201556101208501516009820180549095169084161790935561014090930151600a909201919091558791908716907f404d5f135c85f24fa52ef59254b87aaee6e59b6512323e308e5e3c7d997f4bfd90610fe1908b90612a08565b60405180910390a350505050505050565b600060018260405161100491906128f0565b90815260408051602092819003830181206101608201835280546001600160a01b0390811683526001820154811694830194909452600281015492820192909252600382015460ff1615156060820152600482015460808201819052600583015460a08301526006830154841660c0830152600783015460e083015260088301546101008301526009830154909316610120820152600a90910154610140820152915043116111115760405162461bcd60e51b815260206004820152603360248201527f41756374696f6e2063616e277420626520736574746c6564206265666f72652060448201527234ba103932b0b1b432b9903a34329032b7321760691b6064820152608401610386565b6060810151602082015160e083015160408085015160c086015161014087015161012088015193519293919290919060019061114e908b906128f0565b90815260405190819003602001902080546001600160a01b031990811682556001820180548216905560006002830181905560038301805460ff191690556004830181905560058301819055600683018054831690556007830181905560088301819055600983018054909216909155600a9091015587516111d6908890889084888a611e9e565b6111e783838a600001516001611c7f565b6111f089611f9a565b6002805490600061120083612d45565b91905055507fafdc429d8d197c8769e7a13a5bcd959b9f8dade051086aac5fbcba8e8d7f3a5e896040516112349190612a08565b60405180910390a1505050505050505050565b60606003805480602002602001604051908101604052809291908181526020016000905b8282101561131757838290600052602060002001805461128a90612d5c565b80601f01602080910402602001604051908101604052809291908181526020018280546112b690612d5c565b80156113035780601f106112d857610100808354040283529160200191611303565b820191906000526020600020905b8154815290600101906020018083116112e657829003601f168201915b50505050508152602001906001019061126b565b50505050905090565b600060018260405161133291906128f0565b90815260408051602092819003830181206101608201835280546001600160a01b039081168084526001830154821695840195909552600282015493830193909352600381015460ff161515606083015260048101546080830152600581015460a08301526006810154831660c0830152600781015460e083015260088101546101008301526009810154909216610120820152600a90910154610140820152915061142e5760405162461bcd60e51b815260206004820152602560248201527f41756374696f6e20697320616c726561647920736574746c65642e2041626f726044820152643a34b7339760d91b6064820152608401610386565b80516001600160a01b031633148061145057506000546001600160a01b031633145b6114d15760405162461bcd60e51b815260206004820152604660248201527f41756374696f6e2063616e27742062652063616e63656c6c65642066726f6d2060448201527f6f74686572207468616e6b2073656c6c6572206f72206f776e65722e2041626f606482015265393a34b7339760d11b608482015260a401610386565b60c08101516101408201516101208301516040516001906114f39087906128f0565b90815260405190819003602001902080546001600160a01b031990811682556001820180548216905560006002830181905560038301805460ff191690556004830181905560058301819055600683018054831690556007830181905560088301819055600983018054909216909155600a909101556001600160a01b0381161580159061158057508115155b15611592576115928383836000611c7f565b600280549060006115a283612d45565b91905055506115b085611f9a565b7f8491f144dda005dc8140735549d904900585c1cbe24e47da9dcbf67a8b7233d5856040516115df9190612a08565b60405180910390a15050505050565b6001886040516115fe91906128f0565b9081526020016040518091039020600501546000146116765760405162461bcd60e51b815260206004820152602e60248201527f41756374696f6e20616c7265616479206578697374656420666f72206375727260448201526d195b9d08185d58dd1a5bdb88125960921b6064820152608401610386565b611681436005612ca7565b82116116eb5760405162461bcd60e51b815260206004820152603360248201527f41756374696f6e206d757374206c617374206174206c65617374203520626c6f604482015272636b732066726f6d207468697320626c6f636b60681b6064820152608401610386565b6116f8878786888761211c565b6002805490600061170883612d97565b91905055506000604051806101600160405280866001600160a01b03168152602001886001600160a01b031681526020018781526020018915158152602001848152602001438152602001836001600160a01b031681526020018581526020016000815260200160006001600160a01b03168152602001600081525090508060018a60405161179791906128f0565b9081526040805160209281900383019020835181546001600160a01b03199081166001600160a01b03928316178355858501516001808501805484169285169290921790915593860151600284015560608601516003808501805460ff1916921515929092179091556080870151600485015560a0870151600585015560c0870151600685018054841691851691909117905560e087015160078501556101008701516008850155610120870151600985018054909316931692909217905561014090940151600a90910155825490810183556000929092528a516118a1927fc2575a0e9e593c00f959f8c92f12db2869c3395a3b0502d05e2516446f71f85b01918c019061230a565b5085876001600160a01b03168915157fe0afed058bf71e435ebaa19f54f64a53ab230a24f14945338c41bd5836d3174c8c8887896040516118e59493929190612a1b565b60405180910390a4505050505050505050565b61197b60405180610160016040528060006001600160a01b0316815260200160006001600160a01b0316815260200160008152602001600015158152602001600081526020016000815260200160006001600160a01b03168152602001600081526020016000815260200160006001600160a01b03168152602001600081525090565b60018260405161198b91906128f0565b9081526040805191829003602090810183206101608401835280546001600160a01b0390811685526001820154811692850192909252600281015492840192909252600382015460ff161515606084015260048201546080840152600582015460a08401526006820154811660c0840152600782015460e08401526008820154610100840152600982015416610120830152600a015461014082015292915050565b6000546001600160a01b03163314611a575760405162461bcd60e51b815260040161038690612ac5565b6001600160a01b038116611abc5760405162461bcd60e51b815260206004820152602660248201527f4f776e61626c653a206e6577206f776e657220697320746865207a65726f206160448201526564647265737360d01b6064820152608401610386565b611ac581611e4e565b50565b6000546001600160a01b03163314611af25760405162461bcd60e51b815260040161038690612ac5565b60025415611b5c5760405162461bcd60e51b815260206004820152603160248201527f4665652063616e2774206265206368616e6765642069662074686572652069736044820152701037b733b7b4b7339030bab1ba34b7b71760791b6064820152608401610386565b600455565b80471015611bb15760405162461bcd60e51b815260206004820152601d60248201527f416464726573733a20696e73756666696369656e742062616c616e63650000006044820152606401610386565b6000826001600160a01b03168260405160006040518083038185875af1925050503d8060008114611bfe576040519150601f19603f3d011682016040523d82523d6000602084013e611c03565b606091505b5050905080611c7a5760405162461bcd60e51b815260206004820152603a60248201527f416464726573733a20756e61626c6520746f2073656e642076616c75652c207260448201527f6563697069656e74206d617920686176652072657665727465640000000000006064820152608401610386565b505050565b600061271060045485611c929190612cdf565b611c9c9190612cbf565b90506001600160a01b03851615611e0e578115611dd9576001600160a01b03851663a9059cbb84611ccd8488612cfe565b6040516001600160e01b031960e085901b1681526001600160a01b0390921660048301526024820152604401602060405180830381600087803b158015611d1357600080fd5b505af1158015611d27573d6000803e3d6000fd5b505050506040513d601f19601f82011682018060405250810190611d4b91906126fc565b5060055460405163a9059cbb60e01b81526001600160a01b039182166004820152602481018390529086169063a9059cbb906044015b602060405180830381600087803b158015611d9b57600080fd5b505af1158015611daf573d6000803e3d6000fd5b505050506040513d601f19601f82011682018060405250810190611dd391906126fc565b50611e47565b60405163a9059cbb60e01b81526001600160a01b0384811660048301526024820186905286169063a9059cbb90604401611d81565b8115611e3d57611e228361089e8387612cfe565b600554611e38906001600160a01b031682611b61565b611e47565b611e478385611b61565b5050505050565b600080546001600160a01b038381166001600160a01b0319831681178455604051919092169283917f8be0079c531659141344cd1fd0a4f28419497f9722a3daafe3b4186f6b6457e09190a35050565b85611f2757604051637921219560e11b81526001600160a01b0385811660048301528481166024830152604482018490526064820183905260a06084830152600060a483015286169063f242432a9060c401600060405180830381600087803b158015611f0a57600080fd5b505af1158015611f1e573d6000803e3d6000fd5b50505050611f92565b604051632142170760e11b81526001600160a01b0385811660048301528481166024830152604482018490528616906342842e0e90606401600060405180830381600087803b158015611f7957600080fd5b505af1158015611f8d573d6000803e3d6000fd5b505050505b505050505050565b60005b6003548110156121185781604051602001611fb891906128f0565b6040516020818303038152906040528051906020012060038281548110611fef57634e487b7160e01b600052603260045260246000fd5b90600052602060002001604051602001612009919061290c565b60405160208183030381529060405280519060200120141561210657805b60035461203690600190612cfe565b8110156120c757600361204a826001612ca7565b8154811061206857634e487b7160e01b600052603260045260246000fd5b906000526020600020016003828154811061209357634e487b7160e01b600052603260045260246000fd5b906000526020600020019080546120a990612d5c565b6120b492919061238e565b50806120bf81612d97565b915050612027565b5060038054806120e757634e487b7160e01b600052603160045260246000fd5b6001900381819060005260206000200160006121039190612409565b90555b8061211081612d97565b915050611f9d565b5050565b84612223576000811161212e57600080fd5b604051627eeac760e11b81526001600160a01b0384811660048301526024820184905282919086169062fdd58e9060440160206040518083038186803b15801561217757600080fd5b505afa15801561218b573d6000803e3d6000fd5b505050506040513d601f19601f820116820180604052508101906121af91906128ac565b1015611e385760405162461bcd60e51b815260206004820152603860248201527f4552433131353520746f6b656e2062616c616e6365206973206e6f742073756660448201527f66696369656e7420666f72207468652073656c6c65722e2e00000000000000006064820152608401610386565b6040516331a9108f60e11b8152600481018390526001600160a01b038085169190861690636352211e9060240160206040518083038186803b15801561226857600080fd5b505afa15801561227c573d6000803e3d6000fd5b505050506040513d601f19601f820116820180604052508101906122a09190612565565b6001600160a01b031614611e475760405162461bcd60e51b815260206004820152602b60248201527f45524337323120746f6b656e20646f6573206e6f742062656c6f6e6720746f2060448201526a3a34329030baba3437b91760a91b6064820152608401610386565b82805461231690612d5c565b90600052602060002090601f016020900481019282612338576000855561237e565b82601f1061235157805160ff191683800117855561237e565b8280016001018555821561237e579182015b8281111561237e578251825591602001919060010190612363565b5061238a92915061243f565b5090565b82805461239a90612d5c565b90600052602060002090601f0160209004810192826123bc576000855561237e565b82601f106123cd578054855561237e565b8280016001018555821561237e57600052602060002091601f016020900482015b8281111561237e5782548255916001019190600101906123ee565b50805461241590612d5c565b6000825580601f10612425575050565b601f016020900490600052602060002090810190611ac591905b5b8082111561238a5760008155600101612440565b600082601f830112612464578081fd5b8135602067ffffffffffffffff82111561248057612480612dc8565b8160051b61248f828201612c76565b8381528281019086840183880185018910156124a9578687fd5b8693505b858410156124cb5780358352600193909301929184019184016124ad565b50979650505050505050565b600082601f8301126124e7578081fd5b813567ffffffffffffffff81111561250157612501612dc8565b612514601f8201601f1916602001612c76565b818152846020838601011115612528578283fd5b816020850160208301379081016020019190915292915050565b600060208284031215612553578081fd5b813561255e81612dde565b9392505050565b600060208284031215612576578081fd5b815161255e81612dde565b600080600080600060a08688031215612598578081fd5b85356125a381612dde565b945060208601356125b381612dde565b9350604086013567ffffffffffffffff808211156125cf578283fd5b6125db89838a01612454565b945060608801359150808211156125f0578283fd5b6125fc89838a01612454565b93506080880135915080821115612611578283fd5b5061261e888289016124d7565b9150509295509295909350565b60008060008060808587031215612640578384fd5b843561264b81612dde565b9350602085013561265b81612dde565b925060408501359150606085013567ffffffffffffffff81111561267d578182fd5b612689878288016124d7565b91505092959194509250565b600080600080600060a086880312156126ac578081fd5b85356126b781612dde565b945060208601356126c781612dde565b93506040860135925060608601359150608086013567ffffffffffffffff8111156126f0578182fd5b61261e888289016124d7565b60006020828403121561270d578081fd5b815161255e81612df3565b600060208284031215612729578081fd5b813567ffffffffffffffff81111561273f578182fd5b61274b848285016124d7565b949350505050565b600080600080600080600080610100898b03121561276f578283fd5b883567ffffffffffffffff811115612785578384fd5b6127918b828c016124d7565b98505060208901356127a281612df3565b965060408901356127b281612dde565b95506060890135945060808901356127c981612dde565b935060a0890135925060c0890135915060e08901356127e781612dde565b809150509295985092959890939650565b6000806040838503121561280a578182fd5b823567ffffffffffffffff811115612820578283fd5b61282c858286016124d7565b95602094909401359450505050565b60008060006060848603121561284f578081fd5b833567ffffffffffffffff811115612865578182fd5b612871868287016124d7565b93505060208401359150604084013561288981612dde565b809150509250925092565b6000602082840312156128a5578081fd5b5035919050565b6000602082840312156128bd578081fd5b5051919050565b600081518084526128dc816020860160208601612d15565b601f01601f19169290920160200192915050565b60008251612902818460208701612d15565b9190910192915050565b600080835482600182811c91508083168061292857607f831692505b602080841082141561294857634e487b7160e01b87526022600452602487fd5b81801561295c576001811461296d57612999565b60ff19861689528489019650612999565b60008a815260209020885b868110156129915781548b820152908501908301612978565b505084890196505b509498975050505050505050565b6000602080830181845280855180835260408601915060408160051b8701019250838701855b828110156129fb57603f198886030184526129e98583516128c4565b945092850192908501906001016129cd565b5092979650505050505050565b60208152600061255e60208301846128c4565b608081526000612a2e60808301876128c4565b6020830195909552506001600160a01b03929092166040830152606090910152919050565b6020808252604c908201527f42696420666565206f66207468652061756374696f6e20666565206973206c6f60408201527f776572207468616e2061637475616c206869676865737420626964207072696360608201526b32971020b137b93a34b7339760a11b608082015260a00190565b6020808252818101527f4f776e61626c653a2063616c6c6572206973206e6f7420746865206f776e6572604082015260600190565b6020808252603b908201527f41756374696f6e2068617320616c726561647920656e6465642e20556e61626c60408201527f6520746f2070726f63657373206269642e2041626f7274696e672e0000000000606082015260800190565b60208082526044908201527f496e73756666696369656e7420617070726f76616c20666f722045524332302060408201527f746f6b656e20666f72207468652061756374696f6e206269642e2041626f727460608201526334b7339760e11b608082015260a00190565b81516001600160a01b0316815261016081016020830151612bed60208401826001600160a01b03169052565b50604083015160408301526060830151612c0b606084018215159052565b506080830151608083015260a083015160a083015260c0830151612c3a60c08401826001600160a01b03169052565b5060e083810151908301526101008084015190830152610120808401516001600160a01b03811682850152505061014092830151919092015290565b604051601f8201601f1916810167ffffffffffffffff81118282101715612c9f57612c9f612dc8565b604052919050565b60008219821115612cba57612cba612db2565b500190565b600082612cda57634e487b7160e01b81526012600452602481fd5b500490565b6000816000190483118215151615612cf957612cf9612db2565b500290565b600082821015612d1057612d10612db2565b500390565b60005b83811015612d30578181015183820152602001612d18565b83811115612d3f576000848401525b50505050565b600081612d5457612d54612db2565b506000190190565b600181811c90821680612d7057607f821691505b60208210811415612d9157634e487b7160e01b600052602260045260246000fd5b50919050565b6000600019821415612dab57612dab612db2565b5060010190565b634e487b7160e01b600052601160045260246000fd5b634e487b7160e01b600052604160045260246000fd5b6001600160a01b0381168114611ac557600080fd5b8015158114611ac557600080fdfea26469706673582212204915774bb42534089649ba2618ae259443c64694252c60ea94c31cf9b31587b464736f6c63430008040033",
  "linkReferences": {},
  "deployedLinkReferences": {}
}