{
  "_format": "hh-sol-artifact-1",
  "contractName": "BookNFT",
  "sourceName": "contracts/Tokens/BookNFT.sol",
  "abi": [
    {
      "inputs": [
        {
          "internalType": "string",
          "name": "_name",
          "type": "string"
        },
        {
          "internalType": "string",
          "name": "_symbol",
          "type": "string"
        },
        {
          "internalType": "string",
          "name": "_uri",
          "type": "string"
        },
        {
          "internalType": "address",
          "name": "_recipient",
          "type": "address"
        },
        {
          "internalType": "uint96",
          "name": "_royaltyAmount",
          "type": "uint96"
        }
      ],
      "stateMutability": "nonpayable",
      "type": "constructor"
    },
    {
      "anonymous": false,
      "inputs": [
        {
          "indexed": true,
          "internalType": "address",
          "name": "account",
          "type": "address"
        },
        {
          "indexed": true,
          "internalType": "address",
          "name": "operator",
          "type": "address"
        },
        {
          "indexed": false,
          "internalType": "bool",
          "name": "approved",
          "type": "bool"
        }
      ],
      "name": "ApprovalForAll",
      "type": "event"
    },
    {
      "anonymous": false,
      "inputs": [
        {
          "indexed": true,
          "internalType": "address",
          "name": "previousOwner",
          "type": "address"
        },
        {
          "indexed": true,
          "internalType": "address",
          "name": "newOwner",
          "type": "address"
        }
      ],
      "name": "OwnershipTransferred",
      "type": "event"
    },
    {
      "anonymous": false,
      "inputs": [
        {
          "indexed": true,
          "internalType": "bytes32",
          "name": "role",
          "type": "bytes32"
        },
        {
          "indexed": true,
          "internalType": "bytes32",
          "name": "previousAdminRole",
          "type": "bytes32"
        },
        {
          "indexed": true,
          "internalType": "bytes32",
          "name": "newAdminRole",
          "type": "bytes32"
        }
      ],
      "name": "RoleAdminChanged",
      "type": "event"
    },
    {
      "anonymous": false,
      "inputs": [
        {
          "indexed": true,
          "internalType": "bytes32",
          "name": "role",
          "type": "bytes32"
        },
        {
          "indexed": true,
          "internalType": "address",
          "name": "account",
          "type": "address"
        },
        {
          "indexed": true,
          "internalType": "address",
          "name": "sender",
          "type": "address"
        }
      ],
      "name": "RoleGranted",
      "type": "event"
    },
    {
      "anonymous": false,
      "inputs": [
        {
          "indexed": true,
          "internalType": "bytes32",
          "name": "role",
          "type": "bytes32"
        },
        {
          "indexed": true,
          "internalType": "address",
          "name": "account",
          "type": "address"
        },
        {
          "indexed": true,
          "internalType": "address",
          "name": "sender",
          "type": "address"
        }
      ],
      "name": "RoleRevoked",
      "type": "event"
    },
    {
      "anonymous": false,
      "inputs": [
        {
          "indexed": true,
          "internalType": "address",
          "name": "operator",
          "type": "address"
        },
        {
          "indexed": true,
          "internalType": "address",
          "name": "from",
          "type": "address"
        },
        {
          "indexed": true,
          "internalType": "address",
          "name": "to",
          "type": "address"
        },
        {
          "indexed": false,
          "internalType": "uint256[]",
          "name": "ids",
          "type": "uint256[]"
        },
        {
          "indexed": false,
          "internalType": "uint256[]",
          "name": "values",
          "type": "uint256[]"
        }
      ],
      "name": "TransferBatch",
      "type": "event"
    },
    {
      "anonymous": false,
      "inputs": [
        {
          "indexed": true,
          "internalType": "address",
          "name": "operator",
          "type": "address"
        },
        {
          "indexed": true,
          "internalType": "address",
          "name": "from",
          "type": "address"
        },
        {
          "indexed": true,
          "internalType": "address",
          "name": "to",
          "type": "address"
        },
        {
          "indexed": false,
          "internalType": "uint256",
          "name": "id",
          "type": "uint256"
        },
        {
          "indexed": false,
          "internalType": "uint256",
          "name": "value",
          "type": "uint256"
        }
      ],
      "name": "TransferSingle",
      "type": "event"
    },
    {
      "anonymous": false,
      "inputs": [
        {
          "indexed": false,
          "internalType": "string",
          "name": "value",
          "type": "string"
        },
        {
          "indexed": true,
          "internalType": "uint256",
          "name": "id",
          "type": "uint256"
        }
      ],
      "name": "URI",
      "type": "event"
    },
    {
      "inputs": [],
      "name": "DEFAULT_ADMIN_ROLE",
      "outputs": [
        {
          "internalType": "bytes32",
          "name": "",
          "type": "bytes32"
        }
      ],
      "stateMutability": "view",
      "type": "function"
    },
    {
      "inputs": [],
      "name": "MINTER_ROLE",
      "outputs": [
        {
          "internalType": "bytes32",
          "name": "",
          "type": "bytes32"
        }
      ],
      "stateMutability": "view",
      "type": "function"
    },
    {
      "inputs": [
        {
          "internalType": "address",
          "name": "account",
          "type": "address"
        },
        {
          "internalType": "uint256",
          "name": "id",
          "type": "uint256"
        }
      ],
      "name": "balanceOf",
      "outputs": [
        {
          "internalType": "uint256",
          "name": "",
          "type": "uint256"
        }
      ],
      "stateMutability": "view",
      "type": "function"
    },
    {
      "inputs": [
        {
          "internalType": "address[]",
          "name": "accounts",
          "type": "address[]"
        },
        {
          "internalType": "uint256[]",
          "name": "ids",
          "type": "uint256[]"
        }
      ],
      "name": "balanceOfBatch",
      "outputs": [
        {
          "internalType": "uint256[]",
          "name": "",
          "type": "uint256[]"
        }
      ],
      "stateMutability": "view",
      "type": "function"
    },
    {
      "inputs": [
        {
          "internalType": "address",
          "name": "from",
          "type": "address"
        },
        {
          "internalType": "uint256",
          "name": "id",
          "type": "uint256"
        },
        {
          "internalType": "uint256",
          "name": "value",
          "type": "uint256"
        }
      ],
      "name": "burn",
      "outputs": [],
      "stateMutability": "nonpayable",
      "type": "function"
    },
    {
      "inputs": [
        {
          "internalType": "address",
          "name": "from",
          "type": "address"
        },
        {
          "internalType": "uint256[]",
          "name": "ids",
          "type": "uint256[]"
        },
        {
          "internalType": "uint256[]",
          "name": "values",
          "type": "uint256[]"
        }
      ],
      "name": "burnBatch",
      "outputs": [],
      "stateMutability": "nonpayable",
      "type": "function"
    },
    {
      "inputs": [],
      "name": "contractURI",
      "outputs": [
        {
          "internalType": "string",
          "name": "",
          "type": "string"
        }
      ],
      "stateMutability": "pure",
      "type": "function"
    },
    {
      "inputs": [
        {
          "internalType": "address",
          "name": "_initialOwner",
          "type": "address"
        },
        {
          "internalType": "uint256",
          "name": "_id",
          "type": "uint256"
        },
        {
          "internalType": "uint256",
          "name": "_initialSupply",
          "type": "uint256"
        },
        {
          "internalType": "string",
          "name": "_uri",
          "type": "string"
        },
        {
          "internalType": "bytes",
          "name": "_data",
          "type": "bytes"
        }
      ],
      "name": "create",
      "outputs": [
        {
          "internalType": "uint256",
          "name": "",
          "type": "uint256"
        }
      ],
      "stateMutability": "nonpayable",
      "type": "function"
    },
    {
      "inputs": [
        {
          "internalType": "uint256",
          "name": "_id",
          "type": "uint256"
        }
      ],
      "name": "creatorOf",
      "outputs": [
        {
          "internalType": "address",
          "name": "",
          "type": "address"
        }
      ],
      "stateMutability": "view",
      "type": "function"
    },
    {
      "inputs": [
        {
          "internalType": "uint256",
          "name": "",
          "type": "uint256"
        }
      ],
      "name": "creators",
      "outputs": [
        {
          "internalType": "address",
          "name": "",
          "type": "address"
        }
      ],
      "stateMutability": "view",
      "type": "function"
    },
    {
      "inputs": [
        {
          "internalType": "bytes32",
          "name": "role",
          "type": "bytes32"
        }
      ],
      "name": "getRoleAdmin",
      "outputs": [
        {
          "internalType": "bytes32",
          "name": "",
          "type": "bytes32"
        }
      ],
      "stateMutability": "view",
      "type": "function"
    },
    {
      "inputs": [
        {
          "internalType": "bytes32",
          "name": "role",
          "type": "bytes32"
        },
        {
          "internalType": "address",
          "name": "account",
          "type": "address"
        }
      ],
      "name": "grantRole",
      "outputs": [],
      "stateMutability": "nonpayable",
      "type": "function"
    },
    {
      "inputs": [
        {
          "internalType": "bytes32",
          "name": "role",
          "type": "bytes32"
        },
        {
          "internalType": "address",
          "name": "account",
          "type": "address"
        }
      ],
      "name": "hasRole",
      "outputs": [
        {
          "internalType": "bool",
          "name": "",
          "type": "bool"
        }
      ],
      "stateMutability": "view",
      "type": "function"
    },
    {
      "inputs": [
        {
          "internalType": "address",
          "name": "account",
          "type": "address"
        },
        {
          "internalType": "address",
          "name": "operator",
          "type": "address"
        }
      ],
      "name": "isApprovedForAll",
      "outputs": [
        {
          "internalType": "bool",
          "name": "",
          "type": "bool"
        }
      ],
      "stateMutability": "view",
      "type": "function"
    },
    {
      "inputs": [
        {
          "internalType": "address",
          "name": "_to",
          "type": "address"
        },
        {
          "internalType": "uint256",
          "name": "_id",
          "type": "uint256"
        },
        {
          "internalType": "uint256",
          "name": "_quantity",
          "type": "uint256"
        },
        {
          "internalType": "bytes",
          "name": "_data",
          "type": "bytes"
        }
      ],
      "name": "mint",
      "outputs": [],
      "stateMutability": "nonpayable",
      "type": "function"
    },
    {
      "inputs": [
        {
          "internalType": "address",
          "name": "_to",
          "type": "address"
        },
        {
          "internalType": "uint256[]",
          "name": "_ids",
          "type": "uint256[]"
        },
        {
          "internalType": "uint256[]",
          "name": "_quantities",
          "type": "uint256[]"
        },
        {
          "internalType": "bytes",
          "name": "_data",
          "type": "bytes"
        }
      ],
      "name": "mintBatch",
      "outputs": [],
      "stateMutability": "nonpayable",
      "type": "function"
    },
    {
      "inputs": [],
      "name": "name",
      "outputs": [
        {
          "internalType": "string",
          "name": "",
          "type": "string"
        }
      ],
      "stateMutability": "view",
      "type": "function"
    },
    {
      "inputs": [],
      "name": "owner",
      "outputs": [
        {
          "internalType": "address",
          "name": "",
          "type": "address"
        }
      ],
      "stateMutability": "view",
      "type": "function"
    },
    {
      "inputs": [],
      "name": "renounceOwnership",
      "outputs": [],
      "stateMutability": "nonpayable",
      "type": "function"
    },
    {
      "inputs": [
        {
          "internalType": "bytes32",
          "name": "role",
          "type": "bytes32"
        },
        {
          "internalType": "address",
          "name": "account",
          "type": "address"
        }
      ],
      "name": "renounceRole",
      "outputs": [],
      "stateMutability": "nonpayable",
      "type": "function"
    },
    {
      "inputs": [
        {
          "internalType": "bytes32",
          "name": "role",
          "type": "bytes32"
        },
        {
          "internalType": "address",
          "name": "account",
          "type": "address"
        }
      ],
      "name": "revokeRole",
      "outputs": [],
      "stateMutability": "nonpayable",
      "type": "function"
    },
    {
      "inputs": [
        {
          "internalType": "uint256",
          "name": "_tokenId",
          "type": "uint256"
        },
        {
          "internalType": "uint256",
          "name": "_salePrice",
          "type": "uint256"
        }
      ],
      "name": "royaltyInfo",
      "outputs": [
        {
          "internalType": "address",
          "name": "",
          "type": "address"
        },
        {
          "internalType": "uint256",
          "name": "",
          "type": "uint256"
        }
      ],
      "stateMutability": "view",
      "type": "function"
    },
    {
      "inputs": [
        {
          "internalType": "address",
          "name": "from",
          "type": "address"
        },
        {
          "internalType": "address",
          "name": "to",
          "type": "address"
        },
        {
          "internalType": "uint256[]",
          "name": "ids",
          "type": "uint256[]"
        },
        {
          "internalType": "uint256[]",
          "name": "amounts",
          "type": "uint256[]"
        },
        {
          "internalType": "bytes",
          "name": "data",
          "type": "bytes"
        }
      ],
      "name": "safeBatchTransferFrom",
      "outputs": [],
      "stateMutability": "nonpayable",
      "type": "function"
    },
    {
      "inputs": [
        {
          "internalType": "address",
          "name": "from",
          "type": "address"
        },
        {
          "internalType": "address",
          "name": "to",
          "type": "address"
        },
        {
          "internalType": "uint256",
          "name": "id",
          "type": "uint256"
        },
        {
          "internalType": "uint256",
          "name": "amount",
          "type": "uint256"
        },
        {
          "internalType": "bytes",
          "name": "data",
          "type": "bytes"
        }
      ],
      "name": "safeTransferFrom",
      "outputs": [],
      "stateMutability": "nonpayable",
      "type": "function"
    },
    {
      "inputs": [
        {
          "internalType": "address",
          "name": "operator",
          "type": "address"
        },
        {
          "internalType": "bool",
          "name": "approved",
          "type": "bool"
        }
      ],
      "name": "setApprovalForAll",
      "outputs": [],
      "stateMutability": "nonpayable",
      "type": "function"
    },
    {
      "inputs": [
        {
          "internalType": "address",
          "name": "_to",
          "type": "address"
        },
        {
          "internalType": "uint256[]",
          "name": "_ids",
          "type": "uint256[]"
        }
      ],
      "name": "setCreator",
      "outputs": [],
      "stateMutability": "nonpayable",
      "type": "function"
    },
    {
      "inputs": [
        {
          "internalType": "uint256",
          "name": "_tokenId",
          "type": "uint256"
        },
        {
          "internalType": "string",
          "name": "_newURI",
          "type": "string"
        }
      ],
      "name": "setCustomURI",
      "outputs": [],
      "stateMutability": "nonpayable",
      "type": "function"
    },
    {
      "inputs": [
        {
          "internalType": "address",
          "name": "_recipient",
          "type": "address"
        },
        {
          "internalType": "uint96",
          "name": "value",
          "type": "uint96"
        }
      ],
      "name": "setRoyalty",
      "outputs": [],
      "stateMutability": "nonpayable",
      "type": "function"
    },
    {
      "inputs": [
        {
          "internalType": "uint256",
          "name": "tokenId",
          "type": "uint256"
        },
        {
          "internalType": "address",
          "name": "receiver",
          "type": "address"
        },
        {
          "internalType": "uint96",
          "name": "feeNumerator",
          "type": "uint96"
        }
      ],
      "name": "setTokenRoyalty",
      "outputs": [],
      "stateMutability": "nonpayable",
      "type": "function"
    },
    {
      "inputs": [
        {
          "internalType": "string",
          "name": "_newURI",
          "type": "string"
        }
      ],
      "name": "setURI",
      "outputs": [],
      "stateMutability": "nonpayable",
      "type": "function"
    },
    {
      "inputs": [
        {
          "internalType": "bytes4",
          "name": "interfaceId",
          "type": "bytes4"
        }
      ],
      "name": "supportsInterface",
      "outputs": [
        {
          "internalType": "bool",
          "name": "",
          "type": "bool"
        }
      ],
      "stateMutability": "view",
      "type": "function"
    },
    {
      "inputs": [],
      "name": "symbol",
      "outputs": [
        {
          "internalType": "string",
          "name": "",
          "type": "string"
        }
      ],
      "stateMutability": "view",
      "type": "function"
    },
    {
      "inputs": [
        {
          "internalType": "uint256",
          "name": "",
          "type": "uint256"
        }
      ],
      "name": "tokenSupply",
      "outputs": [
        {
          "internalType": "uint256",
          "name": "",
          "type": "uint256"
        }
      ],
      "stateMutability": "view",
      "type": "function"
    },
    {
      "inputs": [
        {
          "internalType": "uint256",
          "name": "_id",
          "type": "uint256"
        }
      ],
      "name": "totalSupply",
      "outputs": [
        {
          "internalType": "uint256",
          "name": "",
          "type": "uint256"
        }
      ],
      "stateMutability": "view",
      "type": "function"
    },
    {
      "inputs": [
        {
          "internalType": "address",
          "name": "newOwner",
          "type": "address"
        }
      ],
      "name": "transferOwnership",
      "outputs": [],
      "stateMutability": "nonpayable",
      "type": "function"
    },
    {
      "inputs": [
        {
          "internalType": "uint256",
          "name": "_id",
          "type": "uint256"
        }
      ],
      "name": "uri",
      "outputs": [
        {
          "internalType": "string",
          "name": "",
          "type": "string"
        }
      ],
      "stateMutability": "view",
      "type": "function"
    }
  ],
  "bytecode": "0x60806040523480156200001157600080fd5b50604051620039793803806200397983398101604081905262000034916200044d565b826200004081620000c8565b506200004c33620000e1565b6200005960003362000133565b620000857f9f2df0fed2c77648de5860a4cc508cd0818c85b8b8a1ab4ceeef8d981c8956a63362000133565b84516200009a90600a906020880190620002f4565b508351620000b090600b906020870190620002f4565b50620000bd82826200013f565b505050505062000570565b8051620000dd906002906020840190620002f4565b5050565b600380546001600160a01b038381166001600160a01b0319831681179093556040519116919082907f8be0079c531659141344cd1fd0a4f28419497f9722a3daafe3b4186f6b6457e090600090a35050565b620000dd82826200014b565b620000dd8282620001ef565b60008281526006602090815260408083206001600160a01b038516845290915290205460ff16620000dd5760008281526006602090815260408083206001600160a01b03851684529091529020805460ff19166001179055620001ab3390565b6001600160a01b0316816001600160a01b0316837f2f8788117e7eff1d82e926ec794901d17c78024a50270940304540a733656f0d60405160405180910390a45050565b6127106001600160601b0382161115620002635760405162461bcd60e51b815260206004820152602a60248201527f455243323938313a20726f79616c7479206665652077696c6c206578636565646044820152692073616c65507269636560b01b60648201526084015b60405180910390fd5b6001600160a01b038216620002bb5760405162461bcd60e51b815260206004820152601960248201527f455243323938313a20696e76616c69642072656365697665720000000000000060448201526064016200025a565b604080518082019091526001600160a01b039092168083526001600160601b039091166020909201829052600160a01b90910217600455565b82805462000302906200051d565b90600052602060002090601f01602090048101928262000326576000855562000371565b82601f106200034157805160ff191683800117855562000371565b8280016001018555821562000371579182015b828111156200037157825182559160200191906001019062000354565b506200037f92915062000383565b5090565b5b808211156200037f576000815560010162000384565b600082601f830112620003ab578081fd5b81516001600160401b0380821115620003c857620003c86200055a565b604051601f8301601f19908116603f01168101908282118183101715620003f357620003f36200055a565b816040528381526020925086838588010111156200040f578485fd5b8491505b8382101562000432578582018301518183018401529082019062000413565b838211156200044357848385830101525b9695505050505050565b600080600080600060a0868803121562000465578081fd5b85516001600160401b03808211156200047c578283fd5b6200048a89838a016200039a565b96506020880151915080821115620004a0578283fd5b620004ae89838a016200039a565b95506040880151915080821115620004c4578283fd5b50620004d3888289016200039a565b606088015190945090506001600160a01b0381168114620004f2578182fd5b60808701519092506001600160601b03811681146200050f578182fd5b809150509295509295909350565b600181811c908216806200053257607f821691505b602082108114156200055457634e487b7160e01b600052602260045260246000fd5b50919050565b634e487b7160e01b600052604160045260246000fd5b6133f980620005806000396000f3fe608060405234801561001057600080fd5b506004361061021b5760003560e01c8063715018a611610125578063cd53d08e116100ad578063e8a3d4851161007c578063e8a3d4851461051f578063e985e9c514610533578063f242432a1461056f578063f2fde38b14610582578063f5298aca1461059557600080fd5b8063cd53d08e146104a9578063d2a6b51a146104d2578063d5391393146104e5578063d547741f1461050c57600080fd5b806391d14854116100f457806391d148541461045357806395d89b4114610466578063a217fddf1461046e578063a22cb46514610476578063bd85b0391461048957600080fd5b8063715018a614610414578063731133e91461041c5780638da5cb5b1461042f5780638f2fc60b1461044057600080fd5b80632eb2c2d6116101a85780633adf80b4116101775780633adf80b41461037a5780634e1273f41461038d578063589a1743146103ad5780635944c753146103ee5780636b20c4541461040157600080fd5b80632eb2c2d61461032e5780632f2ff15d1461034157806336568abe1461035457806336a100d51461036757600080fd5b80630e89341c116101ef5780630e89341c146102935780631f7fdffa146102a6578063248a9ca3146102b95780632693ebf2146102dc5780632a55205a146102fc57600080fd5b8062fdd58e1461022057806301ffc9a71461024657806302fe53051461026957806306fdde031461027e575b600080fd5b61023361022e366004612967565b6105a8565b6040519081526020015b60405180910390f35b610259610254366004612b8c565b61063f565b604051901515815260200161023d565b61027c610277366004612bc4565b610650565b005b610286610686565b60405161023d9190612e9c565b6102866102a1366004612b52565b610714565b61027c6102b4366004612899565b6108f7565b6102336102c7366004612b52565b60009081526006602052604090206001015490565b6102336102ea366004612b52565b60086020526000908152604090205481565b61030f61030a366004612c73565b610a3a565b604080516001600160a01b03909316835260208301919091520161023d565b61027c61033c3660046126d7565b610ae6565b61027c61034f366004612b6a565b610b7d565b61027c610362366004612b6a565b610ba8565b610233610375366004612a14565b610c26565b61027c610388366004612c39565b610d59565b6103a061039b366004612a92565b610dee565b60405161023d9190612e5b565b6103d66103bb366004612b52565b6000908152600760205260409020546001600160a01b031690565b6040516001600160a01b03909116815260200161023d565b61027c6103fc366004612bfe565b610f4f565b61027c61040f366004612829565b610fcb565b61027c61100e565b61027c61042a3660046129c2565b611044565b6003546001600160a01b03166103d6565b61027c61044e366004612a69565b6110ba565b610259610461366004612b6a565b6110c4565b6102866110ef565b610233600081565b61027c61048436600461292d565b6110fc565b610233610497366004612b52565b60009081526008602052604090205490565b6103d66104b7366004612b52565b6007602052600090815260409020546001600160a01b031681565b61027c6104e03660046127de565b611107565b6102337f9f2df0fed2c77648de5860a4cc508cd0818c85b8b8a1ab4ceeef8d981c8956a681565b61027c61051a366004612b6a565b6111be565b604080516020810190915260008152610286565b6102596105413660046126a5565b6001600160a01b03918216600090815260016020908152604080832093909416825291909152205460ff1690565b61027c61057d36600461277c565b6111e4565b61027c61059036600461268b565b611229565b61027c6105a3366004612990565b6112c1565b60006001600160a01b0383166106195760405162461bcd60e51b815260206004820152602b60248201527f455243313135353a2062616c616e636520717565727920666f7220746865207a60448201526a65726f206164647265737360a81b60648201526084015b60405180910390fd5b506000908152602081815260408083206001600160a01b03949094168352929052205490565b600061064a82611304565b92915050565b6003546001600160a01b0316331461067a5760405162461bcd60e51b81526004016106109061309f565b61068381611329565b50565b600a805461069390613264565b80601f01602080910402602001604051908101604052809291908181526020018280546106bf90613264565b801561070c5780601f106106e15761010080835404028352916020019161070c565b820191906000526020600020905b8154815290600101906020018083116106ef57829003601f168201915b505050505081565b6000818152600760205260409020546060906001600160a01b031661077b5760405162461bcd60e51b815260206004820152601e60248201527f45524331313535237572693a204e4f4e4558495354454e545f544f4b454e00006044820152606401610610565b6000828152600960205260408120805461079490613264565b80601f01602080910402602001604051908101604052809291908181526020018280546107c090613264565b801561080d5780601f106107e25761010080835404028352916020019161080d565b820191906000526020600020905b8154815290600101906020018083116107f057829003601f168201915b505050505090506000815111156108bd576000838152600960205260409020805461083790613264565b80601f016020809104026020016040519081016040528092919081815260200182805461086390613264565b80156108b05780601f10610885576101008083540402835291602001916108b0565b820191906000526020600020905b81548152906001019060200180831161089357829003601f168201915b5050505050915050919050565b6108c68361133c565b30846040516020016108da93929190612cfa565b604051602081830303815290604052915050919050565b50919050565b60005b8351811015610a2757600084828151811061092557634e487b7160e01b600052603260045260246000fd5b602002602001015190506109363390565b6000828152600760205260409020546001600160a01b039081169116146109af5760405162461bcd60e51b815260206004820152602760248201527f45524331313535236d696e7442617463683a204f4e4c595f43524541544f525f60448201526610531313d5d15160ca1b6064820152608401610610565b60008483815181106109d157634e487b7160e01b600052603260045260246000fd5b60200260200101519050610a018160086000858152602001908152602001600020546113d090919063ffffffff16565b600092835260086020526040909220919091555080610a1f816132c5565b9150506108fa565b50610a34848484846113e3565b50505050565b60008281526005602090815260408083208151808301909252546001600160a01b038116808352600160a01b9091046001600160601b0316928201929092528291610aaf5750604080518082019091526004546001600160a01b0381168252600160a01b90046001600160601b031660208201525b602081015160009061271090610ace906001600160601b031687613202565b610ad891906131e2565b915196919550909350505050565b6001600160a01b038516331480610b025750610b028533610541565b610b695760405162461bcd60e51b815260206004820152603260248201527f455243313135353a207472616e736665722063616c6c6572206973206e6f74206044820152711bdddb995c881b9bdc88185c1c1c9bdd995960721b6064820152608401610610565b610b76858585858561154a565b5050505050565b600082815260066020526040902060010154610b998133611702565b610ba38383611766565b505050565b6001600160a01b0381163314610c185760405162461bcd60e51b815260206004820152602f60248201527f416363657373436f6e74726f6c3a2063616e206f6e6c792072656e6f756e636560448201526e103937b632b9903337b91039b2b63360891b6064820152608401610610565b610c2282826117ec565b5050565b6003546000906001600160a01b03163314610c535760405162461bcd60e51b81526004016106109061309f565b6000858152600760205260409020546001600160a01b031615610cb85760405162461bcd60e51b815260206004820152601860248201527f746f6b656e205f696420616c72656164792065786973747300000000000000006044820152606401610610565b600085815260076020526040902080546001600160a01b03191633179055825115610d365760008581526009602090815260409091208451610cfc928601906124dd565b50847f6bb7ff708619ba0610cba295a58592e0451dee2622938c8755667688daf3529b84604051610d2d9190612e9c565b60405180910390a25b610d4286868685611853565b505050600082815260086020526040902055919050565b60008281526007602052604090205482906001600160a01b03163314610d915760405162461bcd60e51b815260040161061090612f84565b60008381526009602090815260409091208351610db0928501906124dd565b50827f6bb7ff708619ba0610cba295a58592e0451dee2622938c8755667688daf3529b83604051610de19190612e9c565b60405180910390a2505050565b60608151835114610e535760405162461bcd60e51b815260206004820152602960248201527f455243313135353a206163636f756e747320616e6420696473206c656e677468604482015268040dad2e6dac2e8c6d60bb1b6064820152608401610610565b600083516001600160401b03811115610e7c57634e487b7160e01b600052604160045260246000fd5b604051908082528060200260200182016040528015610ea5578160200160208202803683370190505b50905060005b8451811015610f4757610f0c858281518110610ed757634e487b7160e01b600052603260045260246000fd5b6020026020010151858381518110610eff57634e487b7160e01b600052603260045260246000fd5b60200260200101516105a8565b828281518110610f2c57634e487b7160e01b600052603260045260246000fd5b6020908102919091010152610f40816132c5565b9050610eab565b509392505050565b6000838152600760205260409020546001600160a01b03163314610fc05760405162461bcd60e51b815260206004820152602260248201527f426f6f6b4e46543a204f6e6c7920746f6b656e206f776e657220616c6c6f7765604482015261321760f11b6064820152608401610610565b610ba3838383611923565b6001600160a01b038316331480610fe75750610fe78333610541565b6110035760405162461bcd60e51b815260040161061090612f3b565b610ba38383836119ee565b6003546001600160a01b031633146110385760405162461bcd60e51b81526004016106109061309f565b6110426000611b86565b565b60008381526007602052604090205483906001600160a01b0316331461107c5760405162461bcd60e51b815260040161061090612f84565b61108885858585611853565b6000848152600860205260409020546110a190846113d0565b6000948552600860205260409094209390935550505050565b610c228282611bd8565b60009182526006602090815260408084206001600160a01b0393909316845291905290205460ff1690565b600b805461069390613264565b610c22338383611c92565b6001600160a01b0382166111695760405162461bcd60e51b8152602060048201526024808201527f455243313135352373657443726561746f723a20494e56414c49445f4144445260448201526322a9a99760e11b6064820152608401610610565b60005b8151811015610ba357600082828151811061119757634e487b7160e01b600052603260045260246000fd5b602002602001015190506111ab8482611d73565b50806111b6816132c5565b91505061116c565b6000828152600660205260409020600101546111da8133611702565b610ba383836117ec565b6001600160a01b03851633148061120057506112008533610541565b61121c5760405162461bcd60e51b815260040161061090612f3b565b610b768585858585611dda565b6003546001600160a01b031633146112535760405162461bcd60e51b81526004016106109061309f565b6001600160a01b0381166112b85760405162461bcd60e51b815260206004820152602660248201527f4f776e61626c653a206e6577206f776e657220697320746865207a65726f206160448201526564647265737360d01b6064820152608401610610565b61068381611b86565b6001600160a01b0383163314806112dd57506112dd8333610541565b6112f95760405162461bcd60e51b815260040161061090612f3b565b610ba3838383611ef7565b60006001600160e01b03198216637965db0b60e01b148061064a575061064a82611ff9565b8051610c229060029060208401906124dd565b60606002805461134b90613264565b80601f016020809104026020016040519081016040528092919081815260200182805461137790613264565b80156113c45780601f10611399576101008083540402835291602001916113c4565b820191906000526020600020905b8154815290600101906020018083116113a757829003601f168201915b50505050509050919050565b60006113dc82846131ca565b9392505050565b6001600160a01b0384166114095760405162461bcd60e51b815260040161061090613166565b815183511461142a5760405162461bcd60e51b81526004016106109061311e565b3360005b84518110156114e25783818151811061145757634e487b7160e01b600052603260045260246000fd5b602002602001015160008087848151811061148257634e487b7160e01b600052603260045260246000fd5b602002602001015181526020019081526020016000206000886001600160a01b03166001600160a01b0316815260200190815260200160002060008282546114ca91906131ca565b909155508190506114da816132c5565b91505061142e565b50846001600160a01b031660006001600160a01b0316826001600160a01b03167f4a39dc06d4c0dbc64b70af90fd698a233a518aa5d07e595d983b8c0526c8f7fb8787604051611533929190612e6e565b60405180910390a4610b768160008787878761201e565b815183511461156b5760405162461bcd60e51b81526004016106109061311e565b6001600160a01b0384166115915760405162461bcd60e51b815260040161061090612fcd565b3360005b84518110156116945760008582815181106115c057634e487b7160e01b600052603260045260246000fd5b6020026020010151905060008583815181106115ec57634e487b7160e01b600052603260045260246000fd5b602090810291909101810151600084815280835260408082206001600160a01b038e16835290935291909120549091508181101561163c5760405162461bcd60e51b815260040161061090613055565b6000838152602081815260408083206001600160a01b038e8116855292528083208585039055908b168252812080548492906116799084906131ca565b925050819055505050508061168d906132c5565b9050611595565b50846001600160a01b0316866001600160a01b0316826001600160a01b03167f4a39dc06d4c0dbc64b70af90fd698a233a518aa5d07e595d983b8c0526c8f7fb87876040516116e4929190612e6e565b60405180910390a46116fa81878787878761201e565b505050505050565b61170c82826110c4565b610c2257611724816001600160a01b03166014612189565b61172f836020612189565b604051602001611740929190612d43565b60408051601f198184030181529082905262461bcd60e51b825261061091600401612e9c565b61177082826110c4565b610c225760008281526006602090815260408083206001600160a01b03851684529091529020805460ff191660011790556117a83390565b6001600160a01b0316816001600160a01b0316837f2f8788117e7eff1d82e926ec794901d17c78024a50270940304540a733656f0d60405160405180910390a45050565b6117f682826110c4565b15610c225760008281526006602090815260408083206001600160a01b0385168085529252808320805460ff1916905551339285917ff6391f5c32d9c69d2a47ea670b442974b53935d1edc7fd64eb21e047a839171b9190a45050565b6001600160a01b0384166118795760405162461bcd60e51b815260040161061090613166565b336118938160008761188a8861236a565b610b768861236a565b6000848152602081815260408083206001600160a01b0389168452909152812080548592906118c39084906131ca565b909155505060408051858152602081018590526001600160a01b0380881692600092918516917fc3d58168c5ae7397731d063d5bbf3d657854427343f4c083240f7aacaa2d0f62910160405180910390a4610b76816000878787876123c3565b6127106001600160601b038216111561194e5760405162461bcd60e51b8152600401610610906130d4565b6001600160a01b0382166119a45760405162461bcd60e51b815260206004820152601b60248201527f455243323938313a20496e76616c696420706172616d657465727300000000006044820152606401610610565b6040805180820182526001600160a01b0393841681526001600160601b0392831660208083019182526000968752600590529190942093519051909116600160a01b029116179055565b6001600160a01b038316611a145760405162461bcd60e51b815260040161061090613012565b8051825114611a355760405162461bcd60e51b81526004016106109061311e565b604080516020810190915260009081905233905b8351811015611b27576000848281518110611a7457634e487b7160e01b600052603260045260246000fd5b602002602001015190506000848381518110611aa057634e487b7160e01b600052603260045260246000fd5b602090810291909101810151600084815280835260408082206001600160a01b038c168352909352919091205490915081811015611af05760405162461bcd60e51b815260040161061090612ef7565b6000928352602083815260408085206001600160a01b038b1686529091529092209103905580611b1f816132c5565b915050611a49565b5060006001600160a01b0316846001600160a01b0316826001600160a01b03167f4a39dc06d4c0dbc64b70af90fd698a233a518aa5d07e595d983b8c0526c8f7fb8686604051611b78929190612e6e565b60405180910390a450505050565b600380546001600160a01b038381166001600160a01b0319831681179093556040519116919082907f8be0079c531659141344cd1fd0a4f28419497f9722a3daafe3b4186f6b6457e090600090a35050565b6127106001600160601b0382161115611c035760405162461bcd60e51b8152600401610610906130d4565b6001600160a01b038216611c595760405162461bcd60e51b815260206004820152601960248201527f455243323938313a20696e76616c6964207265636569766572000000000000006044820152606401610610565b604080518082019091526001600160a01b039092168083526001600160601b039091166020909201829052600160a01b90910217600455565b816001600160a01b0316836001600160a01b03161415611d065760405162461bcd60e51b815260206004820152602960248201527f455243313135353a2073657474696e6720617070726f76616c20737461747573604482015268103337b91039b2b63360b91b6064820152608401610610565b6001600160a01b03838116600081815260016020908152604080832094871680845294825291829020805460ff191686151590811790915591519182527f17307eab39ab6107e8899845ad3d59bd9653f200f220920489ca2b5937696c31910160405180910390a3505050565b60008181526007602052604090205481906001600160a01b03163314611dab5760405162461bcd60e51b815260040161061090612f84565b50600090815260076020526040902080546001600160a01b0319166001600160a01b0392909216919091179055565b6001600160a01b038416611e005760405162461bcd60e51b815260040161061090612fcd565b33611e1081878761188a8861236a565b6000848152602081815260408083206001600160a01b038a16845290915290205483811015611e515760405162461bcd60e51b815260040161061090613055565b6000858152602081815260408083206001600160a01b038b8116855292528083208785039055908816825281208054869290611e8e9084906131ca565b909155505060408051868152602081018690526001600160a01b03808916928a821692918616917fc3d58168c5ae7397731d063d5bbf3d657854427343f4c083240f7aacaa2d0f62910160405180910390a4611eee8288888888886123c3565b50505050505050565b6001600160a01b038316611f1d5760405162461bcd60e51b815260040161061090613012565b33611f4d81856000611f2e8761236a565b611f378761236a565b5050604080516020810190915260009052505050565b6000838152602081815260408083206001600160a01b038816845290915290205482811015611f8e5760405162461bcd60e51b815260040161061090612ef7565b6000848152602081815260408083206001600160a01b03898116808652918452828520888703905582518981529384018890529092908616917fc3d58168c5ae7397731d063d5bbf3d657854427343f4c083240f7aacaa2d0f62910160405180910390a45050505050565b60006001600160e01b0319821663152a902d60e11b148061064a575061064a8261248d565b6001600160a01b0384163b156116fa5760405163bc197c8160e01b81526001600160a01b0385169063bc197c81906120629089908990889088908890600401612db8565b602060405180830381600087803b15801561207c57600080fd5b505af19250505080156120ac575060408051601f3d908101601f191682019092526120a991810190612ba8565b60015b612159576120b861330c565b806308c379a014156120f257506120cd613324565b806120d857506120f4565b8060405162461bcd60e51b81526004016106109190612e9c565b505b60405162461bcd60e51b815260206004820152603460248201527f455243313135353a207472616e7366657220746f206e6f6e20455243313135356044820152732932b1b2b4bb32b91034b6b83632b6b2b73a32b960611b6064820152608401610610565b6001600160e01b0319811663bc197c8160e01b14611eee5760405162461bcd60e51b815260040161061090612eaf565b60606000612198836002613202565b6121a39060026131ca565b6001600160401b038111156121c857634e487b7160e01b600052604160045260246000fd5b6040519080825280601f01601f1916602001820160405280156121f2576020820181803683370190505b509050600360fc1b8160008151811061221b57634e487b7160e01b600052603260045260246000fd5b60200101906001600160f81b031916908160001a905350600f60fb1b8160018151811061225857634e487b7160e01b600052603260045260246000fd5b60200101906001600160f81b031916908160001a905350600061227c846002613202565b6122879060016131ca565b90505b600181111561231b576f181899199a1a9b1b9c1cb0b131b232b360811b85600f16601081106122c957634e487b7160e01b600052603260045260246000fd5b1a60f81b8282815181106122ed57634e487b7160e01b600052603260045260246000fd5b60200101906001600160f81b031916908160001a90535060049490941c936123148161324d565b905061228a565b5083156113dc5760405162461bcd60e51b815260206004820181905260248201527f537472696e67733a20686578206c656e67746820696e73756666696369656e746044820152606401610610565b604080516001808252818301909252606091600091906020808301908036833701905050905082816000815181106123b257634e487b7160e01b600052603260045260246000fd5b602090810291909101015292915050565b6001600160a01b0384163b156116fa5760405163f23a6e6160e01b81526001600160a01b0385169063f23a6e61906124079089908990889088908890600401612e16565b602060405180830381600087803b15801561242157600080fd5b505af1925050508015612451575060408051601f3d908101601f1916820190925261244e91810190612ba8565b60015b61245d576120b861330c565b6001600160e01b0319811663f23a6e6160e01b14611eee5760405162461bcd60e51b815260040161061090612eaf565b60006001600160e01b03198216636cdb3d1360e11b14806124be57506001600160e01b031982166303a24d0760e21b145b8061064a57506301ffc9a760e01b6001600160e01b031983161461064a565b8280546124e990613264565b90600052602060002090601f01602090048101928261250b5760008555612551565b82601f1061252457805160ff1916838001178555612551565b82800160010185558215612551579182015b82811115612551578251825591602001919060010190612536565b5061255d929150612561565b5090565b5b8082111561255d5760008155600101612562565b80356001600160a01b038116811461258d57600080fd5b919050565b600082601f8301126125a2578081fd5b813560206125af826131a7565b6040516125bc8282613299565b8381528281019150858301600585901b870184018810156125db578586fd5b855b858110156125f9578135845292840192908401906001016125dd565b5090979650505050505050565b600082601f830112612616578081fd5b81356001600160401b0381111561262f5761262f6132f6565b604051612646601f8301601f191660200182613299565b81815284602083860101111561265a578283fd5b816020850160208301379081016020019190915292915050565b80356001600160601b038116811461258d57600080fd5b60006020828403121561269c578081fd5b6113dc82612576565b600080604083850312156126b7578081fd5b6126c083612576565b91506126ce60208401612576565b90509250929050565b600080600080600060a086880312156126ee578081fd5b6126f786612576565b945061270560208701612576565b935060408601356001600160401b0380821115612720578283fd5b61272c89838a01612592565b94506060880135915080821115612741578283fd5b61274d89838a01612592565b93506080880135915080821115612762578283fd5b5061276f88828901612606565b9150509295509295909350565b600080600080600060a08688031215612793578081fd5b61279c86612576565b94506127aa60208701612576565b9350604086013592506060860135915060808601356001600160401b038111156127d2578182fd5b61276f88828901612606565b600080604083850312156127f0578182fd5b6127f983612576565b915060208301356001600160401b03811115612813578182fd5b61281f85828601612592565b9150509250929050565b60008060006060848603121561283d578283fd5b61284684612576565b925060208401356001600160401b0380821115612861578384fd5b61286d87838801612592565b93506040860135915080821115612882578283fd5b5061288f86828701612592565b9150509250925092565b600080600080608085870312156128ae578182fd5b6128b785612576565b935060208501356001600160401b03808211156128d2578384fd5b6128de88838901612592565b945060408701359150808211156128f3578384fd5b6128ff88838901612592565b93506060870135915080821115612914578283fd5b5061292187828801612606565b91505092959194509250565b6000806040838503121561293f578182fd5b61294883612576565b91506020830135801515811461295c578182fd5b809150509250929050565b60008060408385031215612979578182fd5b61298283612576565b946020939093013593505050565b6000806000606084860312156129a4578081fd5b6129ad84612576565b95602085013595506040909401359392505050565b600080600080608085870312156129d7578182fd5b6129e085612576565b9350602085013592506040850135915060608501356001600160401b03811115612a08578182fd5b61292187828801612606565b600080600080600060a08688031215612a2b578283fd5b612a3486612576565b9450602086013593506040860135925060608601356001600160401b0380821115612a5d578283fd5b61274d89838a01612606565b60008060408385031215612a7b578182fd5b612a8483612576565b91506126ce60208401612674565b60008060408385031215612aa4578182fd5b82356001600160401b0380821115612aba578384fd5b818501915085601f830112612acd578384fd5b81356020612ada826131a7565b604051612ae78282613299565b8381528281019150858301600585901b870184018b1015612b06578889fd5b8896505b84871015612b2f57612b1b81612576565b835260019690960195918301918301612b0a565b5096505086013592505080821115612b45578283fd5b5061281f85828601612592565b600060208284031215612b63578081fd5b5035919050565b60008060408385031215612b7c578182fd5b823591506126ce60208401612576565b600060208284031215612b9d578081fd5b81356113dc816133ad565b600060208284031215612bb9578081fd5b81516113dc816133ad565b600060208284031215612bd5578081fd5b81356001600160401b03811115612bea578182fd5b612bf684828501612606565b949350505050565b600080600060608486031215612c12578081fd5b83359250612c2260208501612576565b9150612c3060408501612674565b90509250925092565b60008060408385031215612c4b578182fd5b8235915060208301356001600160401b03811115612c67578182fd5b61281f85828601612606565b60008060408385031215612c85578182fd5b50508035926020909101359150565b6000815180845260208085019450808401835b83811015612cc357815187529582019590820190600101612ca7565b509495945050505050565b60008151808452612ce6816020860160208601613221565b601f01601f19169290920160200192915050565b60008451612d0c818460208901613221565b60609490941b6bffffffffffffffffffffffff191691909301908152602f60f81b6014820152601581019190915260350192915050565b7f416363657373436f6e74726f6c3a206163636f756e7420000000000000000000815260008351612d7b816017850160208801613221565b7001034b99036b4b9b9b4b733903937b6329607d1b6017918401918201528351612dac816028840160208801613221565b01602801949350505050565b6001600160a01b0386811682528516602082015260a060408201819052600090612de490830186612c94565b8281036060840152612df68186612c94565b90508281036080840152612e0a8185612cce565b98975050505050505050565b6001600160a01b03868116825285166020820152604081018490526060810183905260a060808201819052600090612e5090830184612cce565b979650505050505050565b6020815260006113dc6020830184612c94565b604081526000612e816040830185612c94565b8281036020840152612e938185612c94565b95945050505050565b6020815260006113dc6020830184612cce565b60208082526028908201527f455243313135353a204552433131353552656365697665722072656a656374656040820152676420746f6b656e7360c01b606082015260800190565b60208082526024908201527f455243313135353a206275726e20616d6f756e7420657863656564732062616c604082015263616e636560e01b606082015260800190565b60208082526029908201527f455243313135353a2063616c6c6572206973206e6f74206f776e6572206e6f7260408201526808185c1c1c9bdd995960ba1b606082015260800190565b60208082526029908201527f455243313135352363726561746f724f6e6c793a204f4e4c595f43524541544f6040820152681497d0531313d5d15160ba1b606082015260800190565b60208082526025908201527f455243313135353a207472616e7366657220746f20746865207a65726f206164604082015264647265737360d81b606082015260800190565b60208082526023908201527f455243313135353a206275726e2066726f6d20746865207a65726f206164647260408201526265737360e81b606082015260800190565b6020808252602a908201527f455243313135353a20696e73756666696369656e742062616c616e636520666f60408201526939103a3930b739b332b960b11b606082015260800190565b6020808252818101527f4f776e61626c653a2063616c6c6572206973206e6f7420746865206f776e6572604082015260600190565b6020808252602a908201527f455243323938313a20726f79616c7479206665652077696c6c206578636565646040820152692073616c65507269636560b01b606082015260800190565b60208082526028908201527f455243313135353a2069647320616e6420616d6f756e7473206c656e677468206040820152670dad2e6dac2e8c6d60c31b606082015260800190565b60208082526021908201527f455243313135353a206d696e7420746f20746865207a65726f206164647265736040820152607360f81b606082015260800190565b60006001600160401b038211156131c0576131c06132f6565b5060051b60200190565b600082198211156131dd576131dd6132e0565b500190565b6000826131fd57634e487b7160e01b81526012600452602481fd5b500490565b600081600019048311821515161561321c5761321c6132e0565b500290565b60005b8381101561323c578181015183820152602001613224565b83811115610a345750506000910152565b60008161325c5761325c6132e0565b506000190190565b600181811c9082168061327857607f821691505b602082108114156108f157634e487b7160e01b600052602260045260246000fd5b601f8201601f191681016001600160401b03811182821017156132be576132be6132f6565b6040525050565b60006000198214156132d9576132d96132e0565b5060010190565b634e487b7160e01b600052601160045260246000fd5b634e487b7160e01b600052604160045260246000fd5b600060033d111561332157600481823e5160e01c5b90565b600060443d10156133325790565b6040516003193d81016004833e81513d6001600160401b03816024840111818411171561336157505050505090565b82850191508151818111156133795750505050505090565b843d87010160208285010111156133935750505050505090565b6133a260208286010187613299565b509095945050505050565b6001600160e01b03198116811461068357600080fdfea2646970667358221220fdbe34b7c469a1d7dee0f3e313b9ae6bf11d17356f10ca6b1e5cfa9568540ce764736f6c63430008040033",
  "linkReferences": {},
  "deployedLinkReferences": {}
}