{
  "_format": "hh-sol-artifact-1",
  "contractName": "BookNFT",
  "sourceName": "contracts/Tokens/BookNFT.sol",
  "abi": [
    {
      "inputs": [
        {
          "internalType": "string",
          "name": "_name",
          "type": "string"
        },
        {
          "internalType": "string",
          "name": "_symbol",
          "type": "string"
        },
        {
          "internalType": "string",
          "name": "_uri",
          "type": "string"
        },
        {
          "internalType": "address",
          "name": "_recipient",
          "type": "address"
        },
        {
          "internalType": "uint96",
          "name": "_royaltyAmount",
          "type": "uint96"
        }
      ],
      "stateMutability": "nonpayable",
      "type": "constructor"
    },
    {
      "anonymous": false,
      "inputs": [
        {
          "indexed": true,
          "internalType": "address",
          "name": "account",
          "type": "address"
        },
        {
          "indexed": true,
          "internalType": "address",
          "name": "operator",
          "type": "address"
        },
        {
          "indexed": false,
          "internalType": "bool",
          "name": "approved",
          "type": "bool"
        }
      ],
      "name": "ApprovalForAll",
      "type": "event"
    },
    {
      "anonymous": false,
      "inputs": [
        {
          "indexed": true,
          "internalType": "address",
          "name": "previousOwner",
          "type": "address"
        },
        {
          "indexed": true,
          "internalType": "address",
          "name": "newOwner",
          "type": "address"
        }
      ],
      "name": "OwnershipTransferred",
      "type": "event"
    },
    {
      "anonymous": false,
      "inputs": [
        {
          "indexed": true,
          "internalType": "bytes32",
          "name": "role",
          "type": "bytes32"
        },
        {
          "indexed": true,
          "internalType": "bytes32",
          "name": "previousAdminRole",
          "type": "bytes32"
        },
        {
          "indexed": true,
          "internalType": "bytes32",
          "name": "newAdminRole",
          "type": "bytes32"
        }
      ],
      "name": "RoleAdminChanged",
      "type": "event"
    },
    {
      "anonymous": false,
      "inputs": [
        {
          "indexed": true,
          "internalType": "bytes32",
          "name": "role",
          "type": "bytes32"
        },
        {
          "indexed": true,
          "internalType": "address",
          "name": "account",
          "type": "address"
        },
        {
          "indexed": true,
          "internalType": "address",
          "name": "sender",
          "type": "address"
        }
      ],
      "name": "RoleGranted",
      "type": "event"
    },
    {
      "anonymous": false,
      "inputs": [
        {
          "indexed": true,
          "internalType": "bytes32",
          "name": "role",
          "type": "bytes32"
        },
        {
          "indexed": true,
          "internalType": "address",
          "name": "account",
          "type": "address"
        },
        {
          "indexed": true,
          "internalType": "address",
          "name": "sender",
          "type": "address"
        }
      ],
      "name": "RoleRevoked",
      "type": "event"
    },
    {
      "anonymous": false,
      "inputs": [
        {
          "indexed": true,
          "internalType": "address",
          "name": "operator",
          "type": "address"
        },
        {
          "indexed": true,
          "internalType": "address",
          "name": "from",
          "type": "address"
        },
        {
          "indexed": true,
          "internalType": "address",
          "name": "to",
          "type": "address"
        },
        {
          "indexed": false,
          "internalType": "uint256[]",
          "name": "ids",
          "type": "uint256[]"
        },
        {
          "indexed": false,
          "internalType": "uint256[]",
          "name": "values",
          "type": "uint256[]"
        }
      ],
      "name": "TransferBatch",
      "type": "event"
    },
    {
      "anonymous": false,
      "inputs": [
        {
          "indexed": true,
          "internalType": "address",
          "name": "operator",
          "type": "address"
        },
        {
          "indexed": true,
          "internalType": "address",
          "name": "from",
          "type": "address"
        },
        {
          "indexed": true,
          "internalType": "address",
          "name": "to",
          "type": "address"
        },
        {
          "indexed": false,
          "internalType": "uint256",
          "name": "id",
          "type": "uint256"
        },
        {
          "indexed": false,
          "internalType": "uint256",
          "name": "value",
          "type": "uint256"
        }
      ],
      "name": "TransferSingle",
      "type": "event"
    },
    {
      "anonymous": false,
      "inputs": [
        {
          "indexed": false,
          "internalType": "string",
          "name": "value",
          "type": "string"
        },
        {
          "indexed": true,
          "internalType": "uint256",
          "name": "id",
          "type": "uint256"
        }
      ],
      "name": "URI",
      "type": "event"
    },
    {
      "inputs": [],
      "name": "DEFAULT_ADMIN_ROLE",
      "outputs": [
        {
          "internalType": "bytes32",
          "name": "",
          "type": "bytes32"
        }
      ],
      "stateMutability": "view",
      "type": "function"
    },
    {
      "inputs": [],
      "name": "MINTER_ROLE",
      "outputs": [
        {
          "internalType": "bytes32",
          "name": "",
          "type": "bytes32"
        }
      ],
      "stateMutability": "view",
      "type": "function"
    },
    {
      "inputs": [
        {
          "internalType": "address",
          "name": "account",
          "type": "address"
        },
        {
          "internalType": "uint256",
          "name": "id",
          "type": "uint256"
        }
      ],
      "name": "balanceOf",
      "outputs": [
        {
          "internalType": "uint256",
          "name": "",
          "type": "uint256"
        }
      ],
      "stateMutability": "view",
      "type": "function"
    },
    {
      "inputs": [
        {
          "internalType": "address[]",
          "name": "accounts",
          "type": "address[]"
        },
        {
          "internalType": "uint256[]",
          "name": "ids",
          "type": "uint256[]"
        }
      ],
      "name": "balanceOfBatch",
      "outputs": [
        {
          "internalType": "uint256[]",
          "name": "",
          "type": "uint256[]"
        }
      ],
      "stateMutability": "view",
      "type": "function"
    },
    {
      "inputs": [
        {
          "internalType": "address",
          "name": "from",
          "type": "address"
        },
        {
          "internalType": "uint256",
          "name": "id",
          "type": "uint256"
        },
        {
          "internalType": "uint256",
          "name": "value",
          "type": "uint256"
        }
      ],
      "name": "burn",
      "outputs": [],
      "stateMutability": "nonpayable",
      "type": "function"
    },
    {
      "inputs": [
        {
          "internalType": "address",
          "name": "from",
          "type": "address"
        },
        {
          "internalType": "uint256[]",
          "name": "ids",
          "type": "uint256[]"
        },
        {
          "internalType": "uint256[]",
          "name": "values",
          "type": "uint256[]"
        }
      ],
      "name": "burnBatch",
      "outputs": [],
      "stateMutability": "nonpayable",
      "type": "function"
    },
    {
      "inputs": [],
      "name": "contractURI",
      "outputs": [
        {
          "internalType": "string",
          "name": "",
          "type": "string"
        }
      ],
      "stateMutability": "pure",
      "type": "function"
    },
    {
      "inputs": [
        {
          "internalType": "address",
          "name": "_initialOwner",
          "type": "address"
        },
        {
          "internalType": "uint256",
          "name": "_id",
          "type": "uint256"
        },
        {
          "internalType": "uint256",
          "name": "_initialSupply",
          "type": "uint256"
        },
        {
          "internalType": "string",
          "name": "_uri",
          "type": "string"
        },
        {
          "internalType": "bytes",
          "name": "_data",
          "type": "bytes"
        }
      ],
      "name": "create",
      "outputs": [
        {
          "internalType": "uint256",
          "name": "",
          "type": "uint256"
        }
      ],
      "stateMutability": "nonpayable",
      "type": "function"
    },
    {
      "inputs": [
        {
          "internalType": "uint256",
          "name": "_id",
          "type": "uint256"
        }
      ],
      "name": "creatorOf",
      "outputs": [
        {
          "internalType": "address",
          "name": "",
          "type": "address"
        }
      ],
      "stateMutability": "view",
      "type": "function"
    },
    {
      "inputs": [
        {
          "internalType": "uint256",
          "name": "",
          "type": "uint256"
        }
      ],
      "name": "creators",
      "outputs": [
        {
          "internalType": "address",
          "name": "",
          "type": "address"
        }
      ],
      "stateMutability": "view",
      "type": "function"
    },
    {
      "inputs": [
        {
          "internalType": "bytes32",
          "name": "role",
          "type": "bytes32"
        }
      ],
      "name": "getRoleAdmin",
      "outputs": [
        {
          "internalType": "bytes32",
          "name": "",
          "type": "bytes32"
        }
      ],
      "stateMutability": "view",
      "type": "function"
    },
    {
      "inputs": [
        {
          "internalType": "bytes32",
          "name": "role",
          "type": "bytes32"
        },
        {
          "internalType": "address",
          "name": "account",
          "type": "address"
        }
      ],
      "name": "grantRole",
      "outputs": [],
      "stateMutability": "nonpayable",
      "type": "function"
    },
    {
      "inputs": [
        {
          "internalType": "bytes32",
          "name": "role",
          "type": "bytes32"
        },
        {
          "internalType": "address",
          "name": "account",
          "type": "address"
        }
      ],
      "name": "hasRole",
      "outputs": [
        {
          "internalType": "bool",
          "name": "",
          "type": "bool"
        }
      ],
      "stateMutability": "view",
      "type": "function"
    },
    {
      "inputs": [
        {
          "internalType": "address",
          "name": "account",
          "type": "address"
        },
        {
          "internalType": "address",
          "name": "operator",
          "type": "address"
        }
      ],
      "name": "isApprovedForAll",
      "outputs": [
        {
          "internalType": "bool",
          "name": "",
          "type": "bool"
        }
      ],
      "stateMutability": "view",
      "type": "function"
    },
    {
      "inputs": [
        {
          "internalType": "address",
          "name": "_to",
          "type": "address"
        },
        {
          "internalType": "uint256",
          "name": "_id",
          "type": "uint256"
        },
        {
          "internalType": "uint256",
          "name": "_quantity",
          "type": "uint256"
        },
        {
          "internalType": "bytes",
          "name": "_data",
          "type": "bytes"
        }
      ],
      "name": "mint",
      "outputs": [],
      "stateMutability": "nonpayable",
      "type": "function"
    },
    {
      "inputs": [
        {
          "internalType": "address",
          "name": "_to",
          "type": "address"
        },
        {
          "internalType": "uint256[]",
          "name": "_ids",
          "type": "uint256[]"
        },
        {
          "internalType": "uint256[]",
          "name": "_quantities",
          "type": "uint256[]"
        },
        {
          "internalType": "bytes",
          "name": "_data",
          "type": "bytes"
        }
      ],
      "name": "mintBatch",
      "outputs": [],
      "stateMutability": "nonpayable",
      "type": "function"
    },
    {
      "inputs": [],
      "name": "name",
      "outputs": [
        {
          "internalType": "string",
          "name": "",
          "type": "string"
        }
      ],
      "stateMutability": "view",
      "type": "function"
    },
    {
      "inputs": [],
      "name": "owner",
      "outputs": [
        {
          "internalType": "address",
          "name": "",
          "type": "address"
        }
      ],
      "stateMutability": "view",
      "type": "function"
    },
    {
      "inputs": [],
      "name": "renounceOwnership",
      "outputs": [],
      "stateMutability": "nonpayable",
      "type": "function"
    },
    {
      "inputs": [
        {
          "internalType": "bytes32",
          "name": "role",
          "type": "bytes32"
        },
        {
          "internalType": "address",
          "name": "account",
          "type": "address"
        }
      ],
      "name": "renounceRole",
      "outputs": [],
      "stateMutability": "nonpayable",
      "type": "function"
    },
    {
      "inputs": [
        {
          "internalType": "bytes32",
          "name": "role",
          "type": "bytes32"
        },
        {
          "internalType": "address",
          "name": "account",
          "type": "address"
        }
      ],
      "name": "revokeRole",
      "outputs": [],
      "stateMutability": "nonpayable",
      "type": "function"
    },
    {
      "inputs": [
        {
          "internalType": "uint256",
          "name": "_tokenId",
          "type": "uint256"
        },
        {
          "internalType": "uint256",
          "name": "_salePrice",
          "type": "uint256"
        }
      ],
      "name": "royaltyInfo",
      "outputs": [
        {
          "internalType": "address",
          "name": "",
          "type": "address"
        },
        {
          "internalType": "uint256",
          "name": "",
          "type": "uint256"
        }
      ],
      "stateMutability": "view",
      "type": "function"
    },
    {
      "inputs": [
        {
          "internalType": "address",
          "name": "from",
          "type": "address"
        },
        {
          "internalType": "address",
          "name": "to",
          "type": "address"
        },
        {
          "internalType": "uint256[]",
          "name": "ids",
          "type": "uint256[]"
        },
        {
          "internalType": "uint256[]",
          "name": "amounts",
          "type": "uint256[]"
        },
        {
          "internalType": "bytes",
          "name": "data",
          "type": "bytes"
        }
      ],
      "name": "safeBatchTransferFrom",
      "outputs": [],
      "stateMutability": "nonpayable",
      "type": "function"
    },
    {
      "inputs": [
        {
          "internalType": "address",
          "name": "from",
          "type": "address"
        },
        {
          "internalType": "address",
          "name": "to",
          "type": "address"
        },
        {
          "internalType": "uint256",
          "name": "id",
          "type": "uint256"
        },
        {
          "internalType": "uint256",
          "name": "amount",
          "type": "uint256"
        },
        {
          "internalType": "bytes",
          "name": "data",
          "type": "bytes"
        }
      ],
      "name": "safeTransferFrom",
      "outputs": [],
      "stateMutability": "nonpayable",
      "type": "function"
    },
    {
      "inputs": [
        {
          "internalType": "address",
          "name": "operator",
          "type": "address"
        },
        {
          "internalType": "bool",
          "name": "approved",
          "type": "bool"
        }
      ],
      "name": "setApprovalForAll",
      "outputs": [],
      "stateMutability": "nonpayable",
      "type": "function"
    },
    {
      "inputs": [
        {
          "internalType": "address",
          "name": "_to",
          "type": "address"
        },
        {
          "internalType": "uint256[]",
          "name": "_ids",
          "type": "uint256[]"
        }
      ],
      "name": "setCreator",
      "outputs": [],
      "stateMutability": "nonpayable",
      "type": "function"
    },
    {
      "inputs": [
        {
          "internalType": "uint256",
          "name": "_tokenId",
          "type": "uint256"
        },
        {
          "internalType": "string",
          "name": "_newURI",
          "type": "string"
        }
      ],
      "name": "setCustomURI",
      "outputs": [],
      "stateMutability": "nonpayable",
      "type": "function"
    },
    {
      "inputs": [
        {
          "internalType": "address",
          "name": "_recipient",
          "type": "address"
        },
        {
          "internalType": "uint96",
          "name": "value",
          "type": "uint96"
        }
      ],
      "name": "setRoyalties",
      "outputs": [],
      "stateMutability": "nonpayable",
      "type": "function"
    },
    {
      "inputs": [
        {
          "internalType": "uint256",
          "name": "tokenId",
          "type": "uint256"
        },
        {
          "internalType": "address",
          "name": "receiver",
          "type": "address"
        },
        {
          "internalType": "uint96",
          "name": "feeNumerator",
          "type": "uint96"
        }
      ],
      "name": "setTokenRoyalty",
      "outputs": [],
      "stateMutability": "nonpayable",
      "type": "function"
    },
    {
      "inputs": [
        {
          "internalType": "string",
          "name": "_newURI",
          "type": "string"
        }
      ],
      "name": "setURI",
      "outputs": [],
      "stateMutability": "nonpayable",
      "type": "function"
    },
    {
      "inputs": [
        {
          "internalType": "bytes4",
          "name": "interfaceId",
          "type": "bytes4"
        }
      ],
      "name": "supportsInterface",
      "outputs": [
        {
          "internalType": "bool",
          "name": "",
          "type": "bool"
        }
      ],
      "stateMutability": "view",
      "type": "function"
    },
    {
      "inputs": [],
      "name": "symbol",
      "outputs": [
        {
          "internalType": "string",
          "name": "",
          "type": "string"
        }
      ],
      "stateMutability": "view",
      "type": "function"
    },
    {
      "inputs": [
        {
          "internalType": "uint256",
          "name": "",
          "type": "uint256"
        }
      ],
      "name": "tokenSupply",
      "outputs": [
        {
          "internalType": "uint256",
          "name": "",
          "type": "uint256"
        }
      ],
      "stateMutability": "view",
      "type": "function"
    },
    {
      "inputs": [
        {
          "internalType": "uint256",
          "name": "_id",
          "type": "uint256"
        }
      ],
      "name": "totalSupply",
      "outputs": [
        {
          "internalType": "uint256",
          "name": "",
          "type": "uint256"
        }
      ],
      "stateMutability": "view",
      "type": "function"
    },
    {
      "inputs": [
        {
          "internalType": "address",
          "name": "newOwner",
          "type": "address"
        }
      ],
      "name": "transferOwnership",
      "outputs": [],
      "stateMutability": "nonpayable",
      "type": "function"
    },
    {
      "inputs": [
        {
          "internalType": "uint256",
          "name": "_id",
          "type": "uint256"
        }
      ],
      "name": "uri",
      "outputs": [
        {
          "internalType": "string",
          "name": "",
          "type": "string"
        }
      ],
      "stateMutability": "view",
      "type": "function"
    }
  ],
  "bytecode": "0x60806040523480156200001157600080fd5b5060405162003e8038038062003e808339810160408190526200003491620004a9565b826200004081620000c8565b506200004c33620000e1565b6200005960003362000133565b620000857f9f2df0fed2c77648de5860a4cc508cd0818c85b8b8a1ab4ceeef8d981c8956a63362000133565b84516200009a90600a90602088019062000350565b508351620000b090600b90602087019062000350565b50620000bd82826200013f565b5050505050620005cc565b8051620000dd90600290602084019062000350565b5050565b600380546001600160a01b038381166001600160a01b0319831681179093556040519116919082907f8be0079c531659141344cd1fd0a4f28419497f9722a3daafe3b4186f6b6457e090600090a35050565b620000dd8282620001ab565b6003546001600160a01b031633146200019f5760405162461bcd60e51b815260206004820181905260248201527f4f776e61626c653a2063616c6c6572206973206e6f7420746865206f776e657260448201526064015b60405180910390fd5b620000dd82826200024f565b60008281526006602090815260408083206001600160a01b038516845290915290205460ff16620000dd5760008281526006602090815260408083206001600160a01b03851684529091529020805460ff191660011790556200020b3390565b6001600160a01b0316816001600160a01b0316837f2f8788117e7eff1d82e926ec794901d17c78024a50270940304540a733656f0d60405160405180910390a45050565b6127106001600160601b0382161115620002bf5760405162461bcd60e51b815260206004820152602a60248201527f455243323938313a20726f79616c7479206665652077696c6c206578636565646044820152692073616c65507269636560b01b606482015260840162000196565b6001600160a01b038216620003175760405162461bcd60e51b815260206004820152601960248201527f455243323938313a20696e76616c696420726563656976657200000000000000604482015260640162000196565b604080518082019091526001600160a01b039092168083526001600160601b039091166020909201829052600160a01b90910217600455565b8280546200035e9062000579565b90600052602060002090601f016020900481019282620003825760008555620003cd565b82601f106200039d57805160ff1916838001178555620003cd565b82800160010185558215620003cd579182015b82811115620003cd578251825591602001919060010190620003b0565b50620003db929150620003df565b5090565b5b80821115620003db5760008155600101620003e0565b600082601f83011262000407578081fd5b81516001600160401b0380821115620004245762000424620005b6565b604051601f8301601f19908116603f011681019082821181831017156200044f576200044f620005b6565b816040528381526020925086838588010111156200046b578485fd5b8491505b838210156200048e57858201830151818301840152908201906200046f565b838211156200049f57848385830101525b9695505050505050565b600080600080600060a08688031215620004c1578081fd5b85516001600160401b0380821115620004d8578283fd5b620004e689838a01620003f6565b96506020880151915080821115620004fc578283fd5b6200050a89838a01620003f6565b9550604088015191508082111562000520578283fd5b506200052f88828901620003f6565b606088015190945090506001600160a01b03811681146200054e578182fd5b60808701519092506001600160601b03811681146200056b578182fd5b809150509295509295909350565b600181811c908216806200058e57607f821691505b60208210811415620005b057634e487b7160e01b600052602260045260246000fd5b50919050565b634e487b7160e01b600052604160045260246000fd5b6138a480620005dc6000396000f3fe608060405234801561001057600080fd5b506004361061021b5760003560e01c8063715018a611610125578063cd53d08e116100ad578063e8a3d4851161007c578063e8a3d4851461051f578063e985e9c514610533578063f242432a1461056f578063f2fde38b14610582578063f5298aca1461059557600080fd5b8063cd53d08e146104a9578063d2a6b51a146104d2578063d5391393146104e5578063d547741f1461050c57600080fd5b806395d89b41116100f457806395d89b4114610453578063a217fddf1461045b578063a22cb46514610463578063bd85b03914610476578063c21b471b1461049657600080fd5b8063715018a614610414578063731133e91461041c5780638da5cb5b1461042f57806391d148541461044057600080fd5b80632eb2c2d6116101a85780633adf80b4116101775780633adf80b41461037a5780634e1273f41461038d578063589a1743146103ad5780635944c753146103ee5780636b20c4541461040157600080fd5b80632eb2c2d61461032e5780632f2ff15d1461034157806336568abe1461035457806336a100d51461036757600080fd5b80630e89341c116101ef5780630e89341c146102935780631f7fdffa146102a6578063248a9ca3146102b95780632693ebf2146102dc5780632a55205a146102fc57600080fd5b8062fdd58e1461022057806301ffc9a71461024657806302fe53051461026957806306fdde031461027e575b600080fd5b61023361022e366004612c58565b6105a8565b6040519081526020015b60405180910390f35b610259610254366004612e7d565b610642565b604051901515815260200161023d565b61027c610277366004612eb5565b61064d565b005b610286610683565b60405161023d919061319c565b6102866102a1366004612e43565b610711565b61027c6102b4366004612b8a565b610904565b6102336102c7366004612e43565b60009081526006602052604090206001015490565b6102336102ea366004612e43565b60086020526000908152604090205481565b61030f61030a366004612f5c565b610a47565b604080516001600160a01b03909316835260208301919091520161023d565b61027c61033c3660046129c8565b610af3565b61027c61034f366004612e5b565b610b8a565b61027c610362366004612e5b565b610bb5565b610233610375366004612d05565b610c33565b61027c610388366004612f22565b610d66565b6103a061039b366004612d83565b610dfb565b60405161023d919061315b565b6103d66103bb366004612e43565b6000908152600760205260409020546001600160a01b031690565b6040516001600160a01b03909116815260200161023d565b61027c6103fc366004612ee7565b610f5c565b61027c61040f366004612b1a565b610fd8565b61027c61101b565b61027c61042a366004612cb3565b611051565b6003546001600160a01b03166103d6565b61025961044e366004612e5b565b6110c7565b6102866110f2565b610233600081565b61027c610471366004612c1e565b6110ff565b610233610484366004612e43565b60009081526008602052604090205490565b61027c6104a4366004612d5a565b61110a565b6103d66104b7366004612e43565b6007602052600090815260409020546001600160a01b031681565b61027c6104e0366004612acf565b61113e565b6102337f9f2df0fed2c77648de5860a4cc508cd0818c85b8b8a1ab4ceeef8d981c8956a681565b61027c61051a366004612e5b565b6111f5565b604080516020810190915260008152610286565b610259610541366004612996565b6001600160a01b03918216600090815260016020908152604080832093909416825291909152205460ff1690565b61027c61057d366004612a6d565b61121b565b61027c61059036600461297c565b611260565b61027c6105a3366004612c81565b6112f8565b60006001600160a01b0383166106195760405162461bcd60e51b815260206004820152602b60248201527f455243313135353a2062616c616e636520717565727920666f7220746865207a60448201526a65726f206164647265737360a81b60648201526084015b60405180910390fd5b506000818152602081815260408083206001600160a01b03861684529091529020545b92915050565b600061063c8261133b565b6003546001600160a01b031633146106775760405162461bcd60e51b81526004016106109061339f565b61068081611360565b50565b600a8054610690906136e5565b80601f01602080910402602001604051908101604052809291908181526020018280546106bc906136e5565b80156107095780601f106106de57610100808354040283529160200191610709565b820191906000526020600020905b8154815290600101906020018083116106ec57829003601f168201915b505050505081565b6000818152600760205260409020546060906001600160a01b03166107785760405162461bcd60e51b815260206004820152601e60248201527f45524331313535237572693a204e4f4e4558495354454e545f544f4b454e00006044820152606401610610565b60008281526009602052604081208054610791906136e5565b80601f01602080910402602001604051908101604052809291908181526020018280546107bd906136e5565b801561080a5780601f106107df5761010080835404028352916020019161080a565b820191906000526020600020905b8154815290600101906020018083116107ed57829003601f168201915b505050505090506000815111156108ba5760008381526009602052604090208054610834906136e5565b80601f0160208091040260200160405190810160405280929190818152602001828054610860906136e5565b80156108ad5780601f10610882576101008083540402835291602001916108ad565b820191906000526020600020905b81548152906001019060200180831161089057829003601f168201915b5050505050915050919050565b6108c383611373565b6108cc30611407565b6108d58561156a565b6040516020016108e793929190612fe3565b604051602081830303815290604052915050919050565b50919050565b60005b8351811015610a3457600084828151811061093257634e487b7160e01b600052603260045260246000fd5b602002602001015190506109433390565b6000828152600760205260409020546001600160a01b039081169116146109bc5760405162461bcd60e51b815260206004820152602760248201527f45524331313535236d696e7442617463683a204f4e4c595f43524541544f525f60448201526610531313d5d15160ca1b6064820152608401610610565b60008483815181106109de57634e487b7160e01b600052603260045260246000fd5b60200260200101519050610a0e81600860008581526020019081526020016000205461168b90919063ffffffff16565b600092835260086020526040909220919091555080610a2c81613746565b915050610907565b50610a418484848461169e565b50505050565b60008281526005602090815260408083208151808301909252546001600160a01b038116808352600160a01b9091046001600160601b0316928201929092528291610abc5750604080518082019091526004546001600160a01b0381168252600160a01b90046001600160601b031660208201525b602081015160009061271090610adb906001600160601b031687613628565b610ae59190613507565b915196919550909350505050565b6001600160a01b038516331480610b0f5750610b0f8533610541565b610b765760405162461bcd60e51b815260206004820152603260248201527f455243313135353a207472616e736665722063616c6c6572206973206e6f74206044820152711bdddb995c881b9bdc88185c1c1c9bdd995960721b6064820152608401610610565b610b838585858585611805565b5050505050565b600082815260066020526040902060010154610ba681336119bd565b610bb08383611a21565b505050565b6001600160a01b0381163314610c255760405162461bcd60e51b815260206004820152602f60248201527f416363657373436f6e74726f6c3a2063616e206f6e6c792072656e6f756e636560448201526e103937b632b9903337b91039b2b63360891b6064820152608401610610565b610c2f8282611aa7565b5050565b6003546000906001600160a01b03163314610c605760405162461bcd60e51b81526004016106109061339f565b6000858152600760205260409020546001600160a01b031615610cc55760405162461bcd60e51b815260206004820152601860248201527f746f6b656e205f696420616c72656164792065786973747300000000000000006044820152606401610610565b600085815260076020526040902080546001600160a01b03191633179055825115610d435760008581526009602090815260409091208451610d09928601906127d3565b50847f6bb7ff708619ba0610cba295a58592e0451dee2622938c8755667688daf3529b84604051610d3a919061319c565b60405180910390a25b610d4f86868685611b0e565b505050600082815260086020526040902055919050565b60008281526007602052604090205482906001600160a01b03163314610d9e5760405162461bcd60e51b815260040161061090613284565b60008381526009602090815260409091208351610dbd928501906127d3565b50827f6bb7ff708619ba0610cba295a58592e0451dee2622938c8755667688daf3529b83604051610dee919061319c565b60405180910390a2505050565b60608151835114610e605760405162461bcd60e51b815260206004820152602960248201527f455243313135353a206163636f756e747320616e6420696473206c656e677468604482015268040dad2e6dac2e8c6d60bb1b6064820152608401610610565b600083516001600160401b03811115610e8957634e487b7160e01b600052604160045260246000fd5b604051908082528060200260200182016040528015610eb2578160200160208202803683370190505b50905060005b8451811015610f5457610f19858281518110610ee457634e487b7160e01b600052603260045260246000fd5b6020026020010151858381518110610f0c57634e487b7160e01b600052603260045260246000fd5b60200260200101516105a8565b828281518110610f3957634e487b7160e01b600052603260045260246000fd5b6020908102919091010152610f4d81613746565b9050610eb8565b509392505050565b6000838152600760205260409020546001600160a01b03163314610fcd5760405162461bcd60e51b815260206004820152602260248201527f426f6f6b4e46543a204f6e6c7920746f6b656e206f776e657220616c6c6f7765604482015261321760f11b6064820152608401610610565b610bb0838383611bde565b6001600160a01b038316331480610ff45750610ff48333610541565b6110105760405162461bcd60e51b81526004016106109061323b565b610bb0838383611ca9565b6003546001600160a01b031633146110455760405162461bcd60e51b81526004016106109061339f565b61104f6000611e41565b565b60008381526007602052604090205483906001600160a01b031633146110895760405162461bcd60e51b815260040161061090613284565b61109585858585611b0e565b6000848152600860205260409020546110ae908461168b565b6000948552600860205260409094209390935550505050565b60009182526006602090815260408084206001600160a01b0393909316845291905290205460ff1690565b600b8054610690906136e5565b610c2f338383611e93565b6003546001600160a01b031633146111345760405162461bcd60e51b81526004016106109061339f565b610c2f8282611f74565b6001600160a01b0382166111a05760405162461bcd60e51b8152602060048201526024808201527f455243313135352373657443726561746f723a20494e56414c49445f4144445260448201526322a9a99760e11b6064820152608401610610565b60005b8151811015610bb05760008282815181106111ce57634e487b7160e01b600052603260045260246000fd5b602002602001015190506111e2848261202e565b50806111ed81613746565b9150506111a3565b60008281526006602052604090206001015461121181336119bd565b610bb08383611aa7565b6001600160a01b03851633148061123757506112378533610541565b6112535760405162461bcd60e51b81526004016106109061323b565b610b838585858585612095565b6003546001600160a01b0316331461128a5760405162461bcd60e51b81526004016106109061339f565b6001600160a01b0381166112ef5760405162461bcd60e51b815260206004820152602660248201527f4f776e61626c653a206e6577206f776e657220697320746865207a65726f206160448201526564647265737360d01b6064820152608401610610565b61068081611e41565b6001600160a01b03831633148061131457506113148333610541565b6113305760405162461bcd60e51b81526004016106109061323b565b610bb08383836121b2565b60006001600160e01b03198216637965db0b60e01b148061063c575061063c826122b4565b8051610c2f9060029060208401906127d3565b606060028054611382906136e5565b80601f01602080910402602001604051908101604052809291908181526020018280546113ae906136e5565b80156113fb5780601f106113d0576101008083540402835291602001916113fb565b820191906000526020600020905b8154815290600101906020018083116113de57829003601f168201915b50505050509050919050565b60408051602880825260608281019093526000919060208201818036833701905050905060005b6014811015611563576000611444826013613668565b61144f906008613628565b61145a906002613580565b61146d906001600160a01b038716613507565b60f81b9050600060108260f81c611484919061351b565b60f81b905060008160f81c601061149b9190613647565b8360f81c6114a9919061367f565b60f81b90506114b7826122d9565b856114c3866002613628565b815181106114e157634e487b7160e01b600052603260045260246000fd5b60200101906001600160f81b031916908160001a905350611501816122d9565b8561150d866002613628565b6115189060016134ca565b8151811061153657634e487b7160e01b600052603260045260246000fd5b60200101906001600160f81b031916908160001a905350505050808061155b90613746565b91505061142e565b5092915050565b60608161158e5750506040805180820190915260018152600360fc1b602082015290565b8160005b81156115b857806115a281613746565b91506115b19050600a83613507565b9150611592565b6000816001600160401b038111156115e057634e487b7160e01b600052604160045260246000fd5b6040519080825280601f01601f19166020018201604052801561160a576020820181803683370190505b5090505b84156116835761161f600183613668565b915061162c600a86613761565b6116379060306134ca565b60f81b81838151811061165a57634e487b7160e01b600052603260045260246000fd5b60200101906001600160f81b031916908160001a90535061167c600a86613507565b945061160e565b949350505050565b600061169782846134ca565b9392505050565b6001600160a01b0384166116c45760405162461bcd60e51b815260040161061090613466565b81518351146116e55760405162461bcd60e51b81526004016106109061341e565b3360005b845181101561179d5783818151811061171257634e487b7160e01b600052603260045260246000fd5b602002602001015160008087848151811061173d57634e487b7160e01b600052603260045260246000fd5b602002602001015181526020019081526020016000206000886001600160a01b03166001600160a01b03168152602001908152602001600020600082825461178591906134ca565b9091555081905061179581613746565b9150506116e9565b50846001600160a01b031660006001600160a01b0316826001600160a01b03167f4a39dc06d4c0dbc64b70af90fd698a233a518aa5d07e595d983b8c0526c8f7fb87876040516117ee92919061316e565b60405180910390a4610b8381600087878787612314565b81518351146118265760405162461bcd60e51b81526004016106109061341e565b6001600160a01b03841661184c5760405162461bcd60e51b8152600401610610906132cd565b3360005b845181101561194f57600085828151811061187b57634e487b7160e01b600052603260045260246000fd5b6020026020010151905060008583815181106118a757634e487b7160e01b600052603260045260246000fd5b602090810291909101810151600084815280835260408082206001600160a01b038e1683529093529190912054909150818110156118f75760405162461bcd60e51b815260040161061090613355565b6000838152602081815260408083206001600160a01b038e8116855292528083208585039055908b168252812080548492906119349084906134ca565b925050819055505050508061194890613746565b9050611850565b50846001600160a01b0316866001600160a01b0316826001600160a01b03167f4a39dc06d4c0dbc64b70af90fd698a233a518aa5d07e595d983b8c0526c8f7fb878760405161199f92919061316e565b60405180910390a46119b5818787878787612314565b505050505050565b6119c782826110c7565b610c2f576119df816001600160a01b0316601461247f565b6119ea83602061247f565b6040516020016119fb929190613043565b60408051601f198184030181529082905262461bcd60e51b82526106109160040161319c565b611a2b82826110c7565b610c2f5760008281526006602090815260408083206001600160a01b03851684529091529020805460ff19166001179055611a633390565b6001600160a01b0316816001600160a01b0316837f2f8788117e7eff1d82e926ec794901d17c78024a50270940304540a733656f0d60405160405180910390a45050565b611ab182826110c7565b15610c2f5760008281526006602090815260408083206001600160a01b0385168085529252808320805460ff1916905551339285917ff6391f5c32d9c69d2a47ea670b442974b53935d1edc7fd64eb21e047a839171b9190a45050565b6001600160a01b038416611b345760405162461bcd60e51b815260040161061090613466565b33611b4e81600087611b4588612660565b610b8388612660565b6000848152602081815260408083206001600160a01b038916845290915281208054859290611b7e9084906134ca565b909155505060408051858152602081018590526001600160a01b0380881692600092918516917fc3d58168c5ae7397731d063d5bbf3d657854427343f4c083240f7aacaa2d0f62910160405180910390a4610b83816000878787876126b9565b6127106001600160601b0382161115611c095760405162461bcd60e51b8152600401610610906133d4565b6001600160a01b038216611c5f5760405162461bcd60e51b815260206004820152601b60248201527f455243323938313a20496e76616c696420706172616d657465727300000000006044820152606401610610565b6040805180820182526001600160a01b0393841681526001600160601b0392831660208083019182526000968752600590529190942093519051909116600160a01b029116179055565b6001600160a01b038316611ccf5760405162461bcd60e51b815260040161061090613312565b8051825114611cf05760405162461bcd60e51b81526004016106109061341e565b604080516020810190915260009081905233905b8351811015611de2576000848281518110611d2f57634e487b7160e01b600052603260045260246000fd5b602002602001015190506000848381518110611d5b57634e487b7160e01b600052603260045260246000fd5b602090810291909101810151600084815280835260408082206001600160a01b038c168352909352919091205490915081811015611dab5760405162461bcd60e51b8152600401610610906131f7565b6000928352602083815260408085206001600160a01b038b1686529091529092209103905580611dda81613746565b915050611d04565b5060006001600160a01b0316846001600160a01b0316826001600160a01b03167f4a39dc06d4c0dbc64b70af90fd698a233a518aa5d07e595d983b8c0526c8f7fb8686604051611e3392919061316e565b60405180910390a450505050565b600380546001600160a01b038381166001600160a01b0319831681179093556040519116919082907f8be0079c531659141344cd1fd0a4f28419497f9722a3daafe3b4186f6b6457e090600090a35050565b816001600160a01b0316836001600160a01b03161415611f075760405162461bcd60e51b815260206004820152602960248201527f455243313135353a2073657474696e6720617070726f76616c20737461747573604482015268103337b91039b2b63360b91b6064820152608401610610565b6001600160a01b03838116600081815260016020908152604080832094871680845294825291829020805460ff191686151590811790915591519182527f17307eab39ab6107e8899845ad3d59bd9653f200f220920489ca2b5937696c31910160405180910390a3505050565b6127106001600160601b0382161115611f9f5760405162461bcd60e51b8152600401610610906133d4565b6001600160a01b038216611ff55760405162461bcd60e51b815260206004820152601960248201527f455243323938313a20696e76616c6964207265636569766572000000000000006044820152606401610610565b604080518082019091526001600160a01b039092168083526001600160601b039091166020909201829052600160a01b90910217600455565b60008181526007602052604090205481906001600160a01b031633146120665760405162461bcd60e51b815260040161061090613284565b50600090815260076020526040902080546001600160a01b0319166001600160a01b0392909216919091179055565b6001600160a01b0384166120bb5760405162461bcd60e51b8152600401610610906132cd565b336120cb818787611b4588612660565b6000848152602081815260408083206001600160a01b038a1684529091529020548381101561210c5760405162461bcd60e51b815260040161061090613355565b6000858152602081815260408083206001600160a01b038b81168552925280832087850390559088168252812080548692906121499084906134ca565b909155505060408051868152602081018690526001600160a01b03808916928a821692918616917fc3d58168c5ae7397731d063d5bbf3d657854427343f4c083240f7aacaa2d0f62910160405180910390a46121a98288888888886126b9565b50505050505050565b6001600160a01b0383166121d85760405162461bcd60e51b815260040161061090613312565b33612208818560006121e987612660565b6121f287612660565b5050604080516020810190915260009052505050565b6000838152602081815260408083206001600160a01b0388168452909152902054828110156122495760405162461bcd60e51b8152600401610610906131f7565b6000848152602081815260408083206001600160a01b03898116808652918452828520888703905582518981529384018890529092908616917fc3d58168c5ae7397731d063d5bbf3d657854427343f4c083240f7aacaa2d0f62910160405180910390a45050505050565b60006001600160e01b0319821663152a902d60e11b148061063c575061063c82612783565b6000600a60f883901c1015612300576122f760f883901c60306134e2565b60f81b92915050565b6122f760f883901c60576134e2565b919050565b6001600160a01b0384163b156119b55760405163bc197c8160e01b81526001600160a01b0385169063bc197c819061235890899089908890889088906004016130b8565b602060405180830381600087803b15801561237257600080fd5b505af19250505080156123a2575060408051601f3d908101601f1916820190925261239f91810190612e99565b60015b61244f576123ae6137b7565b806308c379a014156123e857506123c36137cf565b806123ce57506123ea565b8060405162461bcd60e51b8152600401610610919061319c565b505b60405162461bcd60e51b815260206004820152603460248201527f455243313135353a207472616e7366657220746f206e6f6e20455243313135356044820152732932b1b2b4bb32b91034b6b83632b6b2b73a32b960611b6064820152608401610610565b6001600160e01b0319811663bc197c8160e01b146121a95760405162461bcd60e51b8152600401610610906131af565b6060600061248e836002613628565b6124999060026134ca565b6001600160401b038111156124be57634e487b7160e01b600052604160045260246000fd5b6040519080825280601f01601f1916602001820160405280156124e8576020820181803683370190505b509050600360fc1b8160008151811061251157634e487b7160e01b600052603260045260246000fd5b60200101906001600160f81b031916908160001a905350600f60fb1b8160018151811061254e57634e487b7160e01b600052603260045260246000fd5b60200101906001600160f81b031916908160001a9053506000612572846002613628565b61257d9060016134ca565b90505b6001811115612611576f181899199a1a9b1b9c1cb0b131b232b360811b85600f16601081106125bf57634e487b7160e01b600052603260045260246000fd5b1a60f81b8282815181106125e357634e487b7160e01b600052603260045260246000fd5b60200101906001600160f81b031916908160001a90535060049490941c9361260a816136ce565b9050612580565b5083156116975760405162461bcd60e51b815260206004820181905260248201527f537472696e67733a20686578206c656e67746820696e73756666696369656e746044820152606401610610565b604080516001808252818301909252606091600091906020808301908036833701905050905082816000815181106126a857634e487b7160e01b600052603260045260246000fd5b602090810291909101015292915050565b6001600160a01b0384163b156119b55760405163f23a6e6160e01b81526001600160a01b0385169063f23a6e61906126fd9089908990889088908890600401613116565b602060405180830381600087803b15801561271757600080fd5b505af1925050508015612747575060408051601f3d908101601f1916820190925261274491810190612e99565b60015b612753576123ae6137b7565b6001600160e01b0319811663f23a6e6160e01b146121a95760405162461bcd60e51b8152600401610610906131af565b60006001600160e01b03198216636cdb3d1360e11b14806127b457506001600160e01b031982166303a24d0760e21b145b8061063c57506301ffc9a760e01b6001600160e01b031983161461063c565b8280546127df906136e5565b90600052602060002090601f0160209004810192826128015760008555612847565b82601f1061281a57805160ff1916838001178555612847565b82800160010185558215612847579182015b8281111561284757825182559160200191906001019061282c565b50612853929150612857565b5090565b5b808211156128535760008155600101612858565b80356001600160a01b038116811461230f57600080fd5b600082601f830112612893578081fd5b813560206128a0826134a7565b6040516128ad828261371a565b8381528281019150858301600585901b870184018810156128cc578586fd5b855b858110156128ea578135845292840192908401906001016128ce565b5090979650505050505050565b600082601f830112612907578081fd5b81356001600160401b03811115612920576129206137a1565b604051612937601f8301601f19166020018261371a565b81815284602083860101111561294b578283fd5b816020850160208301379081016020019190915292915050565b80356001600160601b038116811461230f57600080fd5b60006020828403121561298d578081fd5b6116978261286c565b600080604083850312156129a8578081fd5b6129b18361286c565b91506129bf6020840161286c565b90509250929050565b600080600080600060a086880312156129df578081fd5b6129e88661286c565b94506129f66020870161286c565b935060408601356001600160401b0380821115612a11578283fd5b612a1d89838a01612883565b94506060880135915080821115612a32578283fd5b612a3e89838a01612883565b93506080880135915080821115612a53578283fd5b50612a60888289016128f7565b9150509295509295909350565b600080600080600060a08688031215612a84578081fd5b612a8d8661286c565b9450612a9b6020870161286c565b9350604086013592506060860135915060808601356001600160401b03811115612ac3578182fd5b612a60888289016128f7565b60008060408385031215612ae1578182fd5b612aea8361286c565b915060208301356001600160401b03811115612b04578182fd5b612b1085828601612883565b9150509250929050565b600080600060608486031215612b2e578283fd5b612b378461286c565b925060208401356001600160401b0380821115612b52578384fd5b612b5e87838801612883565b93506040860135915080821115612b73578283fd5b50612b8086828701612883565b9150509250925092565b60008060008060808587031215612b9f578182fd5b612ba88561286c565b935060208501356001600160401b0380821115612bc3578384fd5b612bcf88838901612883565b94506040870135915080821115612be4578384fd5b612bf088838901612883565b93506060870135915080821115612c05578283fd5b50612c12878288016128f7565b91505092959194509250565b60008060408385031215612c30578182fd5b612c398361286c565b915060208301358015158114612c4d578182fd5b809150509250929050565b60008060408385031215612c6a578182fd5b612c738361286c565b946020939093013593505050565b600080600060608486031215612c95578081fd5b612c9e8461286c565b95602085013595506040909401359392505050565b60008060008060808587031215612cc8578182fd5b612cd18561286c565b9350602085013592506040850135915060608501356001600160401b03811115612cf9578182fd5b612c12878288016128f7565b600080600080600060a08688031215612d1c578283fd5b612d258661286c565b9450602086013593506040860135925060608601356001600160401b0380821115612d4e578283fd5b612a3e89838a016128f7565b60008060408385031215612d6c578182fd5b612d758361286c565b91506129bf60208401612965565b60008060408385031215612d95578182fd5b82356001600160401b0380821115612dab578384fd5b818501915085601f830112612dbe578384fd5b81356020612dcb826134a7565b604051612dd8828261371a565b8381528281019150858301600585901b870184018b1015612df7578889fd5b8896505b84871015612e2057612e0c8161286c565b835260019690960195918301918301612dfb565b5096505086013592505080821115612e36578283fd5b50612b1085828601612883565b600060208284031215612e54578081fd5b5035919050565b60008060408385031215612e6d578182fd5b823591506129bf6020840161286c565b600060208284031215612e8e578081fd5b813561169781613858565b600060208284031215612eaa578081fd5b815161169781613858565b600060208284031215612ec6578081fd5b81356001600160401b03811115612edb578182fd5b611683848285016128f7565b600080600060608486031215612efb578081fd5b83359250612f0b6020850161286c565b9150612f1960408501612965565b90509250925092565b60008060408385031215612f34578182fd5b8235915060208301356001600160401b03811115612f50578182fd5b612b10858286016128f7565b60008060408385031215612f6e578182fd5b50508035926020909101359150565b6000815180845260208085019450808401835b83811015612fac57815187529582019590820190600101612f90565b509495945050505050565b60008151808452612fcf8160208601602086016136a2565b601f01601f19169290920160200192915050565b60008451612ff58184602089016136a2565b61060f60f31b90830190815284516130148160028401602089016136a2565b602f60f81b6002929091019182015283516130368160038401602088016136a2565b0160030195945050505050565b7f416363657373436f6e74726f6c3a206163636f756e742000000000000000000081526000835161307b8160178501602088016136a2565b7001034b99036b4b9b9b4b733903937b6329607d1b60179184019182015283516130ac8160288401602088016136a2565b01602801949350505050565b6001600160a01b0386811682528516602082015260a0604082018190526000906130e490830186612f7d565b82810360608401526130f68186612f7d565b9050828103608084015261310a8185612fb7565b98975050505050505050565b6001600160a01b03868116825285166020820152604081018490526060810183905260a06080820181905260009061315090830184612fb7565b979650505050505050565b6020815260006116976020830184612f7d565b6040815260006131816040830185612f7d565b82810360208401526131938185612f7d565b95945050505050565b6020815260006116976020830184612fb7565b60208082526028908201527f455243313135353a204552433131353552656365697665722072656a656374656040820152676420746f6b656e7360c01b606082015260800190565b60208082526024908201527f455243313135353a206275726e20616d6f756e7420657863656564732062616c604082015263616e636560e01b606082015260800190565b60208082526029908201527f455243313135353a2063616c6c6572206973206e6f74206f776e6572206e6f7260408201526808185c1c1c9bdd995960ba1b606082015260800190565b60208082526029908201527f455243313135352363726561746f724f6e6c793a204f4e4c595f43524541544f6040820152681497d0531313d5d15160ba1b606082015260800190565b60208082526025908201527f455243313135353a207472616e7366657220746f20746865207a65726f206164604082015264647265737360d81b606082015260800190565b60208082526023908201527f455243313135353a206275726e2066726f6d20746865207a65726f206164647260408201526265737360e81b606082015260800190565b6020808252602a908201527f455243313135353a20696e73756666696369656e742062616c616e636520666f60408201526939103a3930b739b332b960b11b606082015260800190565b6020808252818101527f4f776e61626c653a2063616c6c6572206973206e6f7420746865206f776e6572604082015260600190565b6020808252602a908201527f455243323938313a20726f79616c7479206665652077696c6c206578636565646040820152692073616c65507269636560b01b606082015260800190565b60208082526028908201527f455243313135353a2069647320616e6420616d6f756e7473206c656e677468206040820152670dad2e6dac2e8c6d60c31b606082015260800190565b60208082526021908201527f455243313135353a206d696e7420746f20746865207a65726f206164647265736040820152607360f81b606082015260800190565b60006001600160401b038211156134c0576134c06137a1565b5060051b60200190565b600082198211156134dd576134dd613775565b500190565b600060ff821660ff84168060ff038211156134ff576134ff613775565b019392505050565b6000826135165761351661378b565b500490565b600060ff83168061352e5761352e61378b565b8060ff84160491505092915050565b600181815b8085111561357857816000190482111561355e5761355e613775565b8085161561356b57918102915b93841c9390800290613542565b509250929050565b600061169783836000826135965750600161063c565b816135a35750600061063c565b81600181146135b957600281146135c3576135df565b600191505061063c565b60ff8411156135d4576135d4613775565b50506001821b61063c565b5060208310610133831016604e8410600b8410161715613602575081810a61063c565b61360c838361353d565b806000190482111561362057613620613775565b029392505050565b600081600019048311821515161561364257613642613775565b500290565b600060ff821660ff84168160ff048111821515161561362057613620613775565b60008282101561367a5761367a613775565b500390565b600060ff821660ff84168082101561369957613699613775565b90039392505050565b60005b838110156136bd5781810151838201526020016136a5565b83811115610a415750506000910152565b6000816136dd576136dd613775565b506000190190565b600181811c908216806136f957607f821691505b602082108114156108fe57634e487b7160e01b600052602260045260246000fd5b601f8201601f191681016001600160401b038111828210171561373f5761373f6137a1565b6040525050565b600060001982141561375a5761375a613775565b5060010190565b6000826137705761377061378b565b500690565b634e487b7160e01b600052601160045260246000fd5b634e487b7160e01b600052601260045260246000fd5b634e487b7160e01b600052604160045260246000fd5b600060033d11156137cc57600481823e5160e01c5b90565b600060443d10156137dd5790565b6040516003193d81016004833e81513d6001600160401b03816024840111818411171561380c57505050505090565b82850191508151818111156138245750505050505090565b843d870101602082850101111561383e5750505050505090565b61384d6020828601018761371a565b509095945050505050565b6001600160e01b03198116811461068057600080fdfea2646970667358221220949e7220d9ea5be5b4e42d40f9c7d8d7a80a568d435a082864f02a5c905ee72864736f6c63430008040033",
  "linkReferences": {},
  "deployedLinkReferences": {}
}