{
  "_format": "hh-sol-artifact-1",
  "contractName": "BookNFT",
  "sourceName": "contracts/Tokens/BookNFT.sol",
  "abi": [
    {
      "inputs": [
        {
          "internalType": "string",
          "name": "_name",
          "type": "string"
        },
        {
          "internalType": "string",
          "name": "_symbol",
          "type": "string"
        },
        {
          "internalType": "string",
          "name": "_uri",
          "type": "string"
        },
        {
          "internalType": "address",
          "name": "_recipient",
          "type": "address"
        },
        {
          "internalType": "uint96",
          "name": "_royaltyAmount",
          "type": "uint96"
        }
      ],
      "stateMutability": "nonpayable",
      "type": "constructor"
    },
    {
      "anonymous": false,
      "inputs": [
        {
          "indexed": true,
          "internalType": "address",
          "name": "account",
          "type": "address"
        },
        {
          "indexed": true,
          "internalType": "address",
          "name": "operator",
          "type": "address"
        },
        {
          "indexed": false,
          "internalType": "bool",
          "name": "approved",
          "type": "bool"
        }
      ],
      "name": "ApprovalForAll",
      "type": "event"
    },
    {
      "anonymous": false,
      "inputs": [
        {
          "indexed": true,
          "internalType": "address",
          "name": "previousOwner",
          "type": "address"
        },
        {
          "indexed": true,
          "internalType": "address",
          "name": "newOwner",
          "type": "address"
        }
      ],
      "name": "OwnershipTransferred",
      "type": "event"
    },
    {
      "anonymous": false,
      "inputs": [
        {
          "indexed": true,
          "internalType": "bytes32",
          "name": "role",
          "type": "bytes32"
        },
        {
          "indexed": true,
          "internalType": "bytes32",
          "name": "previousAdminRole",
          "type": "bytes32"
        },
        {
          "indexed": true,
          "internalType": "bytes32",
          "name": "newAdminRole",
          "type": "bytes32"
        }
      ],
      "name": "RoleAdminChanged",
      "type": "event"
    },
    {
      "anonymous": false,
      "inputs": [
        {
          "indexed": true,
          "internalType": "bytes32",
          "name": "role",
          "type": "bytes32"
        },
        {
          "indexed": true,
          "internalType": "address",
          "name": "account",
          "type": "address"
        },
        {
          "indexed": true,
          "internalType": "address",
          "name": "sender",
          "type": "address"
        }
      ],
      "name": "RoleGranted",
      "type": "event"
    },
    {
      "anonymous": false,
      "inputs": [
        {
          "indexed": true,
          "internalType": "bytes32",
          "name": "role",
          "type": "bytes32"
        },
        {
          "indexed": true,
          "internalType": "address",
          "name": "account",
          "type": "address"
        },
        {
          "indexed": true,
          "internalType": "address",
          "name": "sender",
          "type": "address"
        }
      ],
      "name": "RoleRevoked",
      "type": "event"
    },
    {
      "anonymous": false,
      "inputs": [
        {
          "indexed": true,
          "internalType": "address",
          "name": "operator",
          "type": "address"
        },
        {
          "indexed": true,
          "internalType": "address",
          "name": "from",
          "type": "address"
        },
        {
          "indexed": true,
          "internalType": "address",
          "name": "to",
          "type": "address"
        },
        {
          "indexed": false,
          "internalType": "uint256[]",
          "name": "ids",
          "type": "uint256[]"
        },
        {
          "indexed": false,
          "internalType": "uint256[]",
          "name": "values",
          "type": "uint256[]"
        }
      ],
      "name": "TransferBatch",
      "type": "event"
    },
    {
      "anonymous": false,
      "inputs": [
        {
          "indexed": true,
          "internalType": "address",
          "name": "operator",
          "type": "address"
        },
        {
          "indexed": true,
          "internalType": "address",
          "name": "from",
          "type": "address"
        },
        {
          "indexed": true,
          "internalType": "address",
          "name": "to",
          "type": "address"
        },
        {
          "indexed": false,
          "internalType": "uint256",
          "name": "id",
          "type": "uint256"
        },
        {
          "indexed": false,
          "internalType": "uint256",
          "name": "value",
          "type": "uint256"
        }
      ],
      "name": "TransferSingle",
      "type": "event"
    },
    {
      "anonymous": false,
      "inputs": [
        {
          "indexed": false,
          "internalType": "string",
          "name": "value",
          "type": "string"
        },
        {
          "indexed": true,
          "internalType": "uint256",
          "name": "id",
          "type": "uint256"
        }
      ],
      "name": "URI",
      "type": "event"
    },
    {
      "inputs": [],
      "name": "DEFAULT_ADMIN_ROLE",
      "outputs": [
        {
          "internalType": "bytes32",
          "name": "",
          "type": "bytes32"
        }
      ],
      "stateMutability": "view",
      "type": "function"
    },
    {
      "inputs": [],
      "name": "MINTER_ROLE",
      "outputs": [
        {
          "internalType": "bytes32",
          "name": "",
          "type": "bytes32"
        }
      ],
      "stateMutability": "view",
      "type": "function"
    },
    {
      "inputs": [
        {
          "internalType": "address",
          "name": "account",
          "type": "address"
        },
        {
          "internalType": "uint256",
          "name": "id",
          "type": "uint256"
        }
      ],
      "name": "balanceOf",
      "outputs": [
        {
          "internalType": "uint256",
          "name": "",
          "type": "uint256"
        }
      ],
      "stateMutability": "view",
      "type": "function"
    },
    {
      "inputs": [
        {
          "internalType": "address[]",
          "name": "accounts",
          "type": "address[]"
        },
        {
          "internalType": "uint256[]",
          "name": "ids",
          "type": "uint256[]"
        }
      ],
      "name": "balanceOfBatch",
      "outputs": [
        {
          "internalType": "uint256[]",
          "name": "",
          "type": "uint256[]"
        }
      ],
      "stateMutability": "view",
      "type": "function"
    },
    {
      "inputs": [
        {
          "internalType": "address",
          "name": "from",
          "type": "address"
        },
        {
          "internalType": "uint256",
          "name": "id",
          "type": "uint256"
        },
        {
          "internalType": "uint256",
          "name": "value",
          "type": "uint256"
        }
      ],
      "name": "burn",
      "outputs": [],
      "stateMutability": "nonpayable",
      "type": "function"
    },
    {
      "inputs": [
        {
          "internalType": "address",
          "name": "from",
          "type": "address"
        },
        {
          "internalType": "uint256[]",
          "name": "ids",
          "type": "uint256[]"
        },
        {
          "internalType": "uint256[]",
          "name": "values",
          "type": "uint256[]"
        }
      ],
      "name": "burnBatch",
      "outputs": [],
      "stateMutability": "nonpayable",
      "type": "function"
    },
    {
      "inputs": [],
      "name": "contractURI",
      "outputs": [
        {
          "internalType": "string",
          "name": "",
          "type": "string"
        }
      ],
      "stateMutability": "pure",
      "type": "function"
    },
    {
      "inputs": [
        {
          "internalType": "address",
          "name": "_initialOwner",
          "type": "address"
        },
        {
          "internalType": "uint256",
          "name": "_id",
          "type": "uint256"
        },
        {
          "internalType": "uint256",
          "name": "_initialSupply",
          "type": "uint256"
        },
        {
          "internalType": "string",
          "name": "_uri",
          "type": "string"
        },
        {
          "internalType": "bytes",
          "name": "_data",
          "type": "bytes"
        }
      ],
      "name": "create",
      "outputs": [
        {
          "internalType": "uint256",
          "name": "",
          "type": "uint256"
        }
      ],
      "stateMutability": "nonpayable",
      "type": "function"
    },
    {
      "inputs": [
        {
          "internalType": "uint256",
          "name": "_id",
          "type": "uint256"
        }
      ],
      "name": "creatorOf",
      "outputs": [
        {
          "internalType": "address",
          "name": "",
          "type": "address"
        }
      ],
      "stateMutability": "view",
      "type": "function"
    },
    {
      "inputs": [
        {
          "internalType": "uint256",
          "name": "",
          "type": "uint256"
        }
      ],
      "name": "creators",
      "outputs": [
        {
          "internalType": "address",
          "name": "",
          "type": "address"
        }
      ],
      "stateMutability": "view",
      "type": "function"
    },
    {
      "inputs": [
        {
          "internalType": "bytes32",
          "name": "role",
          "type": "bytes32"
        }
      ],
      "name": "getRoleAdmin",
      "outputs": [
        {
          "internalType": "bytes32",
          "name": "",
          "type": "bytes32"
        }
      ],
      "stateMutability": "view",
      "type": "function"
    },
    {
      "inputs": [
        {
          "internalType": "bytes32",
          "name": "role",
          "type": "bytes32"
        },
        {
          "internalType": "address",
          "name": "account",
          "type": "address"
        }
      ],
      "name": "grantRole",
      "outputs": [],
      "stateMutability": "nonpayable",
      "type": "function"
    },
    {
      "inputs": [
        {
          "internalType": "bytes32",
          "name": "role",
          "type": "bytes32"
        },
        {
          "internalType": "address",
          "name": "account",
          "type": "address"
        }
      ],
      "name": "hasRole",
      "outputs": [
        {
          "internalType": "bool",
          "name": "",
          "type": "bool"
        }
      ],
      "stateMutability": "view",
      "type": "function"
    },
    {
      "inputs": [
        {
          "internalType": "address",
          "name": "account",
          "type": "address"
        },
        {
          "internalType": "address",
          "name": "operator",
          "type": "address"
        }
      ],
      "name": "isApprovedForAll",
      "outputs": [
        {
          "internalType": "bool",
          "name": "",
          "type": "bool"
        }
      ],
      "stateMutability": "view",
      "type": "function"
    },
    {
      "inputs": [
        {
          "internalType": "address",
          "name": "_to",
          "type": "address"
        },
        {
          "internalType": "uint256",
          "name": "_id",
          "type": "uint256"
        },
        {
          "internalType": "uint256",
          "name": "_quantity",
          "type": "uint256"
        },
        {
          "internalType": "bytes",
          "name": "_data",
          "type": "bytes"
        }
      ],
      "name": "mint",
      "outputs": [],
      "stateMutability": "nonpayable",
      "type": "function"
    },
    {
      "inputs": [
        {
          "internalType": "address",
          "name": "_to",
          "type": "address"
        },
        {
          "internalType": "uint256[]",
          "name": "_ids",
          "type": "uint256[]"
        },
        {
          "internalType": "uint256[]",
          "name": "_quantities",
          "type": "uint256[]"
        },
        {
          "internalType": "bytes",
          "name": "_data",
          "type": "bytes"
        }
      ],
      "name": "mintBatch",
      "outputs": [],
      "stateMutability": "nonpayable",
      "type": "function"
    },
    {
      "inputs": [],
      "name": "name",
      "outputs": [
        {
          "internalType": "string",
          "name": "",
          "type": "string"
        }
      ],
      "stateMutability": "view",
      "type": "function"
    },
    {
      "inputs": [],
      "name": "owner",
      "outputs": [
        {
          "internalType": "address",
          "name": "",
          "type": "address"
        }
      ],
      "stateMutability": "view",
      "type": "function"
    },
    {
      "inputs": [],
      "name": "renounceOwnership",
      "outputs": [],
      "stateMutability": "nonpayable",
      "type": "function"
    },
    {
      "inputs": [
        {
          "internalType": "bytes32",
          "name": "role",
          "type": "bytes32"
        },
        {
          "internalType": "address",
          "name": "account",
          "type": "address"
        }
      ],
      "name": "renounceRole",
      "outputs": [],
      "stateMutability": "nonpayable",
      "type": "function"
    },
    {
      "inputs": [
        {
          "internalType": "bytes32",
          "name": "role",
          "type": "bytes32"
        },
        {
          "internalType": "address",
          "name": "account",
          "type": "address"
        }
      ],
      "name": "revokeRole",
      "outputs": [],
      "stateMutability": "nonpayable",
      "type": "function"
    },
    {
      "inputs": [
        {
          "internalType": "uint256",
          "name": "_tokenId",
          "type": "uint256"
        },
        {
          "internalType": "uint256",
          "name": "_salePrice",
          "type": "uint256"
        }
      ],
      "name": "royaltyInfo",
      "outputs": [
        {
          "internalType": "address",
          "name": "",
          "type": "address"
        },
        {
          "internalType": "uint256",
          "name": "",
          "type": "uint256"
        }
      ],
      "stateMutability": "view",
      "type": "function"
    },
    {
      "inputs": [
        {
          "internalType": "address",
          "name": "from",
          "type": "address"
        },
        {
          "internalType": "address",
          "name": "to",
          "type": "address"
        },
        {
          "internalType": "uint256[]",
          "name": "ids",
          "type": "uint256[]"
        },
        {
          "internalType": "uint256[]",
          "name": "amounts",
          "type": "uint256[]"
        },
        {
          "internalType": "bytes",
          "name": "data",
          "type": "bytes"
        }
      ],
      "name": "safeBatchTransferFrom",
      "outputs": [],
      "stateMutability": "nonpayable",
      "type": "function"
    },
    {
      "inputs": [
        {
          "internalType": "address",
          "name": "from",
          "type": "address"
        },
        {
          "internalType": "address",
          "name": "to",
          "type": "address"
        },
        {
          "internalType": "uint256",
          "name": "id",
          "type": "uint256"
        },
        {
          "internalType": "uint256",
          "name": "amount",
          "type": "uint256"
        },
        {
          "internalType": "bytes",
          "name": "data",
          "type": "bytes"
        }
      ],
      "name": "safeTransferFrom",
      "outputs": [],
      "stateMutability": "nonpayable",
      "type": "function"
    },
    {
      "inputs": [
        {
          "internalType": "address",
          "name": "operator",
          "type": "address"
        },
        {
          "internalType": "bool",
          "name": "approved",
          "type": "bool"
        }
      ],
      "name": "setApprovalForAll",
      "outputs": [],
      "stateMutability": "nonpayable",
      "type": "function"
    },
    {
      "inputs": [
        {
          "internalType": "address",
          "name": "_to",
          "type": "address"
        },
        {
          "internalType": "uint256[]",
          "name": "_ids",
          "type": "uint256[]"
        }
      ],
      "name": "setCreator",
      "outputs": [],
      "stateMutability": "nonpayable",
      "type": "function"
    },
    {
      "inputs": [
        {
          "internalType": "uint256",
          "name": "_tokenId",
          "type": "uint256"
        },
        {
          "internalType": "string",
          "name": "_newURI",
          "type": "string"
        }
      ],
      "name": "setCustomURI",
      "outputs": [],
      "stateMutability": "nonpayable",
      "type": "function"
    },
    {
      "inputs": [
        {
          "internalType": "address",
          "name": "_recipient",
          "type": "address"
        },
        {
          "internalType": "uint96",
          "name": "value",
          "type": "uint96"
        }
      ],
      "name": "setRoyalties",
      "outputs": [],
      "stateMutability": "nonpayable",
      "type": "function"
    },
    {
      "inputs": [
        {
          "internalType": "uint256",
          "name": "tokenId",
          "type": "uint256"
        },
        {
          "internalType": "address",
          "name": "receiver",
          "type": "address"
        },
        {
          "internalType": "uint96",
          "name": "feeNumerator",
          "type": "uint96"
        }
      ],
      "name": "setTokenRoyalty",
      "outputs": [],
      "stateMutability": "nonpayable",
      "type": "function"
    },
    {
      "inputs": [
        {
          "internalType": "string",
          "name": "_newURI",
          "type": "string"
        }
      ],
      "name": "setURI",
      "outputs": [],
      "stateMutability": "nonpayable",
      "type": "function"
    },
    {
      "inputs": [
        {
          "internalType": "bytes4",
          "name": "interfaceId",
          "type": "bytes4"
        }
      ],
      "name": "supportsInterface",
      "outputs": [
        {
          "internalType": "bool",
          "name": "",
          "type": "bool"
        }
      ],
      "stateMutability": "view",
      "type": "function"
    },
    {
      "inputs": [],
      "name": "symbol",
      "outputs": [
        {
          "internalType": "string",
          "name": "",
          "type": "string"
        }
      ],
      "stateMutability": "view",
      "type": "function"
    },
    {
      "inputs": [
        {
          "internalType": "uint256",
          "name": "",
          "type": "uint256"
        }
      ],
      "name": "tokenSupply",
      "outputs": [
        {
          "internalType": "uint256",
          "name": "",
          "type": "uint256"
        }
      ],
      "stateMutability": "view",
      "type": "function"
    },
    {
      "inputs": [
        {
          "internalType": "uint256",
          "name": "_id",
          "type": "uint256"
        }
      ],
      "name": "totalSupply",
      "outputs": [
        {
          "internalType": "uint256",
          "name": "",
          "type": "uint256"
        }
      ],
      "stateMutability": "view",
      "type": "function"
    },
    {
      "inputs": [
        {
          "internalType": "address",
          "name": "newOwner",
          "type": "address"
        }
      ],
      "name": "transferOwnership",
      "outputs": [],
      "stateMutability": "nonpayable",
      "type": "function"
    },
    {
      "inputs": [
        {
          "internalType": "uint256",
          "name": "_id",
          "type": "uint256"
        }
      ],
      "name": "uri",
      "outputs": [
        {
          "internalType": "string",
          "name": "",
          "type": "string"
        }
      ],
      "stateMutability": "view",
      "type": "function"
    }
  ],
  "bytecode": "0x60806040523480156200001157600080fd5b50604051620039ff380380620039ff8339810160408190526200003491620004a9565b826200004081620000c8565b506200004c33620000e1565b6200005960003362000133565b620000857f9f2df0fed2c77648de5860a4cc508cd0818c85b8b8a1ab4ceeef8d981c8956a63362000133565b84516200009a90600a90602088019062000350565b508351620000b090600b90602087019062000350565b50620000bd82826200013f565b5050505050620005cc565b8051620000dd90600290602084019062000350565b5050565b600380546001600160a01b038381166001600160a01b0319831681179093556040519116919082907f8be0079c531659141344cd1fd0a4f28419497f9722a3daafe3b4186f6b6457e090600090a35050565b620000dd8282620001ab565b6003546001600160a01b031633146200019f5760405162461bcd60e51b815260206004820181905260248201527f4f776e61626c653a2063616c6c6572206973206e6f7420746865206f776e657260448201526064015b60405180910390fd5b620000dd82826200024f565b60008281526006602090815260408083206001600160a01b038516845290915290205460ff16620000dd5760008281526006602090815260408083206001600160a01b03851684529091529020805460ff191660011790556200020b3390565b6001600160a01b0316816001600160a01b0316837f2f8788117e7eff1d82e926ec794901d17c78024a50270940304540a733656f0d60405160405180910390a45050565b6127106001600160601b0382161115620002bf5760405162461bcd60e51b815260206004820152602a60248201527f455243323938313a20726f79616c7479206665652077696c6c206578636565646044820152692073616c65507269636560b01b606482015260840162000196565b6001600160a01b038216620003175760405162461bcd60e51b815260206004820152601960248201527f455243323938313a20696e76616c696420726563656976657200000000000000604482015260640162000196565b604080518082019091526001600160a01b039092168083526001600160601b039091166020909201829052600160a01b90910217600455565b8280546200035e9062000579565b90600052602060002090601f016020900481019282620003825760008555620003cd565b82601f106200039d57805160ff1916838001178555620003cd565b82800160010185558215620003cd579182015b82811115620003cd578251825591602001919060010190620003b0565b50620003db929150620003df565b5090565b5b80821115620003db5760008155600101620003e0565b600082601f83011262000407578081fd5b81516001600160401b0380821115620004245762000424620005b6565b604051601f8301601f19908116603f011681019082821181831017156200044f576200044f620005b6565b816040528381526020925086838588010111156200046b578485fd5b8491505b838210156200048e57858201830151818301840152908201906200046f565b838211156200049f57848385830101525b9695505050505050565b600080600080600060a08688031215620004c1578081fd5b85516001600160401b0380821115620004d8578283fd5b620004e689838a01620003f6565b96506020880151915080821115620004fc578283fd5b6200050a89838a01620003f6565b9550604088015191508082111562000520578283fd5b506200052f88828901620003f6565b606088015190945090506001600160a01b03811681146200054e578182fd5b60808701519092506001600160601b03811681146200056b578182fd5b809150509295509295909350565b600181811c908216806200058e57607f821691505b60208210811415620005b057634e487b7160e01b600052602260045260246000fd5b50919050565b634e487b7160e01b600052604160045260246000fd5b61342380620005dc6000396000f3fe608060405234801561001057600080fd5b506004361061021b5760003560e01c8063715018a611610125578063cd53d08e116100ad578063e8a3d4851161007c578063e8a3d4851461051f578063e985e9c514610533578063f242432a1461056f578063f2fde38b14610582578063f5298aca1461059557600080fd5b8063cd53d08e146104a9578063d2a6b51a146104d2578063d5391393146104e5578063d547741f1461050c57600080fd5b806395d89b41116100f457806395d89b4114610453578063a217fddf1461045b578063a22cb46514610463578063bd85b03914610476578063c21b471b1461049657600080fd5b8063715018a614610414578063731133e91461041c5780638da5cb5b1461042f57806391d148541461044057600080fd5b80632eb2c2d6116101a85780633adf80b4116101775780633adf80b41461037a5780634e1273f41461038d578063589a1743146103ad5780635944c753146103ee5780636b20c4541461040157600080fd5b80632eb2c2d61461032e5780632f2ff15d1461034157806336568abe1461035457806336a100d51461036757600080fd5b80630e89341c116101ef5780630e89341c146102935780631f7fdffa146102a6578063248a9ca3146102b95780632693ebf2146102dc5780632a55205a146102fc57600080fd5b8062fdd58e1461022057806301ffc9a71461024657806302fe53051461026957806306fdde031461027e575b600080fd5b61023361022e366004612991565b6105a8565b6040519081526020015b60405180910390f35b610259610254366004612bb6565b61063f565b604051901515815260200161023d565b61027c610277366004612bee565b610650565b005b610286610686565b60405161023d9190612ec6565b6102866102a1366004612b7c565b610714565b61027c6102b43660046128c3565b6108f7565b6102336102c7366004612b7c565b60009081526006602052604090206001015490565b6102336102ea366004612b7c565b60086020526000908152604090205481565b61030f61030a366004612c9d565b610a3a565b604080516001600160a01b03909316835260208301919091520161023d565b61027c61033c366004612701565b610ae6565b61027c61034f366004612b94565b610b7d565b61027c610362366004612b94565b610ba8565b610233610375366004612a3e565b610c26565b61027c610388366004612c63565b610d59565b6103a061039b366004612abc565b610dee565b60405161023d9190612e85565b6103d66103bb366004612b7c565b6000908152600760205260409020546001600160a01b031690565b6040516001600160a01b03909116815260200161023d565b61027c6103fc366004612c28565b610f4f565b61027c61040f366004612853565b610fcb565b61027c61100e565b61027c61042a3660046129ec565b611044565b6003546001600160a01b03166103d6565b61025961044e366004612b94565b6110ba565b6102866110e5565b610233600081565b61027c610471366004612957565b6110f2565b610233610484366004612b7c565b60009081526008602052604090205490565b61027c6104a4366004612a93565b6110fd565b6103d66104b7366004612b7c565b6007602052600090815260409020546001600160a01b031681565b61027c6104e0366004612808565b611131565b6102337f9f2df0fed2c77648de5860a4cc508cd0818c85b8b8a1ab4ceeef8d981c8956a681565b61027c61051a366004612b94565b6111e8565b604080516020810190915260008152610286565b6102596105413660046126cf565b6001600160a01b03918216600090815260016020908152604080832093909416825291909152205460ff1690565b61027c61057d3660046127a6565b61120e565b61027c6105903660046126b5565b611253565b61027c6105a33660046129ba565b6112eb565b60006001600160a01b0383166106195760405162461bcd60e51b815260206004820152602b60248201527f455243313135353a2062616c616e636520717565727920666f7220746865207a60448201526a65726f206164647265737360a81b60648201526084015b60405180910390fd5b506000908152602081815260408083206001600160a01b03949094168352929052205490565b600061064a8261132e565b92915050565b6003546001600160a01b0316331461067a5760405162461bcd60e51b8152600401610610906130c9565b61068381611353565b50565b600a80546106939061328e565b80601f01602080910402602001604051908101604052809291908181526020018280546106bf9061328e565b801561070c5780601f106106e15761010080835404028352916020019161070c565b820191906000526020600020905b8154815290600101906020018083116106ef57829003601f168201915b505050505081565b6000818152600760205260409020546060906001600160a01b031661077b5760405162461bcd60e51b815260206004820152601e60248201527f45524331313535237572693a204e4f4e4558495354454e545f544f4b454e00006044820152606401610610565b600082815260096020526040812080546107949061328e565b80601f01602080910402602001604051908101604052809291908181526020018280546107c09061328e565b801561080d5780601f106107e25761010080835404028352916020019161080d565b820191906000526020600020905b8154815290600101906020018083116107f057829003601f168201915b505050505090506000815111156108bd57600083815260096020526040902080546108379061328e565b80601f01602080910402602001604051908101604052809291908181526020018280546108639061328e565b80156108b05780601f10610885576101008083540402835291602001916108b0565b820191906000526020600020905b81548152906001019060200180831161089357829003601f168201915b5050505050915050919050565b6108c683611366565b30846040516020016108da93929190612d24565b604051602081830303815290604052915050919050565b50919050565b60005b8351811015610a2757600084828151811061092557634e487b7160e01b600052603260045260246000fd5b602002602001015190506109363390565b6000828152600760205260409020546001600160a01b039081169116146109af5760405162461bcd60e51b815260206004820152602760248201527f45524331313535236d696e7442617463683a204f4e4c595f43524541544f525f60448201526610531313d5d15160ca1b6064820152608401610610565b60008483815181106109d157634e487b7160e01b600052603260045260246000fd5b60200260200101519050610a018160086000858152602001908152602001600020546113fa90919063ffffffff16565b600092835260086020526040909220919091555080610a1f816132ef565b9150506108fa565b50610a348484848461140d565b50505050565b60008281526005602090815260408083208151808301909252546001600160a01b038116808352600160a01b9091046001600160601b0316928201929092528291610aaf5750604080518082019091526004546001600160a01b0381168252600160a01b90046001600160601b031660208201525b602081015160009061271090610ace906001600160601b03168761322c565b610ad8919061320c565b915196919550909350505050565b6001600160a01b038516331480610b025750610b028533610541565b610b695760405162461bcd60e51b815260206004820152603260248201527f455243313135353a207472616e736665722063616c6c6572206973206e6f74206044820152711bdddb995c881b9bdc88185c1c1c9bdd995960721b6064820152608401610610565b610b768585858585611574565b5050505050565b600082815260066020526040902060010154610b99813361172c565b610ba38383611790565b505050565b6001600160a01b0381163314610c185760405162461bcd60e51b815260206004820152602f60248201527f416363657373436f6e74726f6c3a2063616e206f6e6c792072656e6f756e636560448201526e103937b632b9903337b91039b2b63360891b6064820152608401610610565b610c228282611816565b5050565b6003546000906001600160a01b03163314610c535760405162461bcd60e51b8152600401610610906130c9565b6000858152600760205260409020546001600160a01b031615610cb85760405162461bcd60e51b815260206004820152601860248201527f746f6b656e205f696420616c72656164792065786973747300000000000000006044820152606401610610565b600085815260076020526040902080546001600160a01b03191633179055825115610d365760008581526009602090815260409091208451610cfc92860190612507565b50847f6bb7ff708619ba0610cba295a58592e0451dee2622938c8755667688daf3529b84604051610d2d9190612ec6565b60405180910390a25b610d428686868561187d565b505050600082815260086020526040902055919050565b60008281526007602052604090205482906001600160a01b03163314610d915760405162461bcd60e51b815260040161061090612fae565b60008381526009602090815260409091208351610db092850190612507565b50827f6bb7ff708619ba0610cba295a58592e0451dee2622938c8755667688daf3529b83604051610de19190612ec6565b60405180910390a2505050565b60608151835114610e535760405162461bcd60e51b815260206004820152602960248201527f455243313135353a206163636f756e747320616e6420696473206c656e677468604482015268040dad2e6dac2e8c6d60bb1b6064820152608401610610565b600083516001600160401b03811115610e7c57634e487b7160e01b600052604160045260246000fd5b604051908082528060200260200182016040528015610ea5578160200160208202803683370190505b50905060005b8451811015610f4757610f0c858281518110610ed757634e487b7160e01b600052603260045260246000fd5b6020026020010151858381518110610eff57634e487b7160e01b600052603260045260246000fd5b60200260200101516105a8565b828281518110610f2c57634e487b7160e01b600052603260045260246000fd5b6020908102919091010152610f40816132ef565b9050610eab565b509392505050565b6000838152600760205260409020546001600160a01b03163314610fc05760405162461bcd60e51b815260206004820152602260248201527f426f6f6b4e46543a204f6e6c7920746f6b656e206f776e657220616c6c6f7765604482015261321760f11b6064820152608401610610565b610ba383838361194d565b6001600160a01b038316331480610fe75750610fe78333610541565b6110035760405162461bcd60e51b815260040161061090612f65565b610ba3838383611a18565b6003546001600160a01b031633146110385760405162461bcd60e51b8152600401610610906130c9565b6110426000611bb0565b565b60008381526007602052604090205483906001600160a01b0316331461107c5760405162461bcd60e51b815260040161061090612fae565b6110888585858561187d565b6000848152600860205260409020546110a190846113fa565b6000948552600860205260409094209390935550505050565b60009182526006602090815260408084206001600160a01b0393909316845291905290205460ff1690565b600b80546106939061328e565b610c22338383611c02565b6003546001600160a01b031633146111275760405162461bcd60e51b8152600401610610906130c9565b610c228282611ce3565b6001600160a01b0382166111935760405162461bcd60e51b8152602060048201526024808201527f455243313135352373657443726561746f723a20494e56414c49445f4144445260448201526322a9a99760e11b6064820152608401610610565b60005b8151811015610ba35760008282815181106111c157634e487b7160e01b600052603260045260246000fd5b602002602001015190506111d58482611d9d565b50806111e0816132ef565b915050611196565b600082815260066020526040902060010154611204813361172c565b610ba38383611816565b6001600160a01b03851633148061122a575061122a8533610541565b6112465760405162461bcd60e51b815260040161061090612f65565b610b768585858585611e04565b6003546001600160a01b0316331461127d5760405162461bcd60e51b8152600401610610906130c9565b6001600160a01b0381166112e25760405162461bcd60e51b815260206004820152602660248201527f4f776e61626c653a206e6577206f776e657220697320746865207a65726f206160448201526564647265737360d01b6064820152608401610610565b61068381611bb0565b6001600160a01b03831633148061130757506113078333610541565b6113235760405162461bcd60e51b815260040161061090612f65565b610ba3838383611f21565b60006001600160e01b03198216637965db0b60e01b148061064a575061064a82612023565b8051610c22906002906020840190612507565b6060600280546113759061328e565b80601f01602080910402602001604051908101604052809291908181526020018280546113a19061328e565b80156113ee5780601f106113c3576101008083540402835291602001916113ee565b820191906000526020600020905b8154815290600101906020018083116113d157829003601f168201915b50505050509050919050565b600061140682846131f4565b9392505050565b6001600160a01b0384166114335760405162461bcd60e51b815260040161061090613190565b81518351146114545760405162461bcd60e51b815260040161061090613148565b3360005b845181101561150c5783818151811061148157634e487b7160e01b600052603260045260246000fd5b60200260200101516000808784815181106114ac57634e487b7160e01b600052603260045260246000fd5b602002602001015181526020019081526020016000206000886001600160a01b03166001600160a01b0316815260200190815260200160002060008282546114f491906131f4565b90915550819050611504816132ef565b915050611458565b50846001600160a01b031660006001600160a01b0316826001600160a01b03167f4a39dc06d4c0dbc64b70af90fd698a233a518aa5d07e595d983b8c0526c8f7fb878760405161155d929190612e98565b60405180910390a4610b7681600087878787612048565b81518351146115955760405162461bcd60e51b815260040161061090613148565b6001600160a01b0384166115bb5760405162461bcd60e51b815260040161061090612ff7565b3360005b84518110156116be5760008582815181106115ea57634e487b7160e01b600052603260045260246000fd5b60200260200101519050600085838151811061161657634e487b7160e01b600052603260045260246000fd5b602090810291909101810151600084815280835260408082206001600160a01b038e1683529093529190912054909150818110156116665760405162461bcd60e51b81526004016106109061307f565b6000838152602081815260408083206001600160a01b038e8116855292528083208585039055908b168252812080548492906116a39084906131f4565b92505081905550505050806116b7906132ef565b90506115bf565b50846001600160a01b0316866001600160a01b0316826001600160a01b03167f4a39dc06d4c0dbc64b70af90fd698a233a518aa5d07e595d983b8c0526c8f7fb878760405161170e929190612e98565b60405180910390a4611724818787878787612048565b505050505050565b61173682826110ba565b610c225761174e816001600160a01b031660146121b3565b6117598360206121b3565b60405160200161176a929190612d6d565b60408051601f198184030181529082905262461bcd60e51b825261061091600401612ec6565b61179a82826110ba565b610c225760008281526006602090815260408083206001600160a01b03851684529091529020805460ff191660011790556117d23390565b6001600160a01b0316816001600160a01b0316837f2f8788117e7eff1d82e926ec794901d17c78024a50270940304540a733656f0d60405160405180910390a45050565b61182082826110ba565b15610c225760008281526006602090815260408083206001600160a01b0385168085529252808320805460ff1916905551339285917ff6391f5c32d9c69d2a47ea670b442974b53935d1edc7fd64eb21e047a839171b9190a45050565b6001600160a01b0384166118a35760405162461bcd60e51b815260040161061090613190565b336118bd816000876118b488612394565b610b7688612394565b6000848152602081815260408083206001600160a01b0389168452909152812080548592906118ed9084906131f4565b909155505060408051858152602081018590526001600160a01b0380881692600092918516917fc3d58168c5ae7397731d063d5bbf3d657854427343f4c083240f7aacaa2d0f62910160405180910390a4610b76816000878787876123ed565b6127106001600160601b03821611156119785760405162461bcd60e51b8152600401610610906130fe565b6001600160a01b0382166119ce5760405162461bcd60e51b815260206004820152601b60248201527f455243323938313a20496e76616c696420706172616d657465727300000000006044820152606401610610565b6040805180820182526001600160a01b0393841681526001600160601b0392831660208083019182526000968752600590529190942093519051909116600160a01b029116179055565b6001600160a01b038316611a3e5760405162461bcd60e51b81526004016106109061303c565b8051825114611a5f5760405162461bcd60e51b815260040161061090613148565b604080516020810190915260009081905233905b8351811015611b51576000848281518110611a9e57634e487b7160e01b600052603260045260246000fd5b602002602001015190506000848381518110611aca57634e487b7160e01b600052603260045260246000fd5b602090810291909101810151600084815280835260408082206001600160a01b038c168352909352919091205490915081811015611b1a5760405162461bcd60e51b815260040161061090612f21565b6000928352602083815260408085206001600160a01b038b1686529091529092209103905580611b49816132ef565b915050611a73565b5060006001600160a01b0316846001600160a01b0316826001600160a01b03167f4a39dc06d4c0dbc64b70af90fd698a233a518aa5d07e595d983b8c0526c8f7fb8686604051611ba2929190612e98565b60405180910390a450505050565b600380546001600160a01b038381166001600160a01b0319831681179093556040519116919082907f8be0079c531659141344cd1fd0a4f28419497f9722a3daafe3b4186f6b6457e090600090a35050565b816001600160a01b0316836001600160a01b03161415611c765760405162461bcd60e51b815260206004820152602960248201527f455243313135353a2073657474696e6720617070726f76616c20737461747573604482015268103337b91039b2b63360b91b6064820152608401610610565b6001600160a01b03838116600081815260016020908152604080832094871680845294825291829020805460ff191686151590811790915591519182527f17307eab39ab6107e8899845ad3d59bd9653f200f220920489ca2b5937696c31910160405180910390a3505050565b6127106001600160601b0382161115611d0e5760405162461bcd60e51b8152600401610610906130fe565b6001600160a01b038216611d645760405162461bcd60e51b815260206004820152601960248201527f455243323938313a20696e76616c6964207265636569766572000000000000006044820152606401610610565b604080518082019091526001600160a01b039092168083526001600160601b039091166020909201829052600160a01b90910217600455565b60008181526007602052604090205481906001600160a01b03163314611dd55760405162461bcd60e51b815260040161061090612fae565b50600090815260076020526040902080546001600160a01b0319166001600160a01b0392909216919091179055565b6001600160a01b038416611e2a5760405162461bcd60e51b815260040161061090612ff7565b33611e3a8187876118b488612394565b6000848152602081815260408083206001600160a01b038a16845290915290205483811015611e7b5760405162461bcd60e51b81526004016106109061307f565b6000858152602081815260408083206001600160a01b038b8116855292528083208785039055908816825281208054869290611eb89084906131f4565b909155505060408051868152602081018690526001600160a01b03808916928a821692918616917fc3d58168c5ae7397731d063d5bbf3d657854427343f4c083240f7aacaa2d0f62910160405180910390a4611f188288888888886123ed565b50505050505050565b6001600160a01b038316611f475760405162461bcd60e51b81526004016106109061303c565b33611f7781856000611f5887612394565b611f6187612394565b5050604080516020810190915260009052505050565b6000838152602081815260408083206001600160a01b038816845290915290205482811015611fb85760405162461bcd60e51b815260040161061090612f21565b6000848152602081815260408083206001600160a01b03898116808652918452828520888703905582518981529384018890529092908616917fc3d58168c5ae7397731d063d5bbf3d657854427343f4c083240f7aacaa2d0f62910160405180910390a45050505050565b60006001600160e01b0319821663152a902d60e11b148061064a575061064a826124b7565b6001600160a01b0384163b156117245760405163bc197c8160e01b81526001600160a01b0385169063bc197c819061208c9089908990889088908890600401612de2565b602060405180830381600087803b1580156120a657600080fd5b505af19250505080156120d6575060408051601f3d908101601f191682019092526120d391810190612bd2565b60015b612183576120e2613336565b806308c379a0141561211c57506120f761334e565b80612102575061211e565b8060405162461bcd60e51b81526004016106109190612ec6565b505b60405162461bcd60e51b815260206004820152603460248201527f455243313135353a207472616e7366657220746f206e6f6e20455243313135356044820152732932b1b2b4bb32b91034b6b83632b6b2b73a32b960611b6064820152608401610610565b6001600160e01b0319811663bc197c8160e01b14611f185760405162461bcd60e51b815260040161061090612ed9565b606060006121c283600261322c565b6121cd9060026131f4565b6001600160401b038111156121f257634e487b7160e01b600052604160045260246000fd5b6040519080825280601f01601f19166020018201604052801561221c576020820181803683370190505b509050600360fc1b8160008151811061224557634e487b7160e01b600052603260045260246000fd5b60200101906001600160f81b031916908160001a905350600f60fb1b8160018151811061228257634e487b7160e01b600052603260045260246000fd5b60200101906001600160f81b031916908160001a90535060006122a684600261322c565b6122b19060016131f4565b90505b6001811115612345576f181899199a1a9b1b9c1cb0b131b232b360811b85600f16601081106122f357634e487b7160e01b600052603260045260246000fd5b1a60f81b82828151811061231757634e487b7160e01b600052603260045260246000fd5b60200101906001600160f81b031916908160001a90535060049490941c9361233e81613277565b90506122b4565b5083156114065760405162461bcd60e51b815260206004820181905260248201527f537472696e67733a20686578206c656e67746820696e73756666696369656e746044820152606401610610565b604080516001808252818301909252606091600091906020808301908036833701905050905082816000815181106123dc57634e487b7160e01b600052603260045260246000fd5b602090810291909101015292915050565b6001600160a01b0384163b156117245760405163f23a6e6160e01b81526001600160a01b0385169063f23a6e61906124319089908990889088908890600401612e40565b602060405180830381600087803b15801561244b57600080fd5b505af192505050801561247b575060408051601f3d908101601f1916820190925261247891810190612bd2565b60015b612487576120e2613336565b6001600160e01b0319811663f23a6e6160e01b14611f185760405162461bcd60e51b815260040161061090612ed9565b60006001600160e01b03198216636cdb3d1360e11b14806124e857506001600160e01b031982166303a24d0760e21b145b8061064a57506301ffc9a760e01b6001600160e01b031983161461064a565b8280546125139061328e565b90600052602060002090601f016020900481019282612535576000855561257b565b82601f1061254e57805160ff191683800117855561257b565b8280016001018555821561257b579182015b8281111561257b578251825591602001919060010190612560565b5061258792915061258b565b5090565b5b80821115612587576000815560010161258c565b80356001600160a01b03811681146125b757600080fd5b919050565b600082601f8301126125cc578081fd5b813560206125d9826131d1565b6040516125e682826132c3565b8381528281019150858301600585901b87018401881015612605578586fd5b855b8581101561262357813584529284019290840190600101612607565b5090979650505050505050565b600082601f830112612640578081fd5b81356001600160401b0381111561265957612659613320565b604051612670601f8301601f1916602001826132c3565b818152846020838601011115612684578283fd5b816020850160208301379081016020019190915292915050565b80356001600160601b03811681146125b757600080fd5b6000602082840312156126c6578081fd5b611406826125a0565b600080604083850312156126e1578081fd5b6126ea836125a0565b91506126f8602084016125a0565b90509250929050565b600080600080600060a08688031215612718578081fd5b612721866125a0565b945061272f602087016125a0565b935060408601356001600160401b038082111561274a578283fd5b61275689838a016125bc565b9450606088013591508082111561276b578283fd5b61277789838a016125bc565b9350608088013591508082111561278c578283fd5b5061279988828901612630565b9150509295509295909350565b600080600080600060a086880312156127bd578081fd5b6127c6866125a0565b94506127d4602087016125a0565b9350604086013592506060860135915060808601356001600160401b038111156127fc578182fd5b61279988828901612630565b6000806040838503121561281a578182fd5b612823836125a0565b915060208301356001600160401b0381111561283d578182fd5b612849858286016125bc565b9150509250929050565b600080600060608486031215612867578283fd5b612870846125a0565b925060208401356001600160401b038082111561288b578384fd5b612897878388016125bc565b935060408601359150808211156128ac578283fd5b506128b9868287016125bc565b9150509250925092565b600080600080608085870312156128d8578182fd5b6128e1856125a0565b935060208501356001600160401b03808211156128fc578384fd5b612908888389016125bc565b9450604087013591508082111561291d578384fd5b612929888389016125bc565b9350606087013591508082111561293e578283fd5b5061294b87828801612630565b91505092959194509250565b60008060408385031215612969578182fd5b612972836125a0565b915060208301358015158114612986578182fd5b809150509250929050565b600080604083850312156129a3578182fd5b6129ac836125a0565b946020939093013593505050565b6000806000606084860312156129ce578081fd5b6129d7846125a0565b95602085013595506040909401359392505050565b60008060008060808587031215612a01578182fd5b612a0a856125a0565b9350602085013592506040850135915060608501356001600160401b03811115612a32578182fd5b61294b87828801612630565b600080600080600060a08688031215612a55578283fd5b612a5e866125a0565b9450602086013593506040860135925060608601356001600160401b0380821115612a87578283fd5b61277789838a01612630565b60008060408385031215612aa5578182fd5b612aae836125a0565b91506126f86020840161269e565b60008060408385031215612ace578182fd5b82356001600160401b0380821115612ae4578384fd5b818501915085601f830112612af7578384fd5b81356020612b04826131d1565b604051612b1182826132c3565b8381528281019150858301600585901b870184018b1015612b30578889fd5b8896505b84871015612b5957612b45816125a0565b835260019690960195918301918301612b34565b5096505086013592505080821115612b6f578283fd5b50612849858286016125bc565b600060208284031215612b8d578081fd5b5035919050565b60008060408385031215612ba6578182fd5b823591506126f8602084016125a0565b600060208284031215612bc7578081fd5b8135611406816133d7565b600060208284031215612be3578081fd5b8151611406816133d7565b600060208284031215612bff578081fd5b81356001600160401b03811115612c14578182fd5b612c2084828501612630565b949350505050565b600080600060608486031215612c3c578081fd5b83359250612c4c602085016125a0565b9150612c5a6040850161269e565b90509250925092565b60008060408385031215612c75578182fd5b8235915060208301356001600160401b03811115612c91578182fd5b61284985828601612630565b60008060408385031215612caf578182fd5b50508035926020909101359150565b6000815180845260208085019450808401835b83811015612ced57815187529582019590820190600101612cd1565b509495945050505050565b60008151808452612d1081602086016020860161324b565b601f01601f19169290920160200192915050565b60008451612d3681846020890161324b565b60609490941b6bffffffffffffffffffffffff191691909301908152602f60f81b6014820152601581019190915260350192915050565b7f416363657373436f6e74726f6c3a206163636f756e7420000000000000000000815260008351612da581601785016020880161324b565b7001034b99036b4b9b9b4b733903937b6329607d1b6017918401918201528351612dd681602884016020880161324b565b01602801949350505050565b6001600160a01b0386811682528516602082015260a060408201819052600090612e0e90830186612cbe565b8281036060840152612e208186612cbe565b90508281036080840152612e348185612cf8565b98975050505050505050565b6001600160a01b03868116825285166020820152604081018490526060810183905260a060808201819052600090612e7a90830184612cf8565b979650505050505050565b6020815260006114066020830184612cbe565b604081526000612eab6040830185612cbe565b8281036020840152612ebd8185612cbe565b95945050505050565b6020815260006114066020830184612cf8565b60208082526028908201527f455243313135353a204552433131353552656365697665722072656a656374656040820152676420746f6b656e7360c01b606082015260800190565b60208082526024908201527f455243313135353a206275726e20616d6f756e7420657863656564732062616c604082015263616e636560e01b606082015260800190565b60208082526029908201527f455243313135353a2063616c6c6572206973206e6f74206f776e6572206e6f7260408201526808185c1c1c9bdd995960ba1b606082015260800190565b60208082526029908201527f455243313135352363726561746f724f6e6c793a204f4e4c595f43524541544f6040820152681497d0531313d5d15160ba1b606082015260800190565b60208082526025908201527f455243313135353a207472616e7366657220746f20746865207a65726f206164604082015264647265737360d81b606082015260800190565b60208082526023908201527f455243313135353a206275726e2066726f6d20746865207a65726f206164647260408201526265737360e81b606082015260800190565b6020808252602a908201527f455243313135353a20696e73756666696369656e742062616c616e636520666f60408201526939103a3930b739b332b960b11b606082015260800190565b6020808252818101527f4f776e61626c653a2063616c6c6572206973206e6f7420746865206f776e6572604082015260600190565b6020808252602a908201527f455243323938313a20726f79616c7479206665652077696c6c206578636565646040820152692073616c65507269636560b01b606082015260800190565b60208082526028908201527f455243313135353a2069647320616e6420616d6f756e7473206c656e677468206040820152670dad2e6dac2e8c6d60c31b606082015260800190565b60208082526021908201527f455243313135353a206d696e7420746f20746865207a65726f206164647265736040820152607360f81b606082015260800190565b60006001600160401b038211156131ea576131ea613320565b5060051b60200190565b600082198211156132075761320761330a565b500190565b60008261322757634e487b7160e01b81526012600452602481fd5b500490565b60008160001904831182151516156132465761324661330a565b500290565b60005b8381101561326657818101518382015260200161324e565b83811115610a345750506000910152565b6000816132865761328661330a565b506000190190565b600181811c908216806132a257607f821691505b602082108114156108f157634e487b7160e01b600052602260045260246000fd5b601f8201601f191681016001600160401b03811182821017156132e8576132e8613320565b6040525050565b60006000198214156133035761330361330a565b5060010190565b634e487b7160e01b600052601160045260246000fd5b634e487b7160e01b600052604160045260246000fd5b600060033d111561334b57600481823e5160e01c5b90565b600060443d101561335c5790565b6040516003193d81016004833e81513d6001600160401b03816024840111818411171561338b57505050505090565b82850191508151818111156133a35750505050505090565b843d87010160208285010111156133bd5750505050505090565b6133cc602082860101876132c3565b509095945050505050565b6001600160e01b03198116811461068357600080fdfea2646970667358221220d4db7b25d87663ee094521fba94e74b432ca3aab4dcb71ab1ec6693ebfdc67cf64736f6c63430008040033",
  "linkReferences": {},
  "deployedLinkReferences": {}
}