{
  "_format": "hh-sol-artifact-1",
  "contractName": "TheShareMarketplace",
  "sourceName": "contracts/Protocol/TheShareMarketplace.sol",
  "abi": [
    {
      "inputs": [
        {
          "internalType": "address",
          "name": "_recipient",
          "type": "address"
        },
        {
          "internalType": "uint256",
          "name": "_feeAmount",
          "type": "uint256"
        },
        {
          "internalType": "uint256",
          "name": "_floorPrice",
          "type": "uint256"
        }
      ],
      "stateMutability": "nonpayable",
      "type": "constructor"
    },
    {
      "anonymous": false,
      "inputs": [
        {
          "indexed": false,
          "internalType": "bytes32",
          "name": "itemId",
          "type": "bytes32"
        }
      ],
      "name": "MarketItemCancelled",
      "type": "event"
    },
    {
      "anonymous": false,
      "inputs": [
        {
          "indexed": false,
          "internalType": "bytes32",
          "name": "itemId",
          "type": "bytes32"
        },
        {
          "indexed": true,
          "internalType": "bool",
          "name": "isErc721",
          "type": "bool"
        },
        {
          "indexed": true,
          "internalType": "address",
          "name": "nftContract",
          "type": "address"
        },
        {
          "indexed": true,
          "internalType": "uint256",
          "name": "tokenId",
          "type": "uint256"
        },
        {
          "indexed": false,
          "internalType": "address",
          "name": "erc20address",
          "type": "address"
        },
        {
          "indexed": false,
          "internalType": "uint256",
          "name": "amount",
          "type": "uint256"
        },
        {
          "indexed": false,
          "internalType": "uint256",
          "name": "price",
          "type": "uint256"
        }
      ],
      "name": "MarketItemUpdated",
      "type": "event"
    },
    {
      "anonymous": false,
      "inputs": [
        {
          "indexed": true,
          "internalType": "address",
          "name": "previousOwner",
          "type": "address"
        },
        {
          "indexed": true,
          "internalType": "address",
          "name": "newOwner",
          "type": "address"
        }
      ],
      "name": "OwnershipTransferred",
      "type": "event"
    },
    {
      "inputs": [
        {
          "internalType": "bytes32",
          "name": "itemId",
          "type": "bytes32"
        }
      ],
      "name": "cancelMarketItem",
      "outputs": [],
      "stateMutability": "nonpayable",
      "type": "function"
    },
    {
      "inputs": [
        {
          "internalType": "bool",
          "name": "isErc721",
          "type": "bool"
        },
        {
          "internalType": "address",
          "name": "nftContract",
          "type": "address"
        },
        {
          "internalType": "uint256",
          "name": "tokenId",
          "type": "uint256"
        },
        {
          "internalType": "uint256",
          "name": "price",
          "type": "uint256"
        },
        {
          "internalType": "uint256",
          "name": "amount",
          "type": "uint256"
        },
        {
          "internalType": "address",
          "name": "erc20address",
          "type": "address"
        }
      ],
      "name": "createMarketItem",
      "outputs": [],
      "stateMutability": "payable",
      "type": "function"
    },
    {
      "inputs": [],
      "name": "floorPrice",
      "outputs": [
        {
          "internalType": "uint256",
          "name": "",
          "type": "uint256"
        }
      ],
      "stateMutability": "view",
      "type": "function"
    },
    {
      "inputs": [],
      "name": "getMarketFee",
      "outputs": [
        {
          "internalType": "uint256",
          "name": "",
          "type": "uint256"
        }
      ],
      "stateMutability": "view",
      "type": "function"
    },
    {
      "inputs": [],
      "name": "getMarketFeeRecipient",
      "outputs": [
        {
          "internalType": "address",
          "name": "",
          "type": "address"
        }
      ],
      "stateMutability": "view",
      "type": "function"
    },
    {
      "inputs": [
        {
          "internalType": "bytes32",
          "name": "itemId",
          "type": "bytes32"
        }
      ],
      "name": "getMarketItem",
      "outputs": [
        {
          "components": [
            {
              "internalType": "bytes32",
              "name": "itemId",
              "type": "bytes32"
            },
            {
              "internalType": "bool",
              "name": "isErc721",
              "type": "bool"
            },
            {
              "internalType": "address",
              "name": "nftContract",
              "type": "address"
            },
            {
              "internalType": "uint256",
              "name": "tokenId",
              "type": "uint256"
            },
            {
              "internalType": "address",
              "name": "erc20address",
              "type": "address"
            },
            {
              "internalType": "address payable",
              "name": "seller",
              "type": "address"
            },
            {
              "internalType": "address payable",
              "name": "buyer",
              "type": "address"
            },
            {
              "internalType": "uint256",
              "name": "amount",
              "type": "uint256"
            },
            {
              "internalType": "uint256",
              "name": "price",
              "type": "uint256"
            },
            {
              "internalType": "enum TheShareMarketplace.State",
              "name": "state",
              "type": "uint8"
            }
          ],
          "internalType": "struct TheShareMarketplace.MarketItem",
          "name": "",
          "type": "tuple"
        }
      ],
      "stateMutability": "view",
      "type": "function"
    },
    {
      "inputs": [],
      "name": "getOpenItems",
      "outputs": [
        {
          "internalType": "bytes32[]",
          "name": "",
          "type": "bytes32[]"
        }
      ],
      "stateMutability": "view",
      "type": "function"
    },
    {
      "inputs": [
        {
          "internalType": "address",
          "name": "",
          "type": "address"
        },
        {
          "internalType": "address",
          "name": "",
          "type": "address"
        },
        {
          "internalType": "uint256[]",
          "name": "",
          "type": "uint256[]"
        },
        {
          "internalType": "uint256[]",
          "name": "",
          "type": "uint256[]"
        },
        {
          "internalType": "bytes",
          "name": "",
          "type": "bytes"
        }
      ],
      "name": "onERC1155BatchReceived",
      "outputs": [
        {
          "internalType": "bytes4",
          "name": "",
          "type": "bytes4"
        }
      ],
      "stateMutability": "nonpayable",
      "type": "function"
    },
    {
      "inputs": [
        {
          "internalType": "address",
          "name": "",
          "type": "address"
        },
        {
          "internalType": "address",
          "name": "",
          "type": "address"
        },
        {
          "internalType": "uint256",
          "name": "",
          "type": "uint256"
        },
        {
          "internalType": "uint256",
          "name": "",
          "type": "uint256"
        },
        {
          "internalType": "bytes",
          "name": "",
          "type": "bytes"
        }
      ],
      "name": "onERC1155Received",
      "outputs": [
        {
          "internalType": "bytes4",
          "name": "",
          "type": "bytes4"
        }
      ],
      "stateMutability": "nonpayable",
      "type": "function"
    },
    {
      "inputs": [
        {
          "internalType": "address",
          "name": "",
          "type": "address"
        },
        {
          "internalType": "address",
          "name": "",
          "type": "address"
        },
        {
          "internalType": "uint256",
          "name": "",
          "type": "uint256"
        },
        {
          "internalType": "bytes",
          "name": "",
          "type": "bytes"
        }
      ],
      "name": "onERC721Received",
      "outputs": [
        {
          "internalType": "bytes4",
          "name": "",
          "type": "bytes4"
        }
      ],
      "stateMutability": "nonpayable",
      "type": "function"
    },
    {
      "inputs": [],
      "name": "owner",
      "outputs": [
        {
          "internalType": "address",
          "name": "",
          "type": "address"
        }
      ],
      "stateMutability": "view",
      "type": "function"
    },
    {
      "inputs": [
        {
          "internalType": "bytes32",
          "name": "itemId",
          "type": "bytes32"
        },
        {
          "internalType": "uint256",
          "name": "amount",
          "type": "uint256"
        },
        {
          "internalType": "address",
          "name": "erc20address",
          "type": "address"
        }
      ],
      "name": "purchaseItem",
      "outputs": [],
      "stateMutability": "payable",
      "type": "function"
    },
    {
      "inputs": [],
      "name": "renounceOwnership",
      "outputs": [],
      "stateMutability": "nonpayable",
      "type": "function"
    },
    {
      "inputs": [
        {
          "internalType": "uint256",
          "name": "_floorPrice",
          "type": "uint256"
        }
      ],
      "name": "setFloorPrice",
      "outputs": [],
      "stateMutability": "nonpayable",
      "type": "function"
    },
    {
      "inputs": [
        {
          "internalType": "uint256",
          "name": "_feeAmount",
          "type": "uint256"
        }
      ],
      "name": "setMarketFee",
      "outputs": [],
      "stateMutability": "nonpayable",
      "type": "function"
    },
    {
      "inputs": [
        {
          "internalType": "address",
          "name": "_recipient",
          "type": "address"
        }
      ],
      "name": "setMarketFeeRecipient",
      "outputs": [],
      "stateMutability": "nonpayable",
      "type": "function"
    },
    {
      "inputs": [
        {
          "internalType": "address",
          "name": "newOwner",
          "type": "address"
        }
      ],
      "name": "transferOwnership",
      "outputs": [],
      "stateMutability": "nonpayable",
      "type": "function"
    },
    {
      "inputs": [
        {
          "internalType": "address",
          "name": "_recipient",
          "type": "address"
        }
      ],
      "name": "withdraw",
      "outputs": [],
      "stateMutability": "nonpayable",
      "type": "function"
    },
    {
      "stateMutability": "payable",
      "type": "receive"
    }
  ],
  "bytecode": "0x60806040523480156200001157600080fd5b5060405162002de138038062002de18339810160408190526200003491620000c3565b6001600055620000443362000071565b600480546001600160a01b0319166001600160a01b03949094169390931790925560025560035562000106565b600180546001600160a01b038381166001600160a01b0319831681179093556040519116919082907f8be0079c531659141344cd1fd0a4f28419497f9722a3daafe3b4186f6b6457e090600090a35050565b600080600060608486031215620000d8578283fd5b83516001600160a01b0381168114620000ef578384fd5b602085015160409095015190969495509392505050565b612ccb80620001166000396000f3fe60806040526004361061010d5760003560e01c80635e123add116100955780639363c812116100645780639363c812146102dd578063bc197c81146102f3578063dfa2c6451461031f578063f23a6e611461033f578063f2fde38b1461036b57600080fd5b80635e123add1461025e578063715018a61461027d5780638184a48c146102925780638da5cb5b146102bf57600080fd5b8063470d81f6116100dc578063470d81f6146101c45780634a1516e7146101d757806351cff8d914610209578063576bbdda1461022957806358c5fa221461023c57600080fd5b8063150b7a021461011957806326b825d214610162578063311e8981146101845780633d05829d146101a457600080fd5b3661011457005b600080fd5b34801561012557600080fd5b50610144610134366004612746565b630a85bd0160e11b949350505050565b6040516001600160e01b031990911681526020015b60405180910390f35b34801561016e57600080fd5b5061018261017d3660046128c6565b61038b565b005b34801561019057600080fd5b5061018261019f3660046128c6565b6103c3565b3480156101b057600080fd5b506101826101bf3660046128c6565b61093d565b6101826101d2366004612860565b61096c565b3480156101e357600080fd5b506004546001600160a01b03165b6040516001600160a01b039091168152602001610159565b34801561021557600080fd5b50610182610224366004612664565b610f2b565b6101826102373660046128de565b610fbd565b34801561024857600080fd5b50610251611ff9565b60405161015991906129ac565b34801561026a57600080fd5b506002545b604051908152602001610159565b34801561028957600080fd5b5061018261200a565b34801561029e57600080fd5b506102b26102ad3660046128c6565b612040565b6040516101599190612ae2565b3480156102cb57600080fd5b506001546001600160a01b03166101f1565b3480156102e957600080fd5b5061026f60035481565b3480156102ff57600080fd5b5061014461030e36600461269c565b63bc197c8160e01b95945050505050565b34801561032b57600080fd5b5061018261033a366004612664565b61217b565b34801561034b57600080fd5b5061014461035a3660046127b0565b63f23a6e6160e01b95945050505050565b34801561037757600080fd5b50610182610386366004612664565b6121c7565b6001546001600160a01b031633146103be5760405162461bcd60e51b81526004016103b590612a33565b60405180910390fd5b600255565b600260005414156103e65760405162461bcd60e51b81526004016103b590612aab565b60026000556103f6600682612262565b6104515760405162461bcd60e51b815260206004820152602660248201527f4d61726b6574706c6163653a204974656d206973206e6f74206c697374656420604482015265185d08185b1b60d21b60648201526084016103b5565b600081815260056020818152604080842081516101408101835281548152600182015460ff8082161515958301959095526001600160a01b036101009182900481169483019490945260028084015460608401526003840154851660808401526004840154851660a08401529583015490931660c0820152600682015460e0820152600782015492810192909252600881015491939092610120850192169081111561050d57634e487b7160e01b600052602160045260246000fd5b600281111561052c57634e487b7160e01b600052602160045260246000fd5b90525090506000816101200151600281111561055857634e487b7160e01b600052602160045260246000fd5b146105b15760405162461bcd60e51b815260206004820152602360248201527f4d61726b6574706c6163653a204974656d206d757374206265206f6e206d61726044820152621ad95d60ea1b60648201526084016103b5565b60a08101516001600160a01b03163314806105d657506001546001600160a01b031633145b61066e5760405162461bcd60e51b815260206004820152605d60248201527f4d61726b6574706c6163653a204d61726b6574206974656d2063616e2774206260448201527f652063616e63656c6c65642066726f6d206f74686572207468656e2073656c6c60648201527f6572206f72206d61726b6574206f776e65722e2041626f7274696e672e000000608482015260a4016103b5565b80602001511561073357336001600160a01b031681604001516001600160a01b0316636352211e83606001516040518263ffffffff1660e01b81526004016106b891815260200190565b60206040518083038186803b1580156106d057600080fd5b505afa1580156106e4573d6000803e3d6000fd5b505050506040513d601f19601f820116820180604052508101906107089190612680565b6001600160a01b03161461072e5760405162461bcd60e51b81526004016103b5906129f0565b6107e9565b60e081015160408201516001600160a01b031662fdd58e3360608501516040516001600160e01b031960e085901b1681526001600160a01b039092166004830152602482015260440160206040518083038186803b15801561079457600080fd5b505afa1580156107a8573d6000803e3d6000fd5b505050506040513d601f19601f820116820180604052508101906107cc9190612916565b106107e95760405162461bcd60e51b81526004016103b5906129f0565b60026101208201818152600084815260056020818152604092839020865181559086015160018083018054958901516001600160a01b03908116610100908102610100600160a81b0319951515959095166001600160a81b03199098169790971793909317905560608801518388015560808801516003840180549184166001600160a01b031992831617905560a089015160048501805491851691831691909117905560c0890151948401805495909316941693909317905560e086015160068201559185015160078301559151600882018054869593949293919260ff199091169184908111156108ec57634e487b7160e01b600052602160045260246000fd5b02179055506109009150600690508361227f565b506040518281527f6572b1289652217e076a161b541361457ab4c2a0eeabd45eb9447e4b1576f4c29060200160405180910390a150506001600055565b6001546001600160a01b031633146109675760405162461bcd60e51b81526004016103b590612a33565b600355565b6002600054141561098f5760405162461bcd60e51b81526004016103b590612aab565b600260005560408051606087811b6bffffffffffffffffffffffff1990811660208085019190915260348401899052605484018790523390921b166074830152825160688184030181526088909201909252805191012086610b9d57600083116109f857600080fd5b826001600160a01b03871662fdd58e336040516001600160e01b031960e084901b1681526001600160a01b0390911660048201526024810189905260440160206040518083038186803b158015610a4e57600080fd5b505afa158015610a62573d6000803e3d6000fd5b505050506040513d601f19601f82011682018060405250810190610a869190612916565b1015610aef5760405162461bcd60e51b815260206004820152603260248201527f4d61726b6574706c6163653a204e6f742073756666696369656e742062616c616044820152713731b2903337b9103a34329039b2b63632b960711b60648201526084016103b5565b6001600160a01b03861663e985e9c5336040516001600160e01b031960e084901b1681526001600160a01b03909116600482015230602482015260440160206040518083038186803b158015610b4457600080fd5b505afa158015610b58573d6000803e3d6000fd5b505050506040513d601f19601f82011682018060405250810190610b7c9190612844565b610b985760405162461bcd60e51b81526004016103b590612a68565b610d1d565b82600114610baa57600080fd5b336040516331a9108f60e11b8152600481018790526001600160a01b0391821691881690636352211e9060240160206040518083038186803b158015610bef57600080fd5b505afa158015610c03573d6000803e3d6000fd5b505050506040513d601f19601f82011682018060405250810190610c279190612680565b6001600160a01b031614610c7d5760405162461bcd60e51b815260206004820152601c60248201527f4d61726b6574706c6163653a204e6f7420746f6b656e206f776e65720000000060448201526064016103b5565b60405163020604bf60e21b81526004810186905230906001600160a01b0388169063081812fc9060240160206040518083038186803b158015610cbf57600080fd5b505afa158015610cd3573d6000803e3d6000fd5b505050506040513d601f19601f82011682018060405250810190610cf79190612680565b6001600160a01b031614610d1d5760405162461bcd60e51b81526004016103b590612a68565b6040518061014001604052808281526020018815158152602001876001600160a01b03168152602001868152602001836001600160a01b03168152602001610d623390565b6001600160a01b0316815260200160006001600160a01b0316815260200184815260200185815260200160006002811115610dad57634e487b7160e01b600052602160045260246000fd5b9052600082815260056020818152604092839020845181559084015160018083018054958701516001600160a81b0319909616921515610100600160a81b031916929092176101006001600160a01b03968716810291909117909255606086015160028085019190915560808701516003850180546001600160a01b031990811692891692909217905560a0880151600486018054831691891691909117905560c08801519585018054909116959096169490941790945560e08501516006830155840151600782015561012084015160088201805492949193909260ff191691908490811115610eae57634e487b7160e01b600052602160045260246000fd5b0217905550610ec29150600690508261228b565b50604080518281526001600160a01b038481166020830152918101859052606081018690528691881690891515907fd5ad6e97e3d35e6b198f3647c75e285bd29baa1013139a2793782d39b57d6b2a9060800160405180910390a4505060016000555050505050565b6001546001600160a01b03163314610f555760405162461bcd60e51b81526004016103b590612a33565b60026000541415610f785760405162461bcd60e51b81526004016103b590612aab565b600260009081556040516001600160a01b038316914780156108fc02929091818181858888f19350505050158015610fb4573d6000803e3d6000fd5b50506001600055565b826000808281526005602052604090206008015460ff166002811115610ff357634e487b7160e01b600052602160045260246000fd5b146110405760405162461bcd60e51b815260206004820152601d60248201527f4974656d206973206e6f742061637469766520746f20626520736f6c6400000060448201526064016103b5565b600260005414156110635760405162461bcd60e51b81526004016103b590612aab565b6002600081815585815260056020818152604080842081516101408101835281548152600182015460ff8082161515958301959095526001600160a01b03610100918290048116948301949094528288015460608301526003830154841660808301526004830154841660a08301529482015490921660c0830152600681015460e0830152600781015493820193909352600883015493949093610120850192169081111561112257634e487b7160e01b600052602160045260246000fd5b600281111561114157634e487b7160e01b600052602160045260246000fd5b8152505090508060200151156113d6578360011461115e57600080fd5b306001600160a01b031681604001516001600160a01b031663081812fc83606001516040518263ffffffff1660e01b815260040161119e91815260200190565b60206040518083038186803b1580156111b657600080fd5b505afa1580156111ca573d6000803e3d6000fd5b505050506040513d601f19601f820116820180604052508101906111ee9190612680565b6001600160a01b031614801561129e57508060a001516001600160a01b031681604001516001600160a01b0316636352211e83606001516040518263ffffffff1660e01b815260040161124391815260200190565b60206040518083038186803b15801561125b57600080fd5b505afa15801561126f573d6000803e3d6000fd5b505050506040513d601f19601f820116820180604052508101906112939190612680565b6001600160a01b0316145b6112ea5760405162461bcd60e51b815260206004820152601c60248201527f546f6b656e206e6f7420617070726f766564206e6f72206f776e65640000000060448201526064016103b5565b336001600160a01b031681604001516001600160a01b0316636352211e83606001516040518263ffffffff1660e01b815260040161132a91815260200190565b60206040518083038186803b15801561134257600080fd5b505afa158015611356573d6000803e3d6000fd5b505050506040513d601f19601f8201168201806040525081019061137a9190612680565b6001600160a01b031614156113d15760405162461bcd60e51b815260206004820152601760248201527f546f6b656e206f776e6572206e6f7420616c6c6f77656400000000000000000060448201526064016103b5565b61159c565b600084116113e357600080fd5b8060e001518411158015611485575060408082015160a083015160608401519251627eeac760e11b81526001600160a01b0391821660048201526024810193909352869291169062fdd58e9060440160206040518083038186803b15801561144a57600080fd5b505afa15801561145e573d6000803e3d6000fd5b505050506040513d601f19601f820116820180604052508101906114829190612916565b10155b6114f75760405162461bcd60e51b815260206004820152603760248201527f4d61726b6574706c6163653a204552433131353520696e73756666696369656e60448201527f742062616c616e6365206f662074686520746f6b656e2e00000000000000000060648201526084016103b5565b60408082015160a0830151915163e985e9c560e01b81526001600160a01b03928316600482015230602482015291169063e985e9c59060440160206040518083038186803b15801561154857600080fd5b505afa15801561155c573d6000803e3d6000fd5b505050506040513d601f19601f820116820180604052508101906115809190612844565b61159c5760405162461bcd60e51b81526004016103b590612a68565b60006115d06127106115ca6115be61271060025461229790919063ffffffff16565b610100860151906122a3565b906122af565b9050836001600160a01b031682608001516001600160a01b03161461165d576115f981866122a3565b34101561165d5760405162461bcd60e51b815260206004820152602c60248201527f4d61726b6574706c6163653a205061796d656e74206d6574686f64206973206e60448201526b1bdd081a59195b9d1a58d85b60a21b60648201526084016103b5565b61166a82604001516122bb565b6116b65760405162461bcd60e51b815260206004820152601b60248201527f526f79616c7469657320617265206e6f7420617661696c61626c65000000000060448201526064016103b5565b60008083604001516001600160a01b0316632a55205a85606001518661010001516040518363ffffffff1660e01b81526004016116fd929190918252602082015260400190565b604080518083038186803b15801561171457600080fd5b505afa158015611728573d6000803e3d6000fd5b505050506040513d601f19601f8201168201806040525081019061174c9190612817565b915091506117573390565b6001600160a01b0390811660c08601526080850151166119f45761177b83886122a3565b3410156117e45760405162461bcd60e51b815260206004820152603160248201527f4d61726b6574706c6163653a20496e73756666696369656e742076616c7565206044820152707061696420666f7220746865206974656d60781b60648201526084016103b5565b801561182b576001600160a01b0382166108fc611801838a6122a3565b6040518115909202916000818181858888f19350505050158015611829573d6000803e3d6000fd5b505b61183583886122a3565b34111561187e57336108fc61184a858a6122a3565b6118549034612c2f565b6040518115909202916000818181858888f1935050505015801561187c573d6000803e3d6000fd5b505b6004546101008501516001600160a01b03909116906108fc906118ae908a906118a8908890612345565b906122a3565b6040518115909202916000818181858888f193505050501580156118d6573d6000803e3d6000fd5b508360a001516001600160a01b03166108fc611904896118a88589610100015161234590919063ffffffff16565b6040518115909202916000818181858888f1935050505015801561192c573d6000803e3d6000fd5b508360200151156119ae5783604001516001600160a01b03166342842e0e8560a001518660c0015187606001516040518463ffffffff1660e01b815260040161197793929190612950565b600060405180830381600087803b15801561199157600080fd5b505af11580156119a5573d6000803e3d6000fd5b50505050611e0a565b83604001516001600160a01b031663f242432a8560a001518660c0015187606001518860e001516040518563ffffffff1660e01b81526004016119779493929190612974565b6080840151611a0384896122a3565b6001600160a01b03821663dd62ed3e336040516001600160e01b031960e084901b1681526001600160a01b03909116600482015230602482015260440160206040518083038186803b158015611a5857600080fd5b505afa158015611a6c573d6000803e3d6000fd5b505050506040513d601f19601f82011682018060405250810190611a909190612916565b1015611b185760405162461bcd60e51b815260206004820152604b60248201527f4d61726b6574706c6163653a20496e73756666696369656e742045524332302060448201527f616c6c6f77616e63652062616c616e636520666f7220706179696e6720666f7260648201526a103a34329030b9b9b2ba1760a91b608482015260a4016103b5565b806001600160a01b03166323b872dd8660c00151600460009054906101000a90046001600160a01b0316611b5e8c6118a88b61010001518b61234590919063ffffffff16565b6040518463ffffffff1660e01b8152600401611b7c93929190612950565b602060405180830381600087803b158015611b9657600080fd5b505af1158015611baa573d6000803e3d6000fd5b505050506040513d601f19601f82011682018060405250810190611bce9190612844565b508115611c685760c08501516001600160a01b038216906323b872dd9085611bf6868d6122a3565b6040518463ffffffff1660e01b8152600401611c1493929190612950565b602060405180830381600087803b158015611c2e57600080fd5b505af1158015611c42573d6000803e3d6000fd5b505050506040513d601f19601f82011682018060405250810190611c669190612844565b505b806001600160a01b03166323b872dd8660c001518760a00151611c9d8c6118a8888c610100015161234590919063ffffffff16565b6040518463ffffffff1660e01b8152600401611cbb93929190612950565b602060405180830381600087803b158015611cd557600080fd5b505af1158015611ce9573d6000803e3d6000fd5b505050506040513d601f19601f82011682018060405250810190611d0d9190612844565b50846020015115611d8f5784604001516001600160a01b03166342842e0e8660a001518760c0015188606001516040518463ffffffff1660e01b8152600401611d5893929190612950565b600060405180830381600087803b158015611d7257600080fd5b505af1158015611d86573d6000803e3d6000fd5b50505050611e08565b84604001516001600160a01b031663f242432a8660a001518760c0015188606001518960e001516040518563ffffffff1660e01b8152600401611dd59493929190612974565b600060405180830381600087803b158015611def57600080fd5b505af1158015611e03573d6000803e3d6000fd5b505050505b505b836020015115611e2d576001610120850152611e2760068961227f565b50611e5c565b60e0840151611e3c9088612345565b60e08501819052611e5c576001610120850152611e5a60068961227f565b505b600088815260056020818152604092839020875181559087015160018083018054958a01516001600160a81b0319909616921515610100600160a81b031916929092176101006001600160a01b03968716810291909117909255606089015160028085019190915560808a01516003850180546001600160a01b031990811692891692909217905560a08b0151600486018054831691891691909117905560c08b01519585018054909116959096169490941790945560e088015160068301558701516007820155610120870151600882018054899593949293919260ff1990911691908490811115611f5f57634e487b7160e01b600052602160045260246000fd5b0217905550905050836060015184604001516001600160a01b0316856020015115157fd5ad6e97e3d35e6b198f3647c75e285bd29baa1013139a2793782d39b57d6b2a8b88608001518960e001518a6101000151604051611fe294939291909384526001600160a01b039290921660208401526040830152606082015260800190565b60405180910390a450506001600055505050505050565b60606120056006612351565b905090565b6001546001600160a01b031633146120345760405162461bcd60e51b81526004016103b590612a33565b61203e600061235c565b565b6120956040805161014081018252600080825260208201819052918101829052606081018290526080810182905260a0810182905260c0810182905260e0810182905261010081018290529061012082015290565b60008281526005602081815260409283902083516101408101855281548152600182015460ff8082161515948301949094526001600160a01b036101009182900481169683019690965260028084015460608401526003840154871660808401526004840154871660a08401529483015490951660c0820152600682015460e082015260078201549481019490945260088101549092610120850192919091169081111561215357634e487b7160e01b600052602160045260246000fd5b600281111561217257634e487b7160e01b600052602160045260246000fd5b90525092915050565b6001546001600160a01b031633146121a55760405162461bcd60e51b81526004016103b590612a33565b600480546001600160a01b0319166001600160a01b0392909216919091179055565b6001546001600160a01b031633146121f15760405162461bcd60e51b81526004016103b590612a33565b6001600160a01b0381166122565760405162461bcd60e51b815260206004820152602660248201527f4f776e61626c653a206e6577206f776e657220697320746865207a65726f206160448201526564647265737360d01b60648201526084016103b5565b61225f8161235c565b50565b600081815260018301602052604081205415155b90505b92915050565b600061227683836123ae565b600061227683836124cb565b60006122768284612bd8565b60006122768284612c10565b60006122768284612bf0565b6040516301ffc9a760e01b815263152a902d60e11b600482015260009081906001600160a01b038416906301ffc9a79060240160206040518083038186803b15801561230657600080fd5b505afa15801561231a573d6000803e3d6000fd5b505050506040513d601f19601f8201168201806040525081019061233e9190612844565b9392505050565b60006122768284612c2f565b60606122798261251a565b600180546001600160a01b038381166001600160a01b0319831681179093556040519116919082907f8be0079c531659141344cd1fd0a4f28419497f9722a3daafe3b4186f6b6457e090600090a35050565b600081815260018301602052604081205480156124c15760006123d2600183612c2f565b85549091506000906123e690600190612c2f565b905081811461246757600086600001828154811061241457634e487b7160e01b600052603260045260246000fd5b906000526020600020015490508087600001848154811061244557634e487b7160e01b600052603260045260246000fd5b6000918252602080832090910192909255918252600188019052604090208390555b855486908061248657634e487b7160e01b600052603160045260246000fd5b600190038181906000526020600020016000905590558560010160008681526020019081526020016000206000905560019350505050612279565b6000915050612279565b600081815260018301602052604081205461251257508154600181810184556000848152602080822090930184905584548482528286019093526040902091909155612279565b506000612279565b60608160000180548060200260200160405190810160405280929190818152602001828054801561256a57602002820191906000526020600020905b815481526020019060010190808311612556575b50505050509050919050565b600082601f830112612586578081fd5b8135602067ffffffffffffffff8211156125a2576125a2612c5c565b8160051b6125b1828201612ba7565b8381528281019086840183880185018910156125cb578687fd5b8693505b858410156125ed5780358352600193909301929184019184016125cf565b50979650505050505050565b600082601f830112612609578081fd5b813567ffffffffffffffff81111561262357612623612c5c565b612636601f8201601f1916602001612ba7565b81815284602083860101111561264a578283fd5b816020850160208301379081016020019190915292915050565b600060208284031215612675578081fd5b813561233e81612c72565b600060208284031215612691578081fd5b815161233e81612c72565b600080600080600060a086880312156126b3578081fd5b85356126be81612c72565b945060208601356126ce81612c72565b9350604086013567ffffffffffffffff808211156126ea578283fd5b6126f689838a01612576565b9450606088013591508082111561270b578283fd5b61271789838a01612576565b9350608088013591508082111561272c578283fd5b50612739888289016125f9565b9150509295509295909350565b6000806000806080858703121561275b578384fd5b843561276681612c72565b9350602085013561277681612c72565b925060408501359150606085013567ffffffffffffffff811115612798578182fd5b6127a4878288016125f9565b91505092959194509250565b600080600080600060a086880312156127c7578081fd5b85356127d281612c72565b945060208601356127e281612c72565b93506040860135925060608601359150608086013567ffffffffffffffff81111561280b578182fd5b612739888289016125f9565b60008060408385031215612829578182fd5b825161283481612c72565b6020939093015192949293505050565b600060208284031215612855578081fd5b815161233e81612c87565b60008060008060008060c08789031215612878578081fd5b863561288381612c87565b9550602087013561289381612c72565b945060408701359350606087013592506080870135915060a08701356128b881612c72565b809150509295509295509295565b6000602082840312156128d7578081fd5b5035919050565b6000806000606084860312156128f2578081fd5b8335925060208401359150604084013561290b81612c72565b809150509250925092565b600060208284031215612927578081fd5b5051919050565b6003811061294c57634e487b7160e01b600052602160045260246000fd5b9052565b6001600160a01b039384168152919092166020820152604081019190915260600190565b6001600160a01b0394851681529290931660208301526040820152606081019190915260a06080820181905260009082015260c00190565b6020808252825182820181905260009190848201906040850190845b818110156129e4578351835292840192918401916001016129c8565b50909695505050505050565b60208082526023908201527f4d61726b6574706c6163653a204e6f74206f776e6572206f662074686520746f60408201526235b2b760e91b606082015260800190565b6020808252818101527f4f776e61626c653a2063616c6c6572206973206e6f7420746865206f776e6572604082015260600190565b60208082526023908201527f4d61726b6574706c6163653a20546f6b656e206973206e6f7420617070726f7660408201526232b21760e91b606082015260800190565b6020808252601f908201527f5265656e7472616e637947756172643a207265656e7472616e742063616c6c00604082015260600190565b81518152602080830151610140830191612aff9084018215159052565b506040830151612b1a60408401826001600160a01b03169052565b50606083015160608301526080830151612b3f60808401826001600160a01b03169052565b5060a0830151612b5a60a08401826001600160a01b03169052565b5060c0830151612b7560c08401826001600160a01b03169052565b5060e083015160e083015261010080840151818401525061012080840151612b9f8285018261292e565b505092915050565b604051601f8201601f1916810167ffffffffffffffff81118282101715612bd057612bd0612c5c565b604052919050565b60008219821115612beb57612beb612c46565b500190565b600082612c0b57634e487b7160e01b81526012600452602481fd5b500490565b6000816000190483118215151615612c2a57612c2a612c46565b500290565b600082821015612c4157612c41612c46565b500390565b634e487b7160e01b600052601160045260246000fd5b634e487b7160e01b600052604160045260246000fd5b6001600160a01b038116811461225f57600080fd5b801515811461225f57600080fdfea26469706673582212200af36a4c8f953320346426cf1eefa295483be1495a65225a33c8d56ec0eca67b64736f6c63430008040033",
  "linkReferences": {},
  "deployedLinkReferences": {}
}