{
  "_format": "hh-sol-artifact-1",
  "contractName": "TheShareMarketplace",
  "sourceName": "contracts/Protocol/TheShareMarketplace.sol",
  "abi": [
    {
      "inputs": [
        {
          "internalType": "address",
          "name": "_recipient",
          "type": "address"
        },
        {
          "internalType": "uint256",
          "name": "_listingFee",
          "type": "uint256"
        },
        {
          "internalType": "uint256",
          "name": "_floorPrice",
          "type": "uint256"
        }
      ],
      "stateMutability": "nonpayable",
      "type": "constructor"
    },
    {
      "anonymous": false,
      "inputs": [
        {
          "indexed": false,
          "internalType": "bytes32",
          "name": "itemId",
          "type": "bytes32"
        }
      ],
      "name": "MarketItemCancelled",
      "type": "event"
    },
    {
      "anonymous": false,
      "inputs": [
        {
          "indexed": false,
          "internalType": "bytes32",
          "name": "itemId",
          "type": "bytes32"
        },
        {
          "indexed": true,
          "internalType": "bool",
          "name": "isErc721",
          "type": "bool"
        },
        {
          "indexed": true,
          "internalType": "address",
          "name": "nftContract",
          "type": "address"
        },
        {
          "indexed": true,
          "internalType": "uint256",
          "name": "tokenId",
          "type": "uint256"
        },
        {
          "indexed": false,
          "internalType": "address",
          "name": "erc20address",
          "type": "address"
        },
        {
          "indexed": false,
          "internalType": "uint256",
          "name": "amount",
          "type": "uint256"
        },
        {
          "indexed": false,
          "internalType": "uint256",
          "name": "price",
          "type": "uint256"
        }
      ],
      "name": "MarketItemUpdated",
      "type": "event"
    },
    {
      "anonymous": false,
      "inputs": [
        {
          "indexed": true,
          "internalType": "address",
          "name": "previousOwner",
          "type": "address"
        },
        {
          "indexed": true,
          "internalType": "address",
          "name": "newOwner",
          "type": "address"
        }
      ],
      "name": "OwnershipTransferred",
      "type": "event"
    },
    {
      "inputs": [
        {
          "internalType": "bytes32",
          "name": "itemId",
          "type": "bytes32"
        }
      ],
      "name": "cancelMarketItem",
      "outputs": [],
      "stateMutability": "nonpayable",
      "type": "function"
    },
    {
      "inputs": [
        {
          "internalType": "bool",
          "name": "isErc721",
          "type": "bool"
        },
        {
          "internalType": "address",
          "name": "nftContract",
          "type": "address"
        },
        {
          "internalType": "uint256",
          "name": "tokenId",
          "type": "uint256"
        },
        {
          "internalType": "uint256",
          "name": "price",
          "type": "uint256"
        },
        {
          "internalType": "uint256",
          "name": "amount",
          "type": "uint256"
        },
        {
          "internalType": "address",
          "name": "erc20address",
          "type": "address"
        }
      ],
      "name": "createMarketItem",
      "outputs": [],
      "stateMutability": "payable",
      "type": "function"
    },
    {
      "inputs": [],
      "name": "floorPrice",
      "outputs": [
        {
          "internalType": "uint256",
          "name": "",
          "type": "uint256"
        }
      ],
      "stateMutability": "view",
      "type": "function"
    },
    {
      "inputs": [],
      "name": "getListingFeeRecipient",
      "outputs": [
        {
          "internalType": "address",
          "name": "",
          "type": "address"
        }
      ],
      "stateMutability": "view",
      "type": "function"
    },
    {
      "inputs": [
        {
          "internalType": "bytes32",
          "name": "itemId",
          "type": "bytes32"
        }
      ],
      "name": "getMarketItem",
      "outputs": [
        {
          "components": [
            {
              "internalType": "bytes32",
              "name": "itemId",
              "type": "bytes32"
            },
            {
              "internalType": "bool",
              "name": "isErc721",
              "type": "bool"
            },
            {
              "internalType": "address",
              "name": "nftContract",
              "type": "address"
            },
            {
              "internalType": "uint256",
              "name": "tokenId",
              "type": "uint256"
            },
            {
              "internalType": "address",
              "name": "erc20address",
              "type": "address"
            },
            {
              "internalType": "address payable",
              "name": "seller",
              "type": "address"
            },
            {
              "internalType": "address payable",
              "name": "buyer",
              "type": "address"
            },
            {
              "internalType": "uint256",
              "name": "amount",
              "type": "uint256"
            },
            {
              "internalType": "uint256",
              "name": "price",
              "type": "uint256"
            },
            {
              "internalType": "enum TheShareMarketplace.State",
              "name": "state",
              "type": "uint8"
            }
          ],
          "internalType": "struct TheShareMarketplace.MarketItem",
          "name": "",
          "type": "tuple"
        }
      ],
      "stateMutability": "view",
      "type": "function"
    },
    {
      "inputs": [],
      "name": "getOpenItems",
      "outputs": [
        {
          "internalType": "bytes32[]",
          "name": "",
          "type": "bytes32[]"
        }
      ],
      "stateMutability": "view",
      "type": "function"
    },
    {
      "inputs": [],
      "name": "listingFee",
      "outputs": [
        {
          "internalType": "uint256",
          "name": "",
          "type": "uint256"
        }
      ],
      "stateMutability": "view",
      "type": "function"
    },
    {
      "inputs": [
        {
          "internalType": "address",
          "name": "",
          "type": "address"
        },
        {
          "internalType": "address",
          "name": "",
          "type": "address"
        },
        {
          "internalType": "uint256[]",
          "name": "",
          "type": "uint256[]"
        },
        {
          "internalType": "uint256[]",
          "name": "",
          "type": "uint256[]"
        },
        {
          "internalType": "bytes",
          "name": "",
          "type": "bytes"
        }
      ],
      "name": "onERC1155BatchReceived",
      "outputs": [
        {
          "internalType": "bytes4",
          "name": "",
          "type": "bytes4"
        }
      ],
      "stateMutability": "nonpayable",
      "type": "function"
    },
    {
      "inputs": [
        {
          "internalType": "address",
          "name": "",
          "type": "address"
        },
        {
          "internalType": "address",
          "name": "",
          "type": "address"
        },
        {
          "internalType": "uint256",
          "name": "",
          "type": "uint256"
        },
        {
          "internalType": "uint256",
          "name": "",
          "type": "uint256"
        },
        {
          "internalType": "bytes",
          "name": "",
          "type": "bytes"
        }
      ],
      "name": "onERC1155Received",
      "outputs": [
        {
          "internalType": "bytes4",
          "name": "",
          "type": "bytes4"
        }
      ],
      "stateMutability": "nonpayable",
      "type": "function"
    },
    {
      "inputs": [
        {
          "internalType": "address",
          "name": "",
          "type": "address"
        },
        {
          "internalType": "address",
          "name": "",
          "type": "address"
        },
        {
          "internalType": "uint256",
          "name": "",
          "type": "uint256"
        },
        {
          "internalType": "bytes",
          "name": "",
          "type": "bytes"
        }
      ],
      "name": "onERC721Received",
      "outputs": [
        {
          "internalType": "bytes4",
          "name": "",
          "type": "bytes4"
        }
      ],
      "stateMutability": "nonpayable",
      "type": "function"
    },
    {
      "inputs": [],
      "name": "owner",
      "outputs": [
        {
          "internalType": "address",
          "name": "",
          "type": "address"
        }
      ],
      "stateMutability": "view",
      "type": "function"
    },
    {
      "inputs": [
        {
          "internalType": "bytes32",
          "name": "itemId",
          "type": "bytes32"
        },
        {
          "internalType": "uint256",
          "name": "amount",
          "type": "uint256"
        },
        {
          "internalType": "address",
          "name": "erc20address",
          "type": "address"
        }
      ],
      "name": "purchaseItem",
      "outputs": [],
      "stateMutability": "payable",
      "type": "function"
    },
    {
      "inputs": [],
      "name": "renounceOwnership",
      "outputs": [],
      "stateMutability": "nonpayable",
      "type": "function"
    },
    {
      "inputs": [
        {
          "internalType": "uint256",
          "name": "_floorPrice",
          "type": "uint256"
        }
      ],
      "name": "setFloorPrice",
      "outputs": [],
      "stateMutability": "nonpayable",
      "type": "function"
    },
    {
      "inputs": [
        {
          "internalType": "uint256",
          "name": "_listingFee",
          "type": "uint256"
        }
      ],
      "name": "setListingFee",
      "outputs": [],
      "stateMutability": "nonpayable",
      "type": "function"
    },
    {
      "inputs": [
        {
          "internalType": "address",
          "name": "_recipient",
          "type": "address"
        }
      ],
      "name": "setListingFeeRecipient",
      "outputs": [],
      "stateMutability": "nonpayable",
      "type": "function"
    },
    {
      "inputs": [
        {
          "internalType": "address",
          "name": "newOwner",
          "type": "address"
        }
      ],
      "name": "transferOwnership",
      "outputs": [],
      "stateMutability": "nonpayable",
      "type": "function"
    },
    {
      "stateMutability": "payable",
      "type": "receive"
    }
  ],
  "bytecode": "0x60806040523480156200001157600080fd5b5060405162002d1638038062002d168339810160408190526200003491620000c3565b6001600055620000443362000071565b600480546001600160a01b0319166001600160a01b03949094169390931790925560025560035562000106565b600180546001600160a01b038381166001600160a01b0319831681179093556040519116919082907f8be0079c531659141344cd1fd0a4f28419497f9722a3daafe3b4186f6b6457e090600090a35050565b600080600060608486031215620000d8578283fd5b83516001600160a01b0381168114620000ef578384fd5b602085015160409095015190969495509392505050565b612c0080620001166000396000f3fe6080604052600436106101025760003560e01c80636a1b7ecc116100955780639363c812116100645780639363c812146102b9578063bc197c81146102cf578063d1eb5d7f146102fb578063f23a6e6114610319578063f2fde38b1461034557600080fd5b80636a1b7ecc14610221578063715018a6146102455780638184a48c1461025a5780638da5cb5b1461028757600080fd5b80633d05829d116100d15780633d05829d146101b9578063470d81f6146101d9578063576bbdda146101ec57806358c5fa22146101ff57600080fd5b8063131dbd091461010e578063150b7a0214610130578063311e8981146101795780633a55f5911461019957600080fd5b3661010957005b600080fd5b34801561011a57600080fd5b5061012e610129366004612833565b610365565b005b34801561013c57600080fd5b5061015b61014b3660046126b3565b630a85bd0160e11b949350505050565b6040516001600160e01b031990911681526020015b60405180910390f35b34801561018557600080fd5b5061012e610194366004612833565b61039d565b3480156101a557600080fd5b5061012e6101b43660046125d1565b610917565b3480156101c557600080fd5b5061012e6101d4366004612833565b610963565b61012e6101e73660046127cd565b610992565b61012e6101fa36600461284b565b610feb565b34801561020b57600080fd5b50610214611f20565b6040516101709190612919565b34801561022d57600080fd5b5061023760025481565b604051908152602001610170565b34801561025157600080fd5b5061012e611f31565b34801561026657600080fd5b5061027a610275366004612833565b611f67565b6040516101709190612a4f565b34801561029357600080fd5b506001546001600160a01b03165b6040516001600160a01b039091168152602001610170565b3480156102c557600080fd5b5061023760035481565b3480156102db57600080fd5b5061015b6102ea366004612609565b63bc197c8160e01b95945050505050565b34801561030757600080fd5b506004546001600160a01b03166102a1565b34801561032557600080fd5b5061015b61033436600461271d565b63f23a6e6160e01b95945050505050565b34801561035157600080fd5b5061012e6103603660046125d1565b6120a2565b6001546001600160a01b031633146103985760405162461bcd60e51b815260040161038f906129a0565b60405180910390fd5b600255565b600260005414156103c05760405162461bcd60e51b815260040161038f90612a18565b60026000556103d060068261213d565b61042b5760405162461bcd60e51b815260206004820152602660248201527f4d61726b6574706c6163653a204974656d206973206e6f74206c697374656420604482015265185d08185b1b60d21b606482015260840161038f565b600081815260056020818152604080842081516101408101835281548152600182015460ff8082161515958301959095526001600160a01b036101009182900481169483019490945260028084015460608401526003840154851660808401526004840154851660a08401529583015490931660c0820152600682015460e082015260078201549281019290925260088101549193909261012085019216908111156104e757634e487b7160e01b600052602160045260246000fd5b600281111561050657634e487b7160e01b600052602160045260246000fd5b90525090506000816101200151600281111561053257634e487b7160e01b600052602160045260246000fd5b1461058b5760405162461bcd60e51b815260206004820152602360248201527f4d61726b6574706c6163653a204974656d206d757374206265206f6e206d61726044820152621ad95d60ea1b606482015260840161038f565b60a08101516001600160a01b03163314806105b057506001546001600160a01b031633145b6106485760405162461bcd60e51b815260206004820152605d60248201527f4d61726b6574706c6163653a204d61726b6574206974656d2063616e2774206260448201527f652063616e63656c6c65642066726f6d206f74686572207468656e2073656c6c60648201527f6572206f72206d61726b6574206f776e65722e2041626f7274696e672e000000608482015260a40161038f565b80602001511561070d57336001600160a01b031681604001516001600160a01b0316636352211e83606001516040518263ffffffff1660e01b815260040161069291815260200190565b60206040518083038186803b1580156106aa57600080fd5b505afa1580156106be573d6000803e3d6000fd5b505050506040513d601f19601f820116820180604052508101906106e291906125ed565b6001600160a01b0316146107085760405162461bcd60e51b815260040161038f9061295d565b6107c3565b60e081015160408201516001600160a01b031662fdd58e3360608501516040516001600160e01b031960e085901b1681526001600160a01b039092166004830152602482015260440160206040518083038186803b15801561076e57600080fd5b505afa158015610782573d6000803e3d6000fd5b505050506040513d601f19601f820116820180604052508101906107a69190612883565b106107c35760405162461bcd60e51b815260040161038f9061295d565b60026101208201818152600084815260056020818152604092839020865181559086015160018083018054958901516001600160a01b03908116610100908102610100600160a81b0319951515959095166001600160a81b03199098169790971793909317905560608801518388015560808801516003840180549184166001600160a01b031992831617905560a089015160048501805491851691831691909117905560c0890151948401805495909316941693909317905560e086015160068201559185015160078301559151600882018054869593949293919260ff199091169184908111156108c657634e487b7160e01b600052602160045260246000fd5b02179055506108da9150600690508361215a565b506040518281527f6572b1289652217e076a161b541361457ab4c2a0eeabd45eb9447e4b1576f4c29060200160405180910390a150506001600055565b6001546001600160a01b031633146109415760405162461bcd60e51b815260040161038f906129a0565b600480546001600160a01b0319166001600160a01b0392909216919091179055565b6001546001600160a01b0316331461098d5760405162461bcd60e51b815260040161038f906129a0565b600355565b600260005414156109b55760405162461bcd60e51b815260040161038f90612a18565b600260005560408051606087811b6bffffffffffffffffffffffff1990811660208085019190915260348401899052605484018790523390921b166074830152825160688184030181526088909201909252805191012086610bc35760008311610a1e57600080fd5b826001600160a01b03871662fdd58e336040516001600160e01b031960e084901b1681526001600160a01b0390911660048201526024810189905260440160206040518083038186803b158015610a7457600080fd5b505afa158015610a88573d6000803e3d6000fd5b505050506040513d601f19601f82011682018060405250810190610aac9190612883565b1015610b155760405162461bcd60e51b815260206004820152603260248201527f4d61726b6574706c6163653a204e6f742073756666696369656e742062616c616044820152713731b2903337b9103a34329039b2b63632b960711b606482015260840161038f565b6001600160a01b03861663e985e9c5336040516001600160e01b031960e084901b1681526001600160a01b03909116600482015230602482015260440160206040518083038186803b158015610b6a57600080fd5b505afa158015610b7e573d6000803e3d6000fd5b505050506040513d601f19601f82011682018060405250810190610ba291906127b1565b610bbe5760405162461bcd60e51b815260040161038f906129d5565b610d43565b82600114610bd057600080fd5b336040516331a9108f60e11b8152600481018790526001600160a01b0391821691881690636352211e9060240160206040518083038186803b158015610c1557600080fd5b505afa158015610c29573d6000803e3d6000fd5b505050506040513d601f19601f82011682018060405250810190610c4d91906125ed565b6001600160a01b031614610ca35760405162461bcd60e51b815260206004820152601c60248201527f4d61726b6574706c6163653a204e6f7420746f6b656e206f776e657200000000604482015260640161038f565b60405163020604bf60e21b81526004810186905230906001600160a01b0388169063081812fc9060240160206040518083038186803b158015610ce557600080fd5b505afa158015610cf9573d6000803e3d6000fd5b505050506040513d601f19601f82011682018060405250810190610d1d91906125ed565b6001600160a01b031614610d435760405162461bcd60e51b815260040161038f906129d5565b6002543414610da05760405162461bcd60e51b8152602060048201526024808201527f5072696365206d75737420626520657175616c20746f206c697374696e6720706044820152637269636560e01b606482015260840161038f565b6040518061014001604052808281526020018815158152602001876001600160a01b03168152602001868152602001836001600160a01b03168152602001610de53390565b6001600160a01b0316815260200160006001600160a01b0316815260200184815260200185815260200160006002811115610e3057634e487b7160e01b600052602160045260246000fd5b9052600082815260056020818152604092839020845181559084015160018083018054958701516001600160a81b0319909616921515610100600160a81b031916929092176101006001600160a01b03968716810291909117909255606086015160028085019190915560808701516003850180546001600160a01b031990811692891692909217905560a0880151600486018054831691891691909117905560c08801519585018054909116959096169490941790945560e08501516006830155840151600782015561012084015160088201805492949193909260ff191691908490811115610f3157634e487b7160e01b600052602160045260246000fd5b0217905550610f4591506006905082612166565b50604080518281526001600160a01b038481166020830152918101859052606081018690528691881690891515907fd5ad6e97e3d35e6b198f3647c75e285bd29baa1013139a2793782d39b57d6b2a9060800160405180910390a46004546002546040516001600160a01b039092169181156108fc0291906000818181858888f19350505050158015610fdc573d6000803e3d6000fd5b50506001600055505050505050565b826000808281526005602052604090206008015460ff16600281111561102157634e487b7160e01b600052602160045260246000fd5b1461106e5760405162461bcd60e51b815260206004820152601d60248201527f4974656d206973206e6f742061637469766520746f20626520736f6c64000000604482015260640161038f565b600260005414156110915760405162461bcd60e51b815260040161038f90612a18565b6002600081815585815260056020818152604080842081516101408101835281548152600182015460ff8082161515958301959095526001600160a01b03610100918290048116948301949094528288015460608301526003830154841660808301526004830154841660a08301529482015490921660c0830152600681015460e0830152600781015493820193909352600883015493949093610120850192169081111561115057634e487b7160e01b600052602160045260246000fd5b600281111561116f57634e487b7160e01b600052602160045260246000fd5b8152505090506111828160200151612172565b806020015115611411578360011461119957600080fd5b306001600160a01b031681604001516001600160a01b031663081812fc83606001516040518263ffffffff1660e01b81526004016111d991815260200190565b60206040518083038186803b1580156111f157600080fd5b505afa158015611205573d6000803e3d6000fd5b505050506040513d601f19601f8201168201806040525081019061122991906125ed565b6001600160a01b03161480156112d957508060a001516001600160a01b031681604001516001600160a01b0316636352211e83606001516040518263ffffffff1660e01b815260040161127e91815260200190565b60206040518083038186803b15801561129657600080fd5b505afa1580156112aa573d6000803e3d6000fd5b505050506040513d601f19601f820116820180604052508101906112ce91906125ed565b6001600160a01b0316145b6113255760405162461bcd60e51b815260206004820152601c60248201527f546f6b656e206e6f7420617070726f766564206e6f72206f776e656400000000604482015260640161038f565b336001600160a01b031681604001516001600160a01b0316636352211e83606001516040518263ffffffff1660e01b815260040161136591815260200190565b60206040518083038186803b15801561137d57600080fd5b505afa158015611391573d6000803e3d6000fd5b505050506040513d601f19601f820116820180604052508101906113b591906125ed565b6001600160a01b0316141561140c5760405162461bcd60e51b815260206004820152601760248201527f546f6b656e206f776e6572206e6f7420616c6c6f776564000000000000000000604482015260640161038f565b6115d7565b6000841161141e57600080fd5b8060e0015184111580156114c0575060408082015160a083015160608401519251627eeac760e11b81526001600160a01b0391821660048201526024810193909352869291169062fdd58e9060440160206040518083038186803b15801561148557600080fd5b505afa158015611499573d6000803e3d6000fd5b505050506040513d601f19601f820116820180604052508101906114bd9190612883565b10155b6115325760405162461bcd60e51b815260206004820152603760248201527f4d61726b6574706c6163653a204552433131353520696e73756666696369656e60448201527f742062616c616e6365206f662074686520746f6b656e2e000000000000000000606482015260840161038f565b60408082015160a0830151915163e985e9c560e01b81526001600160a01b03928316600482015230602482015291169063e985e9c59060440160206040518083038186803b15801561158357600080fd5b505afa158015611597573d6000803e3d6000fd5b505050506040513d601f19601f820116820180604052508101906115bb91906127b1565b6115d75760405162461bcd60e51b815260040161038f906129d5565b826001600160a01b031681608001516001600160a01b0316146116685761010081015161160490856121b3565b3410156116685760405162461bcd60e51b815260206004820152602c60248201527f4d61726b6574706c6163653a205061796d656e74206d6574686f64206973206e60448201526b1bdd081a59195b9d1a58d85b60a21b606482015260840161038f565b61167581604001516121bf565b6116c15760405162461bcd60e51b815260206004820152601b60248201527f526f79616c7469657320617265206e6f7420617661696c61626c650000000000604482015260640161038f565b60008082604001516001600160a01b0316632a55205a84606001518561010001516040518363ffffffff1660e01b8152600401611708929190918252602082015260400190565b604080518083038186803b15801561171f57600080fd5b505afa158015611733573d6000803e3d6000fd5b505050506040513d601f19601f820116820180604052508101906117579190612784565b915091506117623390565b6001600160a01b0390811660c08501526080840151166119cd5761010083015161178c90876121b3565b3410156117f55760405162461bcd60e51b815260206004820152603160248201527f4d61726b6574706c6163653a20496e73756666696369656e742076616c7565206044820152707061696420666f7220746865206974656d60781b606482015260840161038f565b801561183c576001600160a01b0382166108fc61181283896121b3565b6040518115909202916000818181858888f1935050505015801561183a573d6000803e3d6000fd5b505b61010083015161184c90876121b3565b34111561189d5761010083015133906108fc9061186990896121b3565b6118739034612b64565b6040518115909202916000818181858888f1935050505015801561189b573d6000803e3d6000fd5b505b8260a001516001600160a01b03166108fc6118d0886118ca8588610100015161224990919063ffffffff16565b906121b3565b6040518115909202916000818181858888f193505050501580156118f8573d6000803e3d6000fd5b50826020015115611987576119108360c00151612255565b82604001516001600160a01b03166342842e0e8460a001518560c0015186606001516040518463ffffffff1660e01b8152600401611950939291906128bd565b600060405180830381600087803b15801561196a57600080fd5b505af115801561197e573d6000803e3d6000fd5b50505050611d32565b82604001516001600160a01b031663f242432a8460a001518560c0015186606001518760e001516040518563ffffffff1660e01b815260040161195094939291906128e1565b60808301516101008401516119e290886121b3565b6001600160a01b03821663dd62ed3e336040516001600160e01b031960e084901b1681526001600160a01b03909116600482015230602482015260440160206040518083038186803b158015611a3757600080fd5b505afa158015611a4b573d6000803e3d6000fd5b505050506040513d601f19601f82011682018060405250810190611a6f9190612883565b1015611af75760405162461bcd60e51b815260206004820152604b60248201527f4d61726b6574706c6163653a20496e73756666696369656e742045524332302060448201527f616c6c6f77616e63652062616c616e636520666f7220706179696e6720666f7260648201526a103a34329030b9b9b2ba1760a91b608482015260a40161038f565b8115611b905760c08401516001600160a01b038216906323b872dd9085611b1e868c6121b3565b6040518463ffffffff1660e01b8152600401611b3c939291906128bd565b602060405180830381600087803b158015611b5657600080fd5b505af1158015611b6a573d6000803e3d6000fd5b505050506040513d601f19601f82011682018060405250810190611b8e91906127b1565b505b806001600160a01b03166323b872dd8560c001518660a00151611bc58b6118ca888b610100015161224990919063ffffffff16565b6040518463ffffffff1660e01b8152600401611be3939291906128bd565b602060405180830381600087803b158015611bfd57600080fd5b505af1158015611c11573d6000803e3d6000fd5b505050506040513d601f19601f82011682018060405250810190611c3591906127b1565b50836020015115611cb75783604001516001600160a01b03166342842e0e8560a001518660c0015187606001516040518463ffffffff1660e01b8152600401611c80939291906128bd565b600060405180830381600087803b158015611c9a57600080fd5b505af1158015611cae573d6000803e3d6000fd5b50505050611d30565b83604001516001600160a01b031663f242432a8560a001518660c0015187606001518860e001516040518563ffffffff1660e01b8152600401611cfd94939291906128e1565b600060405180830381600087803b158015611d1757600080fd5b505af1158015611d2b573d6000803e3d6000fd5b505050505b505b826020015115611d55576001610120840152611d4f60068861215a565b50611d84565b60e0830151611d649087612249565b60e08401819052611d84576001610120840152611d8260068861215a565b505b600087815260056020818152604092839020865181559086015160018083018054958901516001600160a81b0319909616921515610100600160a81b031916929092176101006001600160a01b03968716810291909117909255606088015160028085019190915560808901516003850180546001600160a01b031990811692891692909217905560a08a0151600486018054831691891691909117905560c08a01519585018054909116959096169490941790945560e087015160068301558601516007820155610120860151600882018054889593949293919260ff1990911691908490811115611e8757634e487b7160e01b600052602160045260246000fd5b0217905550905050826060015183604001516001600160a01b0316846020015115157fd5ad6e97e3d35e6b198f3647c75e285bd29baa1013139a2793782d39b57d6b2a8a87608001518860e00151896101000151604051611f0a94939291909384526001600160a01b039290921660208401526040830152606082015260800190565b60405180910390a4505060016000555050505050565b6060611f2c600661229d565b905090565b6001546001600160a01b03163314611f5b5760405162461bcd60e51b815260040161038f906129a0565b611f6560006122a8565b565b611fbc6040805161014081018252600080825260208201819052918101829052606081018290526080810182905260a0810182905260c0810182905260e0810182905261010081018290529061012082015290565b60008281526005602081815260409283902083516101408101855281548152600182015460ff8082161515948301949094526001600160a01b036101009182900481169683019690965260028084015460608401526003840154871660808401526004840154871660a08401529483015490951660c0820152600682015460e082015260078201549481019490945260088101549092610120850192919091169081111561207a57634e487b7160e01b600052602160045260246000fd5b600281111561209957634e487b7160e01b600052602160045260246000fd5b90525092915050565b6001546001600160a01b031633146120cc5760405162461bcd60e51b815260040161038f906129a0565b6001600160a01b0381166121315760405162461bcd60e51b815260206004820152602660248201527f4f776e61626c653a206e6577206f776e657220697320746865207a65726f206160448201526564647265737360d01b606482015260840161038f565b61213a816122a8565b50565b600081815260018301602052604081205415155b90505b92915050565b600061215183836122fa565b60006121518383612417565b604051811515602482015261213a9060440160408051601f198184030181529190526020810180516001600160e01b03166332458eed60e01b179052612466565b60006121518284612b45565b6040516301ffc9a760e01b815263152a902d60e11b600482015260009081906001600160a01b038416906301ffc9a79060240160206040518083038186803b15801561220a57600080fd5b505afa15801561221e573d6000803e3d6000fd5b505050506040513d601f19601f8201168201806040525081019061224291906127b1565b9392505050565b60006121518284612b64565b6040516001600160a01b038216602482015261213a9060440160408051601f198184030181529190526020810180516001600160e01b031663161765e160e11b179052612466565b606061215482612487565b600180546001600160a01b038381166001600160a01b0319831681179093556040519116919082907f8be0079c531659141344cd1fd0a4f28419497f9722a3daafe3b4186f6b6457e090600090a35050565b6000818152600183016020526040812054801561240d57600061231e600183612b64565b855490915060009061233290600190612b64565b90508181146123b357600086600001828154811061236057634e487b7160e01b600052603260045260246000fd5b906000526020600020015490508087600001848154811061239157634e487b7160e01b600052603260045260246000fd5b6000918252602080832090910192909255918252600188019052604090208390555b85548690806123d257634e487b7160e01b600052603160045260246000fd5b600190038181906000526020600020016000905590558560010160008681526020019081526020016000206000905560019350505050612154565b6000915050612154565b600081815260018301602052604081205461245e57508154600181810184556000848152602080822090930184905584548482528286019093526040902091909155612154565b506000612154565b80516a636f6e736f6c652e6c6f67602083016000808483855afa5050505050565b6060816000018054806020026020016040519081016040528092919081815260200182805480156124d757602002820191906000526020600020905b8154815260200190600101908083116124c3575b50505050509050919050565b600082601f8301126124f3578081fd5b8135602067ffffffffffffffff82111561250f5761250f612b91565b8160051b61251e828201612b14565b838152828101908684018388018501891015612538578687fd5b8693505b8584101561255a57803583526001939093019291840191840161253c565b50979650505050505050565b600082601f830112612576578081fd5b813567ffffffffffffffff81111561259057612590612b91565b6125a3601f8201601f1916602001612b14565b8181528460208386010111156125b7578283fd5b816020850160208301379081016020019190915292915050565b6000602082840312156125e2578081fd5b813561224281612ba7565b6000602082840312156125fe578081fd5b815161224281612ba7565b600080600080600060a08688031215612620578081fd5b853561262b81612ba7565b9450602086013561263b81612ba7565b9350604086013567ffffffffffffffff80821115612657578283fd5b61266389838a016124e3565b94506060880135915080821115612678578283fd5b61268489838a016124e3565b93506080880135915080821115612699578283fd5b506126a688828901612566565b9150509295509295909350565b600080600080608085870312156126c8578384fd5b84356126d381612ba7565b935060208501356126e381612ba7565b925060408501359150606085013567ffffffffffffffff811115612705578182fd5b61271187828801612566565b91505092959194509250565b600080600080600060a08688031215612734578081fd5b853561273f81612ba7565b9450602086013561274f81612ba7565b93506040860135925060608601359150608086013567ffffffffffffffff811115612778578182fd5b6126a688828901612566565b60008060408385031215612796578182fd5b82516127a181612ba7565b6020939093015192949293505050565b6000602082840312156127c2578081fd5b815161224281612bbc565b60008060008060008060c087890312156127e5578081fd5b86356127f081612bbc565b9550602087013561280081612ba7565b945060408701359350606087013592506080870135915060a087013561282581612ba7565b809150509295509295509295565b600060208284031215612844578081fd5b5035919050565b60008060006060848603121561285f578081fd5b8335925060208401359150604084013561287881612ba7565b809150509250925092565b600060208284031215612894578081fd5b5051919050565b600381106128b957634e487b7160e01b600052602160045260246000fd5b9052565b6001600160a01b039384168152919092166020820152604081019190915260600190565b6001600160a01b0394851681529290931660208301526040820152606081019190915260a06080820181905260009082015260c00190565b6020808252825182820181905260009190848201906040850190845b8181101561295157835183529284019291840191600101612935565b50909695505050505050565b60208082526023908201527f4d61726b6574706c6163653a204e6f74206f776e6572206f662074686520746f60408201526235b2b760e91b606082015260800190565b6020808252818101527f4f776e61626c653a2063616c6c6572206973206e6f7420746865206f776e6572604082015260600190565b60208082526023908201527f4d61726b6574706c6163653a20546f6b656e206973206e6f7420617070726f7660408201526232b21760e91b606082015260800190565b6020808252601f908201527f5265656e7472616e637947756172643a207265656e7472616e742063616c6c00604082015260600190565b81518152602080830151610140830191612a6c9084018215159052565b506040830151612a8760408401826001600160a01b03169052565b50606083015160608301526080830151612aac60808401826001600160a01b03169052565b5060a0830151612ac760a08401826001600160a01b03169052565b5060c0830151612ae260c08401826001600160a01b03169052565b5060e083015160e083015261010080840151818401525061012080840151612b0c8285018261289b565b505092915050565b604051601f8201601f1916810167ffffffffffffffff81118282101715612b3d57612b3d612b91565b604052919050565b6000816000190483118215151615612b5f57612b5f612b7b565b500290565b600082821015612b7657612b76612b7b565b500390565b634e487b7160e01b600052601160045260246000fd5b634e487b7160e01b600052604160045260246000fd5b6001600160a01b038116811461213a57600080fd5b801515811461213a57600080fdfea2646970667358221220083baac0d259330983bcc14c16d8f576f596c4f7f175a5a8153e79c3f8a8b11664736f6c63430008040033",
  "linkReferences": {},
  "deployedLinkReferences": {}
}